{
  "transactions": [
    {
      "hash": "0x8847b19e52a689fb135ea317c4e4848449e5031bdf29b46ef4fbb7b1dcaa08aa",
      "transactionType": "CREATE",
      "contractName": "MockDIAOracle",
      "contractAddress": "0xFD0Fd568f70C42F87Bc4c9cE99853839fFB02151",
      "function": null,
      "arguments": null,
      "transaction": {
        "from": "0xee2e617a42Aab5be36c290982493C6CC6C072982",
        "gas": "0x397ab",
        "value": "0x0",
        "input": "0x60808060405234601557610250908161001b8239f35b600080fdfe6080604052600436101561001257600080fd5b60003560e01c8063960384a0146100cb5763e74254a71461003257600080fd5b346100c65760403660031901126100c65760043567ffffffffffffffff81116100c657610063903690600401610129565b602435906001600160801b03821682036100c6576100a2916001600160801b0361008c836101a8565b91166001600160801b03198254161790556101e1565b80546fffffffffffffffffffffffffffffffff1916426001600160801b0316179055005b600080fd5b346100c65760203660031901126100c65760043567ffffffffffffffff81116100c6576100fe6040913690600401610129565b6001600160801b0361011b81610113846101a8565b5416926101e1565b541682519182526020820152f35b81601f820112156100c65780359067ffffffffffffffff82116101925760405192601f8301601f19908116603f0116840167ffffffffffffffff81118582101761019257604052828452602083830101116100c657816000926020809301838601378301015290565b634e487b7160e01b600052604160045260246000fd5b604051908181519160005b8381106101cc5750506020918101600081520301902090565b602082820181015186830152859350016101b3565b604051908181519160005b8381106102055750506020918101600181520301902090565b602082820181015186830152859350016101ec56fea2646970667358221220e10ecfb446ba2f434685d8b8c842637b16404bb50b47fe5776dbbc5b5051fb2764736f6c634300081a0033",
        "nonce": "0x1d5",
        "chainId": "0x103c"
      },
      "additionalContracts": [],
      "isFixedGasLimit": false
    },
    {
      "hash": "0x9bee19109afd8c289b977f90e1ba1d7787a63214003140a89769ce926a4868d1",
      "transactionType": "CALL",
      "contractName": "MockDIAOracle",
      "contractAddress": "0xFD0Fd568f70C42F87Bc4c9cE99853839fFB02151",
      "function": "setPrice(string,uint128)",
      "arguments": [
        "XFI/USD",
        "90000000"
      ],
      "transaction": {
        "from": "0xee2e617a42Aab5be36c290982493C6CC6C072982",
        "to": "0xFD0Fd568f70C42F87Bc4c9cE99853839fFB02151",
        "gas": "0x1697c",
        "value": "0x0",
        "input": "0xe74254a7000000000000000000000000000000000000000000000000000000000000004000000000000000000000000000000000000000000000000000000000055d4a8000000000000000000000000000000000000000000000000000000000000000075846492f55534400000000000000000000000000000000000000000000000000",
        "nonce": "0x1d6",
        "chainId": "0x103c"
      },
      "additionalContracts": [],
      "isFixedGasLimit": false
    },
    {
      "hash": "0x689768732e5f6e94b78daa53c25af9fe4c728ae8c7ffeb7b530577946f8a1933",
      "transactionType": "CREATE",
      "contractName": "UnifiedOracle",
      "contractAddress": "0xefe4cDF0A7Ceb2B12c43Fd8934cf2698D62a17f6",
      "function": null,
      "arguments": null,
      "transaction": {
        "from": "0xee2e617a42Aab5be36c290982493C6CC6C072982",
        "gas": "0x132a03",
        "value": "0x0",
        "input": "0x60808060405234601557611085908161001b8239f35b600080fdfe608080604052600436101561001357600080fd5b60003560e01c90816301ffc9a7146107dc575080631732d330146107a157806322e0119214610703578063248a9ca3146106d65780632f2ff15d1461061657806336568abe14610584578063524f3889146105485780635c975abb1461052557806391d14854146104d8578063a217fddf146104bc578063a28ff72d1461049e578063c4d66de8146101cf578063d547741f14610188578063e7bb654d14610161578063e91b10fa146100fa5763ff138439146100cf57600080fd5b346100f55760203660031901126100f55760206100ed600435610b5a565b604051908152f35b600080fd5b346100f55760203660031901126100f557600435610116610bc1565b610121811515610873565b8060ca557f159e83f4712ba2552e68be9d848e49bf6dd35c24f19564ffd523b6549450a2f4602060036040516209aa0b60eb1b81522092604051908152a2005b346100f55760003660031901126100f557604061017c610a07565b82519182526020820152f35b346100f55760403660031901126100f5576101cd6004356101a761085d565b906101c86101c382600052606560205260016040600020015490565b610cef565b610d33565b005b346100f55760203660031901126100f5576004356001600160a01b038116908190036100f5576000549060ff8260081c161591828093610491575b801561047a575b1561041e5760ff1981166001176000558261040c575b5061024b60ff60005460081c1661023d81610db9565b61024681610db9565b610db9565b6097805460ff1916905560c980546001600160a01b0319169190911790553360009081527fffdfc1249c027f9191656349feb0761381bb32c9f557e01f419fd08754bf5a1b602052604090205460ff16156103a8575b3360009081527f195b802817a72f18b673de6eed587139bc84fcc6a3cb962019b5b3d2f73bf0fd602052604090205460ff1615610322575b668e1bc9bf04000060ca556102ea57005b61ff0019600054166000557f7f26b83ff96e1f2b6a682f133852f6798a09c465da95921460cefb3847402498602060405160018152a1005b3360008181527f195b802817a72f18b673de6eed587139bc84fcc6a3cb962019b5b3d2f73bf0fd60205260408120805460ff1916600117905581907f9792fdc19ab98adfa72ab2fa98d342618c661e01c406979c105b31eda87f5e6f907f2f8788117e7eff1d82e926ec794901d17c78024a50270940304540a733656f0d9080a46102d9565b3360008181527fffdfc1249c027f9191656349feb0761381bb32c9f557e01f419fd08754bf5a1b60205260408120805460ff1916600117905581907f2f8788117e7eff1d82e926ec794901d17c78024a50270940304540a733656f0d8180a46102a1565b61ffff19166101011760005582610227565b60405162461bcd60e51b815260206004820152602e60248201527f496e697469616c697a61626c653a20636f6e747261637420697320616c72656160448201526d191e481a5b9a5d1a585b1a5e995960921b6064820152608490fd5b50303b1580156102115750600160ff821614610211565b50600160ff82161061020a565b346100f55760003660031901126100f557602060ca54604051908152f35b346100f55760003660031901126100f557602060405160008152f35b346100f55760403660031901126100f5576104f161085d565b600435600052606560205260406000209060018060a01b0316600052602052602060ff604060002054166040519015158152f35b346100f55760003660031901126100f557602060ff609754166040519015158152f35b346100f55760203660031901126100f55760043567ffffffffffffffff81116100f5576100ed61057e602092369060040161082f565b9061093a565b346100f55760403660031901126100f55761059d61085d565b336001600160a01b038216036105b9576101cd90600435610d33565b60405162461bcd60e51b815260206004820152602f60248201527f416363657373436f6e74726f6c3a2063616e206f6e6c792072656e6f756e636560448201526e103937b632b9903337b91039b2b63360891b6064820152608490fd5b346100f55760403660031901126100f55760043561063261085d565b9061064e6101c382600052606560205260016040600020015490565b806000526065602052604060002060018060a01b03831660005260205260ff604060002054161561067b57005b60008181526065602090815260408083206001600160a01b0395909516808452949091528120805460ff19166001179055339291907f2f8788117e7eff1d82e926ec794901d17c78024a50270940304540a733656f0d9080a4005b346100f55760203660031901126100f55760206100ed600435600052606560205260016040600020015490565b346100f55760403660031901126100f55760043567ffffffffffffffff81116100f5577f159e83f4712ba2552e68be9d848e49bf6dd35c24f19564ffd523b6549450a2f4610757602092369060040161082f565b6024359391610764610bc1565b61076f851515610873565b8460405183838237848185810160cb8152030190205581604051928392833781016000815203902092604051908152a2005b346100f55760003660031901126100f55760206040517f9792fdc19ab98adfa72ab2fa98d342618c661e01c406979c105b31eda87f5e6f8152f35b346100f55760203660031901126100f5576004359063ffffffff60e01b82168092036100f557602091637965db0b60e01b811490811561081e575b5015158152f35b6301ffc9a760e01b14905083610817565b9181601f840112156100f55782359167ffffffffffffffff83116100f557602083818601950101116100f557565b602435906001600160a01b03821682036100f557565b1561087a57565b60405162461bcd60e51b815260206004820152600d60248201526c496e76616c696420707269636560981b6044820152606490fd5b90601f8019910116810190811067ffffffffffffffff8211176108d157604052565b634e487b7160e01b600052604160045260246000fd5b67ffffffffffffffff81116108d157601f01601f191660200190565b92919261090f826108e7565b9161091d60405193846108af565b8294818452818301116100f5578281602093846000960137010152565b90610946368284610903565b602081519101209160409260036020855161096187826108af565b828152016209aa0b60eb1b815220146109ea5761097f913691610903565b6020815191012060036020835161099685826108af565b828152016258464960e81b815220146109dd575162461bcd60e51b815260206004820152600e60248201526d155b9adb9bdddb881cde5b589bdb60921b6044820152606490fd5b506109e6610a07565b5090565b50505060ca5490565b51906001600160801b03821682036100f557565b60c954604080516304b01c2560e51b81526020600482015260076024820152661611924bd554d160ca1b60448201529291839060649082906001600160a01b03165afa918215610b4e57600090600093610afe575b506001600160801b03168015801580610ae0575b15610ab0576402540be40082029182046402540be400141715610a9a57916001600160801b031690565b634e487b7160e01b600052601160045260246000fd5b50506040516258464960e81b815260cb600382015260239020549091508015610ad857904290565b506000908190565b506001600160801b0384164203428111610a9a57610e101015610a70565b9250506040823d604011610b46575b81610b1a604093836108af565b810103126100f5576001600160801b03610b3f6020610b38856109f3565b94016109f3565b9290610a5c565b3d9150610b0d565b6040513d6000823e3d90fd5b8015808015610bb7575b610bb057610b70610a07565b508015610ba857808302928304141715610a9a5760ca54908115610b92570490565b634e487b7160e01b600052601260045260246000fd5b505050600090565b5050600090565b5060ca5415610b64565b3360009081527f195b802817a72f18b673de6eed587139bc84fcc6a3cb962019b5b3d2f73bf0fd602052604090205460ff1615610bfa57565b610ce160446037610c0a33610e63565b610cb96011610c387f9792fdc19ab98adfa72ab2fa98d342618c661e01c406979c105b31eda87f5e6f610fa3565b60405194859160208301957f416363657373436f6e74726f6c3a206163636f756e74200000000000000000008752610c798151809260208688019101610e19565b83017001034b99036b4b9b9b4b733903937b6329607d1b83820152610ca8825180936020604885019101610e19565b01010301601f1981018452836108af565b60405193849262461bcd60e51b84526020600485015251809281602486015285850190610e19565b601f01601f19168101030190fd5b600081815260656020908152604080832033845290915290205460ff1615610d145750565b60446037610ce192610cb96011610c38610d2d33610e63565b93610fa3565b806000526065602052604060002060018060a01b03831660005260205260ff60406000205416610d61575050565b60008181526065602090815260408083206001600160a01b0395909516808452949091528120805460ff19169055339291907ff6391f5c32d9c69d2a47ea670b442974b53935d1edc7fd64eb21e047a839171b9080a4565b15610dc057565b60405162461bcd60e51b815260206004820152602b60248201527f496e697469616c697a61626c653a20636f6e7472616374206973206e6f74206960448201526a6e697469616c697a696e6760a81b6064820152608490fd5b60005b838110610e2c5750506000910152565b8181015183820152602001610e1c565b908151811015610e4d570160200190565b634e487b7160e01b600052603260045260246000fd5b600090610e70602a6108e7565b91610e7e60405193846108af565b602a8352610e8c602a6108e7565b6020840190601f1901368237835115610f8f5760309053825160011015610f7b576078602184015350602960005b60018211610f0f575050610ecb5790565b606460405162461bcd60e51b815260206004820152602060248201527f537472696e67733a20686578206c656e67746820696e73756666696369656e746044820152fd5b9091600f81166010811015610f67576f181899199a1a9b1b9c1cb0b131b232b360811b901a610f3e8486610e3c565b5360041c918015610f53576000190190610eba565b634e487b7160e01b82526011600452602482fd5b634e487b7160e01b83526032600452602483fd5b634e487b7160e01b81526032600452602490fd5b634e487b7160e01b82526032600452602482fd5b600090610fb060426108e7565b91610fbe60405193846108af565b60428352610fcc60426108e7565b6020840190601f1901368237835115610f8f5760309053825160011015610f7b576078602184015350604160005b6001821161100b575050610ecb5790565b9091600f81166010811015610f67576f181899199a1a9b1b9c1cb0b131b232b360811b901a61103a8486610e3c565b5360041c918015610f53576000190190610ffa56fea2646970667358221220f141e57a851a2da48ccae30722dcbcacc172a2c14ddf5c66656b6b3c88e4d60764736f6c634300081a0033",
        "nonce": "0x1d7",
        "chainId": "0x103c"
      },
      "additionalContracts": [],
      "isFixedGasLimit": false
    },
    {
      "hash": "0x1f849d674a7946c5d9fc0b35b833955486bfdbfa9caeb4b2df39692e8c25a891",
      "transactionType": "CREATE",
      "contractName": "NativeStaking",
      "contractAddress": "0x49bB1F3172B2cBFFaC0336147c13077857b6a8aF",
      "function": null,
      "arguments": null,
      "transaction": {
        "from": "0xee2e617a42Aab5be36c290982493C6CC6C072982",
        "gas": "0x452f87",
        "value": "0x0",
        "input": "0x60808060405234601557613e1d908161001b8239f35b600080fdfe608080604052600436101561001d575b50361561001b57600080fd5b005b60003560e01c908162c4e69a14612c885750806301ffc9a714612c325780630d29fcd414612c0a578063139b76bf14612be857806322477cab14612bc957806324085df514612a8e578063248a9ca314612a5957806327ff88fc14612817578063295311d0146127f85780632bcce425146126135780632f2ff15d1461255357806336568abe146124c15780633765cf02146124a257806337ce51ae1461247c57806345f217721461242a57806346f45b8d146121685780634e3266e314612077578063549dfc1014611d9e5780635c975abb14611d7b5780636a43a70114611b555780636e2f169614611b1a5780637071688a14611afc5780637571836614611ad35780637adbf97314611a6b5780637e75012c14611767578063833b1fce1461173e5780638fa111a51461169b57806391d148541461164e57806393f4bcde146115ba578063972c8ffa1461155f5780639a90a8e1146114c2578063a217fddf146114a6578063a428142b146113bd578063aa2bbdee14610fa7578063b7ab4db514610d9c578063ba5e745e14610d5c578063c350a1b514610a2f578063d0898c1814610a0d578063d3800eed146109ef578063d547741f146109aa578063d8f309c114610958578063dee95d1b146106fb578063ec87621c146106c0578063f07fc2241461069e578063f5b541a614610663578063f999c50614610609578063f9e21eb91461049a5763ffb2925914610239573861000f565b34610495576020366003190112610495576004356001600160401b03811161049557610269903690600401612cd0565b6102716134c4565b61028461027f368385612e8f565b61353d565b156104785761029c610297368385612e8f565b61368f565b6102c460405160208184516102b48183858901612d40565b810160fc81520301902054612f3a565b1561044f57506102ef6102db610297368486612e8f565b3360005260fe602052604060002090612f14565b80541561043e57600381015490811561043357505b61010454906103138282612ff7565b421061041157505060ff60046103306102db610297368688612e8f565b015416610400573360005261010160205260ff604060002054166103bb5761035d91610297913691612e8f565b3360005260fe602052426003610377604060002084612f14565b01557fc050fbdb05cfd3e20d6db3bc0238b5f13b18af81d8918f8165466c830d350b9f60405160208152806103b133946020830190612d63565b0390a2600160c955005b60405162461bcd60e51b815260206004820152601f60248201527f456d657267656e6379207769746864726177616c20696e2070726f63657373006044820152606490fd5b63dbcc726f60e01b60005260046000fd5b61041b9042613004565b9063686613ef60e11b60005260045260245260446000fd5b600291500154610304565b632cdf478160e11b60005260046000fd5b60405163060b707f60e51b815260206004820152908190610474906024830190612d63565b0390fd5b604051630349622b60e31b81529182916104749160048401612ec6565b600080fd5b34610495576104a836612dd1565b9290916104b36132fc565b6104c161027f368385612e8f565b15610478576104d461027f368686612e8f565b156105eb576104e7610297368385612e8f565b6104ff60405160208184516102b48183858901612d40565b1561044f5750610513610297368686612e8f565b61052b60405160208184516102b48183858901612d40565b1561044f5750916105476102976102979361054f953691612e8f565b933691612e8f565b815190602083019182209060208151910120146105da577f729eaecb9add68eb53c4b222f436486c28d0ba114dae1bad36df83f79253ebda9160016105a460206105ce94604051809381928751928391612d40565b810160fc81520301902001600260ff19825416179055604051918291604083526040830190612d63565b600260208301520390a1005b63f0e3e62960e01b60005260046000fd5b5050610474604051928392630349622b60e31b845260048401612ec6565b34610495576000366003190112610495576106226132fc565b61062a6137d5565b600160ff1960975416176097557f62e78cea01bee320cd4e420270b5ea74000d11b0c9f74754ebdbfc544b05a2586020604051338152a1005b346104955760003660031901126104955760206040517f97667070c54ef182b0f5858b034beac1b6f3089aa2d3188bb1e8929f4fa9b9298152f35b34610495576020366003190112610495576106b76132fc565b60043561010455005b346104955760003660031901126104955760206040517f241ecf16d79d0f8dbfb92cbc07fe17840425976cf0667f022fe9877caa831b088152f35b3461049557606036600319011261049557610714612ca4565b6024356001600160401b03811161049557610733903690600401612cd0565b9060443591610740613411565b6107486134c4565b61075661027f368385612e8f565b1561047857610769610297368385612e8f565b61078160405160208184516102b48183858901612d40565b1561044f575061079691610297913691612e8f565b9160018060a01b0381168060005260fe6020526107b7604060002085612f14565b600481019081549160ff8316156109475781549286841061092e57856000957f4f42c0af756b4e2949089b1b493aca69bfaa0be0f67f849195bbdd56a64bb821898b61089d8a998a998a998599868c9480610908575b9061081791613004565b835560018301610828858254613004565b905560ff1916905542600582015589600682015560405190600285519260208181890195610857818389612d40565b810160fc8152030190200161086d878254613004565b905554156108c8575b508589526101006020526040892061088f858254613004565b905560405193849384613011565b0390a25af16108aa612f90565b50156108b757600160c955005b6312171d8360e31b60005260046000fd5b6108e16020600392604051809381928951928391612d40565b810160fc815203019020016108f68154613273565b90556109028388613a06565b8c610876565b94508061092586610920610817946001890154613280565b6132b7565b9590915061080d565b83876322df051360e11b60005260045260245260446000fd5b630a7dedaf60e01b60005260046000fd5b3461049557602060ff600461099d61029761097f61097536612cfd565b9391933691612e8f565b6001600160a01b03909116600090815260fe86526040902090612f14565b0154166040519015158152f35b346104955760403660031901126104955761001b6004356109c9612cba565b906109ea6109e582600052606560205260016040600020015490565b613484565b61374f565b346104955760003660031901126104955760206040516213c6808152f35b3461049557602036600319011261049557610a266132fc565b60043561010355005b3461049557606036600319011261049557610a48612ca4565b6044356001600160a01b03811690819003610495576000549160ff8360081c161592838094610d4f575b8015610d38575b15610cdc5760ff19811660011760005583610cca575b50610acf60ff60005460081c16610aa581613b20565b610aae81613b20565b610ab781613b20565b60ff1960975416609755610aca81613b20565b613b20565b600160c9556001600160a01b03811660009081527fffdfc1249c027f9191656349feb0761381bb32c9f557e01f419fd08754bf5a1b602052604090205460ff1615610c5c575b6001600160a01b03811660009081527fcee91eb23e767f0f440dd9fce5554f355614443931e9ac5ce78c67b9e06e6f70602052604090205460ff1615610bcc575b50602435610106556bffffffffffffffffffffffff60a01b60fb54161760fb55620151806101025562015180610103556201518061010455610b9457005b61ff0019600054166000557f7f26b83ff96e1f2b6a682f133852f6798a09c465da95921460cefb3847402498602060405160018152a1005b6001600160a01b031660008181527fcee91eb23e767f0f440dd9fce5554f355614443931e9ac5ce78c67b9e06e6f7060205260408120805460ff191660011790553391907f241ecf16d79d0f8dbfb92cbc07fe17840425976cf0667f022fe9877caa831b08907f2f8788117e7eff1d82e926ec794901d17c78024a50270940304540a733656f0d9080a482610b56565b6001600160a01b03811660008181527fffdfc1249c027f9191656349feb0761381bb32c9f557e01f419fd08754bf5a1b60205260408120805460ff191660011790553391907f2f8788117e7eff1d82e926ec794901d17c78024a50270940304540a733656f0d8180a4610b15565b61ffff19166101011760005583610a8f565b60405162461bcd60e51b815260206004820152602e60248201527f496e697469616c697a61626c653a20636f6e747261637420697320616c72656160448201526d191e481a5b9a5d1a585b1a5e995960921b6064820152608490fd5b50303b158015610a795750600160ff821614610a79565b50600160ff821610610a72565b34610495576020366003190112610495576001600160a01b03610d7d612ca4565b16600052610101602052602060ff604060002054166040519015158152f35b346104955760003660031901126104955760fd54610db9816131c5565b90610dc76040519283612e53565b808252601f19610dd6826131c5565b0160005b818110610f9057505060fd5460005b828110610e5857836040518091602082016020835281518091526040830190602060408260051b8601019301916000905b828210610e2957505050500390f35b91936001919395506020610e488192603f198a82030186528851612d95565b9601920192018594939192610e1a565b600082821015610f7c5760fd90526040517f9346ac6dd7de6b96975fec380d4d994c4c12e6a8897544f22915316cc6cca280820180546000918290610e9c83612f3a565b9260018116908115610f615750600114610f2d575b505050906020818360fc600196955203019020600360405191610ed383612e38565b604051610eeb81610ee481856131dc565b0382612e53565b8352610f0060ff8683015416602085016132ab565b6002810154604084015201546060820152610f1b828761325f565b52610f26818661325f565b5001610de9565b908092935052602081205b828210610f4d57505081016020826001610eb1565b600181602092548487015201910190610f38565b60ff1916865250505080151502820190506020826001610eb1565b634e487b7160e01b81526032600452602490fd5b602090610f9b6132d7565b82828701015201610dda565b3461049557610fb536612dd1565b929190610fc06134c4565b610fce61027f368486612e8f565b1561139f57610fe161027f368684612e8f565b1561138057610ff4610297368486612e8f565b61100c60405160208184516102b48183858901612d40565b1561044f5750611020610297368684612e8f565b60405161103b825191602081818601946102b4818388612d40565b1561135e57600161105b602060ff93604051809381928851928391612d40565b810160fc81520301902001541660038110156113245760010361133a575060ff600461108e6102db610297368789612e8f565b015416610400576105476102976110aa94610297943691612e8f565b908051906020810191822083519060208501918220146105da5760ff600160405160208186516110db81838b612d40565b810160fc815203019020015416600381101561132457600203611302573360005260fe60205261110f604060002083612f14565b92835494851561043e57600485019460ff86541661040057600281019586544211156112f157859188913360005260fe60205260406000206111519086612f14565b96875486600185019182549a6111678883612ff7565b8155600181018c81549061117a91612ff7565b90554260028201556003016000905560405180835161119a818389612d40565b810160fc8152036020019020600201878154906111b691612ff7565b9055159b600361123860207fe247094e40ceb45679130e19d4d25d684ad00deb82ee6590c5e3c846646c932e9f9c60009b60059b6112919f998e9a988b996112a9575b505061122560026040518681865161121281838b612d40565b810160fc81520301902001918254613004565b9055604051938492839251928391612d40565b810160fc8152030190200161124d8154613273565b90556112598c33613a06565b818655555583600383015560ff198154169055015561128360405194608086526080860190612d63565b908482036020860152612d63565b93604083015260608201528033930390a2600160c955005b876112c3876112ea94604051809381928751928391612d40565b810160fc815203019020016112d88154613033565b9055338a5260ff865260408a20613198565b388f6111f9565b638022433360e01b60005260046000fd5b604051635784cd9b60e01b815260206004820152806104746024820185612d63565b634e487b7160e01b600052602160045260246000fd5b604051629e59d560e21b815260206004820152908190610474906024830190612d63565b60405163060b707f60e51b815260206004820152806104746024820185612d63565b604051630349622b60e31b815290819061047490869060048401612ec6565b50604051630349622b60e31b81529182916104749160048401612ec6565b346104955760e06114086102976113e96113d636612cfd565b6113e1949294612fc0565b503691612e8f565b6001600160a01b03909116600090815260fe6020526040902090612f14565b60066040519161141783612e1d565b8054835260018101546020840152600281015460408401526003810154606084015260ff60048201541615156080840152600581015460a0840152015460c08201526114a4604051809260c080918051845260208101516020850152604081015160408501526060810151606085015260808101511515608085015260a081015160a08501520151910152565bf35b3461049557600036600319011261049557602060405160008152f35b34610495576000366003190112610495576114db6134c4565b336000526101006020526040600020541561043e573360005261010160205260ff6040600020541661154e57336000526101016020526040600020600160ff19825416179055337f94a24a12ee2237e49085823ea498014eb282565d32725255191fa29e7aae301b600080a2600160c955005b6373a1b18760e01b60005260046000fd5b34610495576020366003190112610495576004356001600160401b0381116104955760ff60016115aa6115a561029761159e6020963690600401612cd0565b3691612e8f565b612eee565b0154166114a46040518092612d88565b34610495576000366003190112610495576115d36132fc565b60975460ff8116156116125760ff19166097557f5db9ee0a495bf2e6ff9c91a7834c1ba4fdd244a5e8aa4e537bd38aeae4b073aa6020604051338152a1005b60405162461bcd60e51b815260206004820152601460248201527314185d5cd8589b194e881b9bdd081c185d5cd95960621b6044820152606490fd5b3461049557604036600319011261049557611667612cba565b600435600052606560205260406000209060018060a01b0316600052602052602060ff604060002054166040519015158152f35b34610495576020366003190112610495576004356001600160401b038111610495576116df6115a56102976116d761173a943690600401612cd0565b6113e16132d7565b6003604051916116ee83612e38565b6040516116ff81610ee481856131dc565b835261171560ff600183015416602085016132ab565b6002810154604084015201546060820152604051918291602083526020830190612d95565b0390f35b346104955760003660031901126104955760fb546040516001600160a01b039091168152602090f35b60803660031901126104955761177b612ca4565b6024356001600160401b0381116104955761179a903690600401612cd0565b9160443591606435936117ab613411565b6117b36134c4565b6117c161027f368385612e8f565b15610478576117d4610297368385612e8f565b6117ec60405160208184516102b48183858901612d40565b1561044f575061180191610297913691612e8f565b9260018060a01b0382168060005260fe602052611822604060002086612f14565b946004860195865460ff811615610947578187925498838a10611a52576000928a611a38575b8715159a8b611998575b916119009391611885877f4f42c0af756b4e2949089b1b493aca69bfaa0be0f67f849195bbdd56a64bb821999795613004565b835560018301611896858254613004565b905560ff1916905542600582015560006006820155604051906002855192602081818901956118c6818389612d40565b810160fc815203019020016118dc878254613004565b90555415611958575b5085600052610100602052604060002061088f858254613004565b0390a260019361193b575b5082611920575b5050156108b757600160c955005b6000809350809281925af1611933612f90565b508180611912565b81935060008080939281935af1611950612f90565b50918361190b565b6119716020600392604051809381928951928391612d40565b810160fc815203019020016119868154613273565b90556119928389613a06565b8a6118e5565b909192939450873403611a1f5792611900928a9592611885877f4f42c0af756b4e2949089b1b493aca69bfaa0be0f67f849195bbdd56a64bb82199978b7fa22c130ab9525575739c5b8856b4345b50ef04582844399f49949042eb410f008e4260038a01558b611a0d60405192839283612f74565b0390a293959799505050919350611852565b87631efc11e560e11b6000523460045260245260446000fd5b9250611a4c8a610920866001860154613280565b92611848565b89846322df051360e11b60005260045260245260446000fd5b3461049557602036600319011261049557611a84612ca4565b611a8c6132fc565b6001600160a01b03168015611ab8576bffffffffffffffffffffffff60a01b60fb54161760fb55600080f35b6307c83fcf60e41b6000526000600452600160245260446000fd5b3461049557600036600319011261049557611aec6132fc565b610105805460ff19166001179055005b3461049557600036600319011261049557602060fd54604051908152f35b34610495576020366003190112610495576001600160a01b03611b3b612ca4565b166000526101006020526020604060002054604051908152f35b34610495576040366003190112610495576004356001600160401b03811161049557611b85903690600401612cd0565b9060243591600383101561049557611b9b6132fc565b611ba961027f368385612e8f565b1561047857611bbd91610297913691612e8f565b604051611bd8825191602081818601946102b4818388612d40565b611d015760405190611be982612e38565b8282526020820190611bfb85836132ab565b604083019160008352611c38611c266020606087019460008652604051809381928b51928391612d40565b810160fc8152030190209451856130ce565b5191600383101561132457611c5260039360018601613293565b5160028401555191015560fd54600160401b811015611ceb57806001611c7d920160fd5560fd613042565b919091611cd5577f01b043d7926a29446dc3d65941e5ef42247dc676bc6fcd937852d930ad52046b92611cb382611cc9946130ce565b6001604051938493604085526040850190612d63565b911460208301520390a1005b634e487b7160e01b600052600060045260246000fd5b634e487b7160e01b600052604160045260246000fd5b9082611d547f729eaecb9add68eb53c4b222f436486c28d0ba114dae1bad36df83f79253ebda946001611d446020611d6b97604051809381928a51928391612d40565b810160fc81520301902001613293565b611d76604051938493604085526040850190612d63565b916020840190612d88565b0390a1005b3461049557600036600319011261049557602060ff609754166040519015158152f35b3461049557604036600319011261049557611db7612ca4565b60243590611dc3613411565b611dcb6134c4565b6001600160a01b0381166000818152610101602052604090205460ff1615612066578215801561204e575b6120255780600052610101602052604060002060ff1981541690558060005260ff6020526040600020928354611e2b816131c5565b94611e396040519687612e53565b818652602086019060005260206000206000915b838310612000575050505060005b8451811015611f065780611e716001928761325f565b518460005260fe602052611e89604060002082612f14565b80549081611e9b575b50505001611e5b565b6003611ec5602060059460009660405191611225600283519486818187019761121281838b612d40565b810160fc81520301902001611eda8154613273565b905582815582600282015582858201558260038201556004810160ff1981541690550155868080611e92565b5092508060005260ff60205260406000208054906000815581611f8a575b505060008093819383839484526101006020528360408120557f684a52a0e971d0f5abbdd93bc699d8abec05d959da3301e591004d8401a85ecd6040611f748560018060a01b0360fb5416613819565b8151908682526020820152a25af16108aa612f90565b6000526020600020908101905b81811015611f2457600190611fac8154612f3a565b80611fb9575b5001611f97565b601f81118314611fcf5750600081555b86611fb2565b611fed908260005283601f6020600020920160051c82019101613070565b8060005260006020812081835555611fc9565b60016020819260405161201781610ee481896131dc565b815201920192019190611e4d565b9050600052610100602052604060002054906307c83fcf60e41b60005260045260245260446000fd5b50806000526101006020526040600020548311611df6565b63117ebd3160e21b60005260046000fd5b34610495576020366003190112610495576001600160a01b03612098612ca4565b1660005260ff60205260406000208054906120b2826131c5565b916120c06040519384612e53565b80835260208301809260005260206000206000915b83831061214357848660405191829160208301906020845251809152604083019060408160051b85010192916000905b82821061211457505050500390f35b919360019193955060206121338192603f198a82030186528851612d63565b9601920192018594939192612105565b60016020819260405161215a81610ee481896131dc565b8152019201920191906120d5565b6020366003190112610495576004356001600160401b03811161049557612193903690600401612cd0565b61219b6137d5565b6121a36134c4565b6121b161027f368385612e8f565b15610478576121c4610297368385612e8f565b6040516121df825191602081818601946102b4818388612d40565b1561135e5760016121ff602060ff93604051809381928851928391612d40565b810160fc81520301902001541660038110156113245760010361133a57503360005260fe602052604060002060206040518092848683378482019081520301902060028101548061240f575b5060050154610102549061225f8282612ff7565b421061041157505060ff600461227c6102db610297368688612e8f565b01541661040057610106548034106123f757503360005261010160205260ff6040600020541661154e576122b591610297913691612e8f565b3360005260fe6020527f2bad35bd346df31ec34e3b4c5ffd2ec582f2839da18cd5824ba8a48b40bf2f536103b16122f0604060002084612f14565b805490600382159161231761230f3460018060a01b0360fb5416613819565b943490612ff7565b815560018101612328858254612ff7565b905542600282015501814282556123ed575b50604051906002865192602081818a0195612356818389612d40565b810160fc8152030190200161236c348254612ff7565b90556123a0575b5033600052610100602052604060002061238e348254612ff7565b90556040519182913395349084613011565b6123b96020600392604051809381928a51928391612d40565b810160fc815203019020016123ce8154613033565b90553360005260ff6020526123e7846040600020613198565b84612373565b600090558561233a565b6307c83fcf60e41b6000523460045260245260446000fd5b610102549061241e8282612ff7565b4210610411575061224b565b3461049557604061246161029761244361097536612cfd565b6001600160a01b03909116600090815260fe60205283902090612f14565b600660ff600483015416910154825191151582526020820152f35b34610495576000366003190112610495576124956132fc565b610105805460ff19169055005b3461049557600036600319011261049557602061010654604051908152f35b34610495576040366003190112610495576124da612cba565b336001600160a01b038216036124f65761001b9060043561374f565b60405162461bcd60e51b815260206004820152602f60248201527f416363657373436f6e74726f6c3a2063616e206f6e6c792072656e6f756e636560448201526e103937b632b9903337b91039b2b63360891b6064820152608490fd5b346104955760403660031901126104955760043561256f612cba565b9061258b6109e582600052606560205260016040600020015490565b806000526065602052604060002060018060a01b03831660005260205260ff60406000205416156125b857005b60008181526065602090815260408083206001600160a01b0395909516808452949091528120805460ff19166001179055339291907f2f8788117e7eff1d82e926ec794901d17c78024a50270940304540a733656f0d9080a4005b34610495576020366003190112610495576004356001600160401b03811161049557612643903690600401612cd0565b61264b6134c4565b61265961027f368385612e8f565b156104785761266c610297368385612e8f565b61268460405160208184516102b48183858901612d40565b1561044f575061269b6102db610297368486612e8f565b80541561043e57600281015461010354916126b68383612ff7565b42106127ed57600501549081156127e657505b6126d38282612ff7565b421061041157505060ff60046126f06102db610297368688612e8f565b0154166104005760ff61010554166127d55761271191610297913691612e8f565b3360005260fe602052612728604060002082612f14565b8054600182015490801561043e573360005261010160205260ff6040600020541661154e578060068460047f8e5138d7e0f1348da73d35df3c7455c94100459fda4c4af5b31322c2c72169f99601600160ff198254161790554260058201550155604051602081527fc050fbdb05cfd3e20d6db3bc0238b5f13b18af81d8918f8165466c830d350b9f3391806127c16020820189612d63565b0390a26103b1604051928392339684613011565b6347d385a960e01b60005260046000fd5b90506126c9565b5061041b9042613004565b3461049557600036600319011261049557602061010354604051908152f35b34610495576128446102976113e961282e36612cfd565b600094929461283b612fc0565b50503691612e8f565b60405161285081612e1d565b8154815260018201546020820152600282015460408201908082526003840154906060840191825260ff60048601541692608085019315158452600660058701549660a08701978852015460c08601526128ae610102548093612ff7565b6128b9838851612ff7565b80821115612a515750915b8451612a08575061290d906101a096516128ed6128e5610103548093612ff7565b918351612ff7565b80821115612a0157505b935b519081156129f957505b6101045490612ff7565b928451159081806129ed575b15918291826129e3575b826129d7575b826129c8575b836129be575b50826129b2575b612987604051809860c080918051845260208101516020850152604081015160408501526060810151606085015260808101511515608085015260a081015160a08501520151910152565b151560e087015215156101008601521515610120850152610140840152610160830152610180820152f35b9150844210159161293c565b5115925088612935565b6101055460ff1615925061292f565b91508442101591612929565b8051159250612923565b91508242101591612919565b905051612903565b90506128f7565b9551906213c6808201809211612a3b57612a35612a2b6101a09861290d94612ff7565b6101035490612ff7565b936128f9565b634e487b7160e01b600052601160045260246000fd5b9050916128c4565b34610495576020366003190112610495576020612a86600435600052606560205260016040600020015490565b604051908152f35b606036600319011261049557612aa2612ca4565b6024356001600160401b03811161049557612ac1903690600401612cd0565b906044359182159283150361049557612ad8613411565b612ae06134c4565b612aee61027f368385612e8f565b1561047857612b01610297368385612e8f565b612b1960405160208184516102b48183858901612d40565b1561044f57503415611ab857612b3491610297913691612e8f565b60018060a01b038316918260005260fe602052612b55604060002083612f14565b9081541561043e5760ff6004830154169081612bc1575b506104005760009384937fa22c130ab9525575739c5b8856b4345b50ef04582844399f49949042eb410f00612bb286958695600342910155604051918291349083612f74565b0390a234905af16108aa612f90565b905085612b6c565b3461049557600036600319011261049557602061010254604051908152f35b3461049557602036600319011261049557612c016132fc565b60043561010255005b3461049557602036600319011261049557600435612c266132fc565b8015611ab85761010655005b346104955760203660031901126104955760043563ffffffff60e01b811680910361049557602090637965db0b60e01b8114908115612c77575b506040519015158152f35b6301ffc9a760e01b14905082612c6c565b3461049557600036600319011261049557602090610104548152f35b600435906001600160a01b038216820361049557565b602435906001600160a01b038216820361049557565b9181601f84011215610495578235916001600160401b038311610495576020838186019501011161049557565b906040600319830112610495576004356001600160a01b03811681036104955791602435906001600160401b03821161049557612d3c91600401612cd0565b9091565b60005b838110612d535750506000910152565b8181015183820152602001612d43565b90602091612d7c81518092818552858086019101612d40565b601f01601f1916010190565b9060038210156113245752565b90606080612dac8451608085526080850190612d63565b93612dbf60208201516020860190612d88565b60408101516040850152015191015290565b6040600319820112610495576004356001600160401b0381116104955781612dfb91600401612cd0565b92909291602435906001600160401b03821161049557612d3c91600401612cd0565b60e081019081106001600160401b03821117611ceb57604052565b608081019081106001600160401b03821117611ceb57604052565b90601f801991011681019081106001600160401b03821117611ceb57604052565b6001600160401b038111611ceb57601f01601f191660200190565b929192612e9b82612e74565b91612ea96040519384612e53565b829481845281830111610495578281602093846000960137010152565b90918060409360208452816020850152848401376000828201840152601f01601f1916010190565b6020612f07918160405193828580945193849201612d40565b810160fc81520301902090565b602090612f2e928260405194838680955193849201612d40565b82019081520301902090565b90600182811c92168015612f6a575b6020831014612f5457565b634e487b7160e01b600052602260045260246000fd5b91607f1691612f49565b929190612f8b602091604086526040860190612d63565b930152565b3d15612fbb573d90612fa182612e74565b91612faf6040519384612e53565b82523d6000602084013e565b606090565b60405190612fcd82612e1d565b600060c0838281528260208201528260408201528260608201528260808201528260a08201520152565b91908201809211612a3b57565b91908203918211612a3b57565b61302960409295949395606083526060830190612d63565b9460208201520152565b6000198114612a3b5760010190565b805482101561305a5760005260206000200190600090565b634e487b7160e01b600052603260045260246000fd5b81811061307b575050565b60008155600101613070565b9190601f811161309657505050565b6130c2926000526020600020906020601f840160051c830193106130c4575b601f0160051c0190613070565b565b90915081906130b5565b91909182516001600160401b038111611ceb576130f5816130ef8454612f3a565b84613087565b6020601f821160011461313657819061312793949560009261312b575b50508160011b916000199060031b1c19161790565b9055565b015190503880613112565b601f1982169083600052806000209160005b81811061318057509583600195969710613167575b505050811b019055565b015160001960f88460031b161c1916905538808061315d565b9192602060018192868b015181550194019201613148565b8054600160401b811015611ceb576131b591600182018155613042565b919091611cd5576130c2916130ce565b6001600160401b038111611ceb5760051b60200190565b600092918154916131ec83612f3a565b8083529260018116908115613242575060011461320857505050565b60009081526020812093945091925b838310613228575060209250010190565b600181602092949394548385870101520191019190613217565b915050602093945060ff929192191683830152151560051b010190565b805182101561305a5760209160051b010190565b8015612a3b576000190190565b81810292918115918404141715612a3b57565b9060038110156113245760ff80198354169116179055565b60038210156113245752565b81156132c1570490565b634e487b7160e01b600052601260045260246000fd5b604051906132e482612e38565b60006060838181528260208201528260408201520152565b3360009081527fcee91eb23e767f0f440dd9fce5554f355614443931e9ac5ce78c67b9e06e6f70602052604090205460ff161561333557565b61047461334133613c2d565b6133f1601161336f7f241ecf16d79d0f8dbfb92cbc07fe17840425976cf0667f022fe9877caa831b08613d45565b9260376040519485927f416363657373436f6e74726f6c3a206163636f756e742000000000000000000060208501526133b18151809260208688019101612d40565b83017001034b99036b4b9b9b4b733903937b6329607d1b838201526133e0825180936020604885019101612d40565b01010301601f198101835282612e53565b60405162461bcd60e51b8152602060048201529182916024830190612d63565b3360009081527fbdd154b7c599a43e8b8410b62e84571cd69a79e95c9fc5b630a687cb7c97edf9602052604090205460ff161561344a57565b61047461345633613c2d565b6133f1601161336f7f97667070c54ef182b0f5858b034beac1b6f3089aa2d3188bb1e8929f4fa9b929613d45565b600081815260656020908152604080832033845290915290205460ff16156134a95750565b610474906133f1601161336f6134be33613c2d565b93613d45565b600260c954146134d557600260c955565b60405162461bcd60e51b815260206004820152601f60248201527f5265656e7472616e637947756172643a207265656e7472616e742063616c6c006044820152606490fd5b90815181101561305a570160200190565b60ff60209116019060ff8211612a3b57565b8051801561367757602d8110908115613684575b5061367e57604051613564604082612e53565b600981526836bc3b30b637b832b960b91b602082015260098251106136775760005b815181101561366957613599818461351a565b516001600160f81b03198116906135b0838561351a565b516001600160f81b0319811691604160f81b8410158061365b575b613637575b50604160f81b82101580613629575b613608575b506001600160f81b031990811691160361360057600101613586565b505050600090565b6001600160f81b0319915061361f9060f81c61352b565b60f81b16386135e4565b50602d60f91b8211156135df565b9092506001600160f81b0319906136509060f81c61352b565b60f81b1691386135d0565b50602d60f91b8411156135cb565b505161367491613b80565b90565b5050600090565b50600090565b603c91501138613551565b90815161369b81612e74565b906136a96040519283612e53565b8082526136b8601f1991612e74565b0136602083013760005b835181101561374a57806136d86001928661351a565b516001600160f81b03198116604160f81b8110158061373c575b1561372757506001600160f81b03199061370e9060f81c61352b565b60f81b1660001a61371f828561351a565b535b016136c2565b905060001a613736828561351a565b53613721565b50602d60f91b8111156136f2565b509150565b806000526065602052604060002060018060a01b03831660005260205260ff6040600020541661377d575050565b60008181526065602090815260408083206001600160a01b0395909516808452949091528120805460ff19169055339291907ff6391f5c32d9c69d2a47ea670b442974b53935d1edc7fd64eb21e047a839171b9080a4565b60ff609754166137e157565b60405162461bcd60e51b815260206004820152601060248201526f14185d5cd8589b194e881c185d5cd95960821b6044820152606490fd5b81156136775760405163524f388960e01b8152602060048201819052600360248301526258464960e81b60448301529092916001600160a01b03169083606481845afa9283156138ee576000936138fa575b509060206004926040519384809263a28ff72d60e01b82525afa9182156138ee576000926138b7575b50821580156138af575b613600576136749261092091613280565b50811561389e565b90916020823d6020116138e6575b816138d260209383612e53565b810103126138e35750519038613894565b80fd5b3d91506138c5565b6040513d6000823e3d90fd5b90926020823d602011613927575b8161391560209383612e53565b810103126138e357505191602061386b565b3d9150613908565b919091828114613a01576139438354612f3a565b6001600160401b038111611ceb5761395f816130ef8454612f3a565b600093601f821160011461399c5761312792939482916000926139915750508160011b916000199060031b1c19161790565b015490503880613112565b845260208085208386529085209094601f198316815b8181106139e9575095836001959697106139d057505050811b019055565b015460001960f88460031b161c1916905538808061315d565b9192600180602092868b0154815501940192016139b2565b509050565b6001600160a01b0316600090815260ff60205260408120905b815480821015613b1a57610ee4613a46613a398486613042565b50604051928380926131dc565b602081519101208451602086012014613a625750600101613a1f565b919250906000198101908111612a3b57613a7f613a879184613042565b509183613042565b919091611cd557613a979161392f565b80548015613b04576000190190613aae8282613042565b611cd557613abc8154612f3a565b9081613ac757505055565b81601f60009311600114613ada57505555565b81835260208320613af691601f0160051c810190600101613070565b808252816020812091555555565b634e487b7160e01b600052603160045260246000fd5b50505050565b15613b2757565b60405162461bcd60e51b815260206004820152602b60248201527f496e697469616c697a61626c653a20636f6e7472616374206973206e6f74206960448201526a6e697469616c697a696e6760a81b6064820152608490fd5b906026613b8e828451613004565b108015613c19575b613677575b8151811015613c12576001600160f81b0319613bb7828461351a565b5116606160f81b81101580613c04575b600360fc1b8210159182613bf5575b50159081613bec575b5061367757600101613b9b565b90501538613bdf565b603960f81b1015915038613bd6565b50603d60f91b811115613bc7565b5050600190565b50603b613c27828451613004565b11613b96565b600090613c3a602a612e74565b91613c486040519384612e53565b602a8352613c56602a612e74565b6020840190601f1901368237835115613d315760309053825160011015610f7c576078602184015350602960005b60018211613cd9575050613c955790565b606460405162461bcd60e51b815260206004820152602060248201527f537472696e67733a20686578206c656e67746820696e73756666696369656e746044820152fd5b9091600f81166010811015613d1d57613d1791906f181899199a1a9b1b9c1cb0b131b232b360811b901a613d0d858761351a565b5360041c92613273565b90613c84565b634e487b7160e01b83526032600452602483fd5b634e487b7160e01b82526032600452602482fd5b600090613d526042612e74565b91613d606040519384612e53565b60428352613d6e6042612e74565b6020840190601f1901368237835115613d315760309053825160011015610f7c576078602184015350604160005b60018211613dad575050613c955790565b9091600f81166010811015613d1d57613de191906f181899199a1a9b1b9c1cb0b131b232b360811b901a613d0d858761351a565b90613d9c56fea26469706673582212200e3aa159e7a69506ca0d8ce6191aef29e16ca639ba8c543ec44d4eb7698f5da664736f6c634300081a0033",
        "nonce": "0x1d8",
        "chainId": "0x103c"
      },
      "additionalContracts": [],
      "isFixedGasLimit": false
    },
    {
      "hash": "0xd4c29ffcc1947581e7d266fc978548da507e1b8f4f5d4803b69b884a35477ce6",
      "transactionType": "CREATE",
      "contractName": "ProxyAdmin",
      "contractAddress": "0xED4f18f067a6091a0DeE5aFb6F94C90F0B9A53F9",
      "function": null,
      "arguments": null,
      "transaction": {
        "from": "0xee2e617a42Aab5be36c290982493C6CC6C072982",
        "gas": "0x831ff",
        "value": "0x0",
        "input": "0x60808060405234605a5760008054336001600160a01b0319821681178355916001600160a01b03909116907f8be0079c531659141344cd1fd0a4f28419497f9722a3daafe3b4186f6b6457e09080a361060f90816100608239f35b600080fdfe608080604052600436101561001357600080fd5b60009081803560e01c918263204e1c7a1461046d5750508063715018a6146104135780637eff275e146103825780638da5cb5b1461035b5780639623609d1461024957806399a88ec4146101b4578063f2fde38b146100ee5763f3b7dead1461007b57600080fd5b346100eb5760203660031901126100eb57808060046001600160a01b036100a06104ad565b6040516303e1469160e61b815291165afa6100b9610532565b90156100e75780516020916001600160a01b03916100de919081018401908401610562565b16604051908152f35b5080fd5b80fd5b50346100eb5760203660031901126100eb576101086104ad565b610110610581565b6001600160a01b031680156101605781546001600160a01b03198116821783556001600160a01b03167f8be0079c531659141344cd1fd0a4f28419497f9722a3daafe3b4186f6b6457e08380a380f35b60405162461bcd60e51b815260206004820152602660248201527f4f776e61626c653a206e6577206f776e657220697320746865207a65726f206160448201526564647265737360d01b6064820152608490fd5b50346100eb5760403660031901126100eb57806101cf6104ad565b6101d76104c8565b906101e0610581565b6001600160a01b031690813b1561024557604051631b2ce7f360e11b81526001600160a01b0390911660048201529082908290602490829084905af1801561023a576102295750f35b81610233916104de565b6100eb5780f35b6040513d84823e3d90fd5b5050fd5b5060603660031901126100eb5761025e6104ad565b906102676104c8565b6044359267ffffffffffffffff8411610353573660238501121561035357836004013561029381610516565b946102a160405196876104de565b81865236602483830101116103575781859260246020930183890137860101526102c9610581565b6001600160a01b0316803b15610353576040805163278f794360e11b81526001600160a01b0390931660048401526024830152835160448301819052835b81811061033d57848085818187816064818a86838284010152601f8019910116810103019134905af1801561023a576102295750f35b8060208092880101516064828701015201610307565b8280fd5b8480fd5b50346100eb57806003193601126100eb57546040516001600160a01b039091168152602090f35b50346100eb5760403660031901126100eb578061039d6104ad565b6103a56104c8565b906103ae610581565b6001600160a01b031690813b15610245576040516308f2839760e41b81526001600160a01b039091166004820152919081908390602490829084905af18015610406576103f85780f35b610401916104de565b388180f35b50604051903d90823e3d90fd5b50346100eb57806003193601126100eb5761042c610581565b80546001600160a01b03198116825581906001600160a01b03167f8be0079c531659141344cd1fd0a4f28419497f9722a3daafe3b4186f6b6457e08280a380f35b8190346104aa5760203660031901126104aa5781906004906001600160a01b036104956104ad565b635c60da1b60e01b8352165afa6100b9610532565b50fd5b600435906001600160a01b03821682036104c357565b600080fd5b602435906001600160a01b03821682036104c357565b90601f8019910116810190811067ffffffffffffffff82111761050057604052565b634e487b7160e01b600052604160045260246000fd5b67ffffffffffffffff811161050057601f01601f191660200190565b3d1561055d573d9061054382610516565b9161055160405193846104de565b82523d6000602084013e565b606090565b908160209103126104c357516001600160a01b03811681036104c35790565b6000546001600160a01b0316330361059557565b606460405162461bcd60e51b815260206004820152602060248201527f4f776e61626c653a2063616c6c6572206973206e6f7420746865206f776e65726044820152fdfea2646970667358221220742de87e4d8483b029ff0569e0c8acdfa5fd7d1a9c9ff4245c304b35f1394c5f64736f6c634300081a0033",
        "nonce": "0x1d9",
        "chainId": "0x103c"
      },
      "additionalContracts": [],
      "isFixedGasLimit": false
    },
    {
      "hash": "0xa650d3da32ab539ac1c27061af439b1af69603e042a1f41b27c05b04fd15736f",
      "transactionType": "CREATE",
      "contractName": "TransparentUpgradeableProxy",
      "contractAddress": "0x43961cA883FE3282E88dBbC8D50A2C53ec19CBD0",
      "function": null,
      "arguments": [
        "0xefe4cDF0A7Ceb2B12c43Fd8934cf2698D62a17f6",
        "0xED4f18f067a6091a0DeE5aFb6F94C90F0B9A53F9",
        "0xc4d66de8000000000000000000000000fd0fd568f70c42f87bc4c9ce99853839ffb02151000000000000000000000000ee2e617a42aab5be36c290982493c6cc6c072982"
      ],
      "transaction": {
        "from": "0xee2e617a42Aab5be36c290982493C6CC6C072982",
        "gas": "0xde087",
        "value": "0x0",
        "input": "0x6080604052610c7580380380610014816102ce565b92833981016060828203126102c95761002c82610309565b61003860208401610309565b604084015190936001600160401b0382116102c957019082601f830112156102c95781519161006e6100698461031d565b6102ce565b928084526020840194602082840101116102c95784602061008f9301610338565b803b1561026e577f360894a13ba1a3210667c828492db98dca3e2076cc3735a920a3ca505d382bbc80546001600160a01b0319166001600160a01b0383169081179091557fbc7cd75a20ee27fd9adebab32041f755214dbc6bffa90cc0225b39da2e5c2d3b600080a2815115801590610266575b6101e0575b5050600080516020610c5583398151915254604080516001600160a01b03808416825290941660208501819052939192507f7e644d79422f17c01e4894b5f4f588d331ebfa28653d42ae832dc59e38c9798f91a1811561018c576001600160a01b03191617600080516020610c5583398151915255604051610846908161040f8239f35b60405162461bcd60e51b815260206004820152602660248201527f455243313936373a206e65772061646d696e20697320746865207a65726f206160448201526564647265737360d01b6064820152608490fd5b600080610255946101f160606102ce565b94602786527f416464726573733a206c6f772d6c6576656c2064656c65676174652063616c6c6020870152660819985a5b195960ca1b60408701525190845af43d1561025e573d916102456100698461031d565b9283523d6000602085013e61035b565b50388080610108565b60609161035b565b506000610103565b60405162461bcd60e51b815260206004820152602d60248201527f455243313936373a206e657720696d706c656d656e746174696f6e206973206e60448201526c1bdd08184818dbdb9d1c9858dd609a1b6064820152608490fd5b600080fd5b6040519190601f01601f191682016001600160401b038111838210176102f357604052565b634e487b7160e01b600052604160045260246000fd5b51906001600160a01b03821682036102c957565b6001600160401b0381116102f357601f01601f191660200190565b60005b83811061034b5750506000910152565b818101518382015260200161033b565b919290156103bd575081511561036f575090565b3b156103785790565b60405162461bcd60e51b815260206004820152601d60248201527f416464726573733a2063616c6c20746f206e6f6e2d636f6e74726163740000006044820152606490fd5b8251909150156103d05750805190602001fd5b6044604051809262461bcd60e51b8252602060048301526104008151809281602486015260208686019101610338565b601f01601f19168101030190fdfe60806040523661013f576000805160206107d183398151915254610033906001600160a01b03165b6001600160a01b031690565b330361013a576000356001600160e01b031916631b2ce7f360e11b8103610065575061005d61045b565b602081519101f35b63278f794360e11b8103610081575061007c6103ca565b61005d565b6308f2839760e41b8103610098575061007c6102e4565b6303e1469160e61b81036100af575061007c61023e565b635c60da1b60e01b036100c45761007c610203565b60405162461bcd60e51b815260206004820152604260248201527f5472616e73706172656e745570677261646561626c6550726f78793a2061646d60448201527f696e2063616e6e6f742066616c6c6261636b20746f2070726f78792074617267606482015261195d60f21b608482015260a490fd5b61018b565b6000805160206107d183398151915254610161906001600160a01b0316610027565b330361018b576000356001600160e01b031916631b2ce7f360e11b8103610065575061005d61045b565b6000805160206107f18339815191525460009081906001600160a01b0316368280378136915af43d6000803e156101c1573d6000f35b3d6000fd5b634e487b7160e01b600052604160045260246000fd5b90601f8019910116810190811067ffffffffffffffff8211176101fe57604052565b6101c6565b61020b610581565b60018060a01b036000805160206107f183398151915254166040519060208201526020815261023b6040826101dc565b90565b610246610581565b60018060a01b036000805160206107d183398151915254166040519060208201526020815261023b6040826101dc565b600435906001600160a01b038216820361028c57565b600080fd5b602090600319011261028c576004356001600160a01b038116810361028c5790565b67ffffffffffffffff81116101fe57601f01601f191660200190565b604051906102de6020836101dc565b60008252565b6102ec610581565b3660041161028c576001600160a01b0361030536610291565b166000805160206107d1833981519152547f7e644d79422f17c01e4894b5f4f588d331ebfa28653d42ae832dc59e38c9798f6040805160018060a01b0384168152846020820152a18115610376576001600160a01b031916176000805160206107d18339815191525561023b6102cf565b60405162461bcd60e51b815260206004820152602660248201527f455243313936373a206e65772061646d696e20697320746865207a65726f206160448201526564647265737360d01b6064820152608490fd5b3660041161028c57604036600319011261028c576103e6610276565b6024359067ffffffffffffffff821161028c573660238301121561028c57816004013590610413826102b3565b9161042160405193846101dc565b808352366024828601011161028c576020816000926024610453970183870137840101526001600160a01b0316610588565b61023b6102cf565b610463610581565b3660041161028c576001600160a01b0361047c36610291565b166020906040519061048e83836101dc565b60008252803b15610526576000805160206107f183398151915280546001600160a01b03191682179055807fbc7cd75a20ee27fd9adebab32041f755214dbc6bffa90cc0225b39da2e5c2d3b600080a281511580159061051e575b610504575b50506104fd60405191826101dc565b6000815290565b61051691610510610664565b916106af565b5038806104ee565b5060006104e9565b60405162461bcd60e51b815260048101849052602d60248201527f455243313936373a206e657720696d706c656d656e746174696f6e206973206e60448201526c1bdd08184818dbdb9d1c9858dd609a1b6064820152608490fd5b3461028c57565b803b15610609576000805160206107f183398151915280546001600160a01b0319166001600160a01b0383169081179091557fbc7cd75a20ee27fd9adebab32041f755214dbc6bffa90cc0225b39da2e5c2d3b600080a2815115801590610601575b6105f2575050565b6105fe91610510610664565b50565b5060016105ea565b60405162461bcd60e51b815260206004820152602d60248201527f455243313936373a206e657720696d706c656d656e746174696f6e206973206e60448201526c1bdd08184818dbdb9d1c9858dd609a1b6064820152608490fd5b604051906106736060836101dc565b60278252660819985a5b195960ca1b6040837f416464726573733a206c6f772d6c6576656c2064656c65676174652063616c6c60208201520152565b60008061023b9493602081519101845af43d156106ee573d916106d1836102b3565b926106df60405194856101dc565b83523d6000602085013e610742565b606091610742565b156106fd57565b60405162461bcd60e51b815260206004820152601d60248201527f416464726573733a2063616c6c20746f206e6f6e2d636f6e74726163740000006044820152606490fd5b919290156107625750815115610756575090565b61023b903b15156106f6565b8251909150156107755750805190602001fd5b6040519062461bcd60e51b8252602060048301528181519182602483015260005b8381106107b85750508160006044809484010152601f80199101168101030190fd5b6020828201810151604487840101528593500161079656feb53127684a568b3173ae13b9f8a6016e243e63b6e8ee1178d6a717850b5d6103360894a13ba1a3210667c828492db98dca3e2076cc3735a920a3ca505d382bbca26469706673582212205aff0989c9aab561c84c1fa1aa4c2c3ecbeae1a51e046cba854732d636963eb964736f6c634300081a0033b53127684a568b3173ae13b9f8a6016e243e63b6e8ee1178d6a717850b5d6103000000000000000000000000efe4cdf0a7ceb2b12c43fd8934cf2698d62a17f6000000000000000000000000ed4f18f067a6091a0dee5afb6f94c90f0b9a53f900000000000000000000000000000000000000000000000000000000000000600000000000000000000000000000000000000000000000000000000000000044c4d66de8000000000000000000000000fd0fd568f70c42f87bc4c9ce99853839ffb02151000000000000000000000000ee2e617a42aab5be36c290982493c6cc6c07298200000000000000000000000000000000000000000000000000000000",
        "nonce": "0x1da",
        "chainId": "0x103c"
      },
      "additionalContracts": [],
      "isFixedGasLimit": false
    },
    {
      "hash": "0x60b435f857cd596276008b0c520db7703fa59f3ed5c2fff9ea248174de9e071d",
      "transactionType": "CREATE",
      "contractName": "TransparentUpgradeableProxy",
      "contractAddress": "0x32f652E9Ce04F94Db1fC185B0c53B8107A05693D",
      "function": null,
      "arguments": [
        "0x49bB1F3172B2cBFFaC0336147c13077857b6a8aF",
        "0xED4f18f067a6091a0DeE5aFb6F94C90F0B9A53F9",
        "0xc350a1b5000000000000000000000000ee2e617a42aab5be36c290982493c6cc6c0729820000000000000000000000000000000000000000000000000de0b6b3a764000000000000000000000000000043961ca883fe3282e88dbbc8d50a2c53ec19cbd0"
      ],
      "transaction": {
        "from": "0xee2e617a42Aab5be36c290982493C6CC6C072982",
        "gas": "0xfa6db",
        "value": "0x0",
        "input": "0x6080604052610c7580380380610014816102ce565b92833981016060828203126102c95761002c82610309565b61003860208401610309565b604084015190936001600160401b0382116102c957019082601f830112156102c95781519161006e6100698461031d565b6102ce565b928084526020840194602082840101116102c95784602061008f9301610338565b803b1561026e577f360894a13ba1a3210667c828492db98dca3e2076cc3735a920a3ca505d382bbc80546001600160a01b0319166001600160a01b0383169081179091557fbc7cd75a20ee27fd9adebab32041f755214dbc6bffa90cc0225b39da2e5c2d3b600080a2815115801590610266575b6101e0575b5050600080516020610c5583398151915254604080516001600160a01b03808416825290941660208501819052939192507f7e644d79422f17c01e4894b5f4f588d331ebfa28653d42ae832dc59e38c9798f91a1811561018c576001600160a01b03191617600080516020610c5583398151915255604051610846908161040f8239f35b60405162461bcd60e51b815260206004820152602660248201527f455243313936373a206e65772061646d696e20697320746865207a65726f206160448201526564647265737360d01b6064820152608490fd5b600080610255946101f160606102ce565b94602786527f416464726573733a206c6f772d6c6576656c2064656c65676174652063616c6c6020870152660819985a5b195960ca1b60408701525190845af43d1561025e573d916102456100698461031d565b9283523d6000602085013e61035b565b50388080610108565b60609161035b565b506000610103565b60405162461bcd60e51b815260206004820152602d60248201527f455243313936373a206e657720696d706c656d656e746174696f6e206973206e60448201526c1bdd08184818dbdb9d1c9858dd609a1b6064820152608490fd5b600080fd5b6040519190601f01601f191682016001600160401b038111838210176102f357604052565b634e487b7160e01b600052604160045260246000fd5b51906001600160a01b03821682036102c957565b6001600160401b0381116102f357601f01601f191660200190565b60005b83811061034b5750506000910152565b818101518382015260200161033b565b919290156103bd575081511561036f575090565b3b156103785790565b60405162461bcd60e51b815260206004820152601d60248201527f416464726573733a2063616c6c20746f206e6f6e2d636f6e74726163740000006044820152606490fd5b8251909150156103d05750805190602001fd5b6044604051809262461bcd60e51b8252602060048301526104008151809281602486015260208686019101610338565b601f01601f19168101030190fdfe60806040523661013f576000805160206107d183398151915254610033906001600160a01b03165b6001600160a01b031690565b330361013a576000356001600160e01b031916631b2ce7f360e11b8103610065575061005d61045b565b602081519101f35b63278f794360e11b8103610081575061007c6103ca565b61005d565b6308f2839760e41b8103610098575061007c6102e4565b6303e1469160e61b81036100af575061007c61023e565b635c60da1b60e01b036100c45761007c610203565b60405162461bcd60e51b815260206004820152604260248201527f5472616e73706172656e745570677261646561626c6550726f78793a2061646d60448201527f696e2063616e6e6f742066616c6c6261636b20746f2070726f78792074617267606482015261195d60f21b608482015260a490fd5b61018b565b6000805160206107d183398151915254610161906001600160a01b0316610027565b330361018b576000356001600160e01b031916631b2ce7f360e11b8103610065575061005d61045b565b6000805160206107f18339815191525460009081906001600160a01b0316368280378136915af43d6000803e156101c1573d6000f35b3d6000fd5b634e487b7160e01b600052604160045260246000fd5b90601f8019910116810190811067ffffffffffffffff8211176101fe57604052565b6101c6565b61020b610581565b60018060a01b036000805160206107f183398151915254166040519060208201526020815261023b6040826101dc565b90565b610246610581565b60018060a01b036000805160206107d183398151915254166040519060208201526020815261023b6040826101dc565b600435906001600160a01b038216820361028c57565b600080fd5b602090600319011261028c576004356001600160a01b038116810361028c5790565b67ffffffffffffffff81116101fe57601f01601f191660200190565b604051906102de6020836101dc565b60008252565b6102ec610581565b3660041161028c576001600160a01b0361030536610291565b166000805160206107d1833981519152547f7e644d79422f17c01e4894b5f4f588d331ebfa28653d42ae832dc59e38c9798f6040805160018060a01b0384168152846020820152a18115610376576001600160a01b031916176000805160206107d18339815191525561023b6102cf565b60405162461bcd60e51b815260206004820152602660248201527f455243313936373a206e65772061646d696e20697320746865207a65726f206160448201526564647265737360d01b6064820152608490fd5b3660041161028c57604036600319011261028c576103e6610276565b6024359067ffffffffffffffff821161028c573660238301121561028c57816004013590610413826102b3565b9161042160405193846101dc565b808352366024828601011161028c576020816000926024610453970183870137840101526001600160a01b0316610588565b61023b6102cf565b610463610581565b3660041161028c576001600160a01b0361047c36610291565b166020906040519061048e83836101dc565b60008252803b15610526576000805160206107f183398151915280546001600160a01b03191682179055807fbc7cd75a20ee27fd9adebab32041f755214dbc6bffa90cc0225b39da2e5c2d3b600080a281511580159061051e575b610504575b50506104fd60405191826101dc565b6000815290565b61051691610510610664565b916106af565b5038806104ee565b5060006104e9565b60405162461bcd60e51b815260048101849052602d60248201527f455243313936373a206e657720696d706c656d656e746174696f6e206973206e60448201526c1bdd08184818dbdb9d1c9858dd609a1b6064820152608490fd5b3461028c57565b803b15610609576000805160206107f183398151915280546001600160a01b0319166001600160a01b0383169081179091557fbc7cd75a20ee27fd9adebab32041f755214dbc6bffa90cc0225b39da2e5c2d3b600080a2815115801590610601575b6105f2575050565b6105fe91610510610664565b50565b5060016105ea565b60405162461bcd60e51b815260206004820152602d60248201527f455243313936373a206e657720696d706c656d656e746174696f6e206973206e60448201526c1bdd08184818dbdb9d1c9858dd609a1b6064820152608490fd5b604051906106736060836101dc565b60278252660819985a5b195960ca1b6040837f416464726573733a206c6f772d6c6576656c2064656c65676174652063616c6c60208201520152565b60008061023b9493602081519101845af43d156106ee573d916106d1836102b3565b926106df60405194856101dc565b83523d6000602085013e610742565b606091610742565b156106fd57565b60405162461bcd60e51b815260206004820152601d60248201527f416464726573733a2063616c6c20746f206e6f6e2d636f6e74726163740000006044820152606490fd5b919290156107625750815115610756575090565b61023b903b15156106f6565b8251909150156107755750805190602001fd5b6040519062461bcd60e51b8252602060048301528181519182602483015260005b8381106107b85750508160006044809484010152601f80199101168101030190fd5b6020828201810151604487840101528593500161079656feb53127684a568b3173ae13b9f8a6016e243e63b6e8ee1178d6a717850b5d6103360894a13ba1a3210667c828492db98dca3e2076cc3735a920a3ca505d382bbca26469706673582212205aff0989c9aab561c84c1fa1aa4c2c3ecbeae1a51e046cba854732d636963eb964736f6c634300081a0033b53127684a568b3173ae13b9f8a6016e243e63b6e8ee1178d6a717850b5d610300000000000000000000000049bb1f3172b2cbffac0336147c13077857b6a8af000000000000000000000000ed4f18f067a6091a0dee5afb6f94c90f0b9a53f900000000000000000000000000000000000000000000000000000000000000600000000000000000000000000000000000000000000000000000000000000064c350a1b5000000000000000000000000ee2e617a42aab5be36c290982493c6cc6c0729820000000000000000000000000000000000000000000000000de0b6b3a764000000000000000000000000000043961ca883fe3282e88dbbc8d50a2c53ec19cbd000000000000000000000000000000000000000000000000000000000",
        "nonce": "0x1db",
        "chainId": "0x103c"
      },
      "additionalContracts": [],
      "isFixedGasLimit": false
    },
    {
      "hash": "0xa07d80561a0a0f160d751e80a79b0d947daa36a60647720f3f364faa0ead0122",
      "transactionType": "CALL",
      "contractName": "TransparentUpgradeableProxy",
      "contractAddress": "0x32f652E9Ce04F94Db1fC185B0c53B8107A05693D",
      "function": null,
      "arguments": null,
      "transaction": {
        "from": "0xee2e617a42Aab5be36c290982493C6CC6C072982",
        "to": "0x32f652E9Ce04F94Db1fC185B0c53B8107A05693D",
        "gas": "0xcbfd",
        "value": "0x0",
        "input": "0x139b76bf000000000000000000000000000000000000000000000000000000000000001e",
        "nonce": "0x1dc",
        "chainId": "0x103c"
      },
      "additionalContracts": [],
      "isFixedGasLimit": false
    },
    {
      "hash": "0xfaa1ca4bc3b3ae6d4bade9d2c3c57320747b292b03d3a6cbaa9eaab08bb53253",
      "transactionType": "CALL",
      "contractName": "TransparentUpgradeableProxy",
      "contractAddress": "0x32f652E9Ce04F94Db1fC185B0c53B8107A05693D",
      "function": null,
      "arguments": null,
      "transaction": {
        "from": "0xee2e617a42Aab5be36c290982493C6CC6C072982",
        "to": "0x32f652E9Ce04F94Db1fC185B0c53B8107A05693D",
        "gas": "0xc4b0",
        "value": "0x0",
        "input": "0xd0898c18000000000000000000000000000000000000000000000000000000000000001e",
        "nonce": "0x1dd",
        "chainId": "0x103c"
      },
      "additionalContracts": [],
      "isFixedGasLimit": false
    },
    {
      "hash": "0x6eff6f8fef35c460b1bf22a64bbcea0a452b0aaa0491d1bbd41fab1a0bd8e090",
      "transactionType": "CALL",
      "contractName": "TransparentUpgradeableProxy",
      "contractAddress": "0x32f652E9Ce04F94Db1fC185B0c53B8107A05693D",
      "function": null,
      "arguments": null,
      "transaction": {
        "from": "0xee2e617a42Aab5be36c290982493C6CC6C072982",
        "to": "0x32f652E9Ce04F94Db1fC185B0c53B8107A05693D",
        "gas": "0xd104",
        "value": "0x0",
        "input": "0xf07fc224000000000000000000000000000000000000000000000000000000000000001e",
        "nonce": "0x1de",
        "chainId": "0x103c"
      },
      "additionalContracts": [],
      "isFixedGasLimit": false
    },
    {
      "hash": "0x0102974c1f954d959876b0567b9bc78b306fe14731bb0fe52f2742091e7ad730",
      "transactionType": "CALL",
      "contractName": "TransparentUpgradeableProxy",
      "contractAddress": "0x43961cA883FE3282E88dBbC8D50A2C53ec19CBD0",
      "function": null,
      "arguments": null,
      "transaction": {
        "from": "0xee2e617a42Aab5be36c290982493C6CC6C072982",
        "to": "0x43961cA883FE3282E88dBbC8D50A2C53ec19CBD0",
        "gas": "0xca70",
        "value": "0x0",
        "input": "0xe91b10fa00000000000000000000000000000000000000000000000000470de4df820000",
        "nonce": "0x1df",
        "chainId": "0x103c"
      },
      "additionalContracts": [],
      "isFixedGasLimit": false
    },
    {
      "hash": "0x7e3e6c7fac2366aedfba62598fe7ce288b58596bf0a6477319f7591c5970bec4",
      "transactionType": "CALL",
      "contractName": "TransparentUpgradeableProxy",
      "contractAddress": "0x32f652E9Ce04F94Db1fC185B0c53B8107A05693D",
      "function": null,
      "arguments": null,
      "transaction": {
        "from": "0xee2e617a42Aab5be36c290982493C6CC6C072982",
        "to": "0x32f652E9Ce04F94Db1fC185B0c53B8107A05693D",
        "gas": "0x13b0d",
        "value": "0x0",
        "input": "0x2f2ff15d241ecf16d79d0f8dbfb92cbc07fe17840425976cf0667f022fe9877caa831b080000000000000000000000002d2ba91b7c0ea2db570a5df61304b690fd1a3918",
        "nonce": "0x1e0",
        "chainId": "0x103c"
      },
      "additionalContracts": [],
      "isFixedGasLimit": false
    },
    {
      "hash": "0xd99ded16923a843b48e8ad2349992b4042768c95e1e917f5c69887c422679753",
      "transactionType": "CALL",
      "contractName": "TransparentUpgradeableProxy",
      "contractAddress": "0x32f652E9Ce04F94Db1fC185B0c53B8107A05693D",
      "function": null,
      "arguments": null,
      "transaction": {
        "from": "0xee2e617a42Aab5be36c290982493C6CC6C072982",
        "to": "0x32f652E9Ce04F94Db1fC185B0c53B8107A05693D",
        "gas": "0x13b0d",
        "value": "0x0",
        "input": "0x2f2ff15d241ecf16d79d0f8dbfb92cbc07fe17840425976cf0667f022fe9877caa831b080000000000000000000000001c89357af4f15b351f1ba8a478d944dfa3f45715",
        "nonce": "0x1e1",
        "chainId": "0x103c"
      },
      "additionalContracts": [],
      "isFixedGasLimit": false
    },
    {
      "hash": "0x2eff40245235801522ab27f843367f15919b78dfdd6579c61bca7cfc00b7e1ea",
      "transactionType": "CALL",
      "contractName": "TransparentUpgradeableProxy",
      "contractAddress": "0x32f652E9Ce04F94Db1fC185B0c53B8107A05693D",
      "function": null,
      "arguments": null,
      "transaction": {
        "from": "0xee2e617a42Aab5be36c290982493C6CC6C072982",
        "to": "0x32f652E9Ce04F94Db1fC185B0c53B8107A05693D",
        "gas": "0x13b0d",
        "value": "0x0",
        "input": "0x2f2ff15d241ecf16d79d0f8dbfb92cbc07fe17840425976cf0667f022fe9877caa831b080000000000000000000000006ff2da7eb2df14db66f3f25a0ace6a28e5f15cd9",
        "nonce": "0x1e2",
        "chainId": "0x103c"
      },
      "additionalContracts": [],
      "isFixedGasLimit": false
    },
    {
      "hash": "0xf168a4a9712627e0cfffc872cdc5fbec7b6fe0ec863489239f849e3aa78465cb",
      "transactionType": "CALL",
      "contractName": "TransparentUpgradeableProxy",
      "contractAddress": "0x32f652E9Ce04F94Db1fC185B0c53B8107A05693D",
      "function": null,
      "arguments": null,
      "transaction": {
        "from": "0xee2e617a42Aab5be36c290982493C6CC6C072982",
        "to": "0x32f652E9Ce04F94Db1fC185B0c53B8107A05693D",
        "gas": "0x13b0d",
        "value": "0x0",
        "input": "0x2f2ff15d97667070c54ef182b0f5858b034beac1b6f3089aa2d3188bb1e8929f4fa9b9290000000000000000000000002d2ba91b7c0ea2db570a5df61304b690fd1a3918",
        "nonce": "0x1e3",
        "chainId": "0x103c"
      },
      "additionalContracts": [],
      "isFixedGasLimit": false
    },
    {
      "hash": "0xa8c4ae7b789ad8dc952ae4c78824a80df9c23144a1490843a7d9fcf023478873",
      "transactionType": "CALL",
      "contractName": "TransparentUpgradeableProxy",
      "contractAddress": "0x32f652E9Ce04F94Db1fC185B0c53B8107A05693D",
      "function": null,
      "arguments": null,
      "transaction": {
        "from": "0xee2e617a42Aab5be36c290982493C6CC6C072982",
        "to": "0x32f652E9Ce04F94Db1fC185B0c53B8107A05693D",
        "gas": "0x13b0d",
        "value": "0x0",
        "input": "0x2f2ff15d97667070c54ef182b0f5858b034beac1b6f3089aa2d3188bb1e8929f4fa9b9290000000000000000000000001c89357af4f15b351f1ba8a478d944dfa3f45715",
        "nonce": "0x1e4",
        "chainId": "0x103c"
      },
      "additionalContracts": [],
      "isFixedGasLimit": false
    },
    {
      "hash": "0xf40cb03919e1a5f9b55521309e3e61e673c355b3ba88813bab21db7639263040",
      "transactionType": "CALL",
      "contractName": "TransparentUpgradeableProxy",
      "contractAddress": "0x32f652E9Ce04F94Db1fC185B0c53B8107A05693D",
      "function": null,
      "arguments": null,
      "transaction": {
        "from": "0xee2e617a42Aab5be36c290982493C6CC6C072982",
        "to": "0x32f652E9Ce04F94Db1fC185B0c53B8107A05693D",
        "gas": "0x13b0d",
        "value": "0x0",
        "input": "0x2f2ff15d97667070c54ef182b0f5858b034beac1b6f3089aa2d3188bb1e8929f4fa9b9290000000000000000000000006ff2da7eb2df14db66f3f25a0ace6a28e5f15cd9",
        "nonce": "0x1e5",
        "chainId": "0x103c"
      },
      "additionalContracts": [],
      "isFixedGasLimit": false
    },
    {
      "hash": "0x3008b0981f5b00dfacf2297a1e29b20a9b03f49d2a5d53ad8ad9f85f8c033eaf",
      "transactionType": "CALL",
      "contractName": "TransparentUpgradeableProxy",
      "contractAddress": "0x32f652E9Ce04F94Db1fC185B0c53B8107A05693D",
      "function": null,
      "arguments": null,
      "transaction": {
        "from": "0xee2e617a42Aab5be36c290982493C6CC6C072982",
        "to": "0x32f652E9Ce04F94Db1fC185B0c53B8107A05693D",
        "gas": "0x138fa",
        "value": "0x0",
        "input": "0x2f2ff15d00000000000000000000000000000000000000000000000000000000000000000000000000000000000000002d2ba91b7c0ea2db570a5df61304b690fd1a3918",
        "nonce": "0x1e6",
        "chainId": "0x103c"
      },
      "additionalContracts": [],
      "isFixedGasLimit": false
    },
    {
      "hash": "0xc43e0b705733826294f48146163e01ae626de56a8c8153f545cd34f771511211",
      "transactionType": "CALL",
      "contractName": "TransparentUpgradeableProxy",
      "contractAddress": "0x32f652E9Ce04F94Db1fC185B0c53B8107A05693D",
      "function": null,
      "arguments": null,
      "transaction": {
        "from": "0xee2e617a42Aab5be36c290982493C6CC6C072982",
        "to": "0x32f652E9Ce04F94Db1fC185B0c53B8107A05693D",
        "gas": "0x138fa",
        "value": "0x0",
        "input": "0x2f2ff15d00000000000000000000000000000000000000000000000000000000000000000000000000000000000000001c89357af4f15b351f1ba8a478d944dfa3f45715",
        "nonce": "0x1e7",
        "chainId": "0x103c"
      },
      "additionalContracts": [],
      "isFixedGasLimit": false
    },
    {
      "hash": "0x20f4ae4630f4936f67785daa0e3bce62e2b9ee2d14e8e4b66c5283767d14211a",
      "transactionType": "CALL",
      "contractName": "TransparentUpgradeableProxy",
      "contractAddress": "0x32f652E9Ce04F94Db1fC185B0c53B8107A05693D",
      "function": null,
      "arguments": null,
      "transaction": {
        "from": "0xee2e617a42Aab5be36c290982493C6CC6C072982",
        "to": "0x32f652E9Ce04F94Db1fC185B0c53B8107A05693D",
        "gas": "0x138fa",
        "value": "0x0",
        "input": "0x2f2ff15d00000000000000000000000000000000000000000000000000000000000000000000000000000000000000006ff2da7eb2df14db66f3f25a0ace6a28e5f15cd9",
        "nonce": "0x1e8",
        "chainId": "0x103c"
      },
      "additionalContracts": [],
      "isFixedGasLimit": false
    },
    {
      "hash": "0xd65ed219d85a0a8c8f6a85ecca59bdbf6496468e3de5a45e6998c3a5aaf43aac",
      "transactionType": "CALL",
      "contractName": "TransparentUpgradeableProxy",
      "contractAddress": "0x43961cA883FE3282E88dBbC8D50A2C53ec19CBD0",
      "function": null,
      "arguments": null,
      "transaction": {
        "from": "0xee2e617a42Aab5be36c290982493C6CC6C072982",
        "to": "0x43961cA883FE3282E88dBbC8D50A2C53ec19CBD0",
        "gas": "0x13844",
        "value": "0x0",
        "input": "0x2f2ff15d00000000000000000000000000000000000000000000000000000000000000000000000000000000000000002d2ba91b7c0ea2db570a5df61304b690fd1a3918",
        "nonce": "0x1e9",
        "chainId": "0x103c"
      },
      "additionalContracts": [],
      "isFixedGasLimit": false
    },
    {
      "hash": "0x26b08a27c8973cd9b3b102db0543129e89b0436b798266e3a1b36b5d0ebe4a5a",
      "transactionType": "CALL",
      "contractName": "TransparentUpgradeableProxy",
      "contractAddress": "0x43961cA883FE3282E88dBbC8D50A2C53ec19CBD0",
      "function": null,
      "arguments": null,
      "transaction": {
        "from": "0xee2e617a42Aab5be36c290982493C6CC6C072982",
        "to": "0x43961cA883FE3282E88dBbC8D50A2C53ec19CBD0",
        "gas": "0x13844",
        "value": "0x0",
        "input": "0x2f2ff15d00000000000000000000000000000000000000000000000000000000000000000000000000000000000000001c89357af4f15b351f1ba8a478d944dfa3f45715",
        "nonce": "0x1ea",
        "chainId": "0x103c"
      },
      "additionalContracts": [],
      "isFixedGasLimit": false
    },
    {
      "hash": "0xa4e69355beae62f3acf68ea917d15e243b0b69f52003337cc73786b725f744ec",
      "transactionType": "CALL",
      "contractName": "TransparentUpgradeableProxy",
      "contractAddress": "0x43961cA883FE3282E88dBbC8D50A2C53ec19CBD0",
      "function": null,
      "arguments": null,
      "transaction": {
        "from": "0xee2e617a42Aab5be36c290982493C6CC6C072982",
        "to": "0x43961cA883FE3282E88dBbC8D50A2C53ec19CBD0",
        "gas": "0x13844",
        "value": "0x0",
        "input": "0x2f2ff15d00000000000000000000000000000000000000000000000000000000000000000000000000000000000000006ff2da7eb2df14db66f3f25a0ace6a28e5f15cd9",
        "nonce": "0x1eb",
        "chainId": "0x103c"
      },
      "additionalContracts": [],
      "isFixedGasLimit": false
    },
    {
      "hash": "0x5aca76db1444a084ca8996aa93b69d624895b465b95eb404d311f434a95d3de3",
      "transactionType": "CALL",
      "contractName": "TransparentUpgradeableProxy",
      "contractAddress": "0x43961cA883FE3282E88dBbC8D50A2C53ec19CBD0",
      "function": null,
      "arguments": null,
      "transaction": {
        "from": "0xee2e617a42Aab5be36c290982493C6CC6C072982",
        "to": "0x43961cA883FE3282E88dBbC8D50A2C53ec19CBD0",
        "gas": "0x13a57",
        "value": "0x0",
        "input": "0x2f2ff15d9792fdc19ab98adfa72ab2fa98d342618c661e01c406979c105b31eda87f5e6f0000000000000000000000002d2ba91b7c0ea2db570a5df61304b690fd1a3918",
        "nonce": "0x1ec",
        "chainId": "0x103c"
      },
      "additionalContracts": [],
      "isFixedGasLimit": false
    },
    {
      "hash": "0x48333e2d8ec700cd8536293215edb24b2c610652426dd6bc7e8e8ecb7d1a69c1",
      "transactionType": "CALL",
      "contractName": "TransparentUpgradeableProxy",
      "contractAddress": "0x43961cA883FE3282E88dBbC8D50A2C53ec19CBD0",
      "function": null,
      "arguments": null,
      "transaction": {
        "from": "0xee2e617a42Aab5be36c290982493C6CC6C072982",
        "to": "0x43961cA883FE3282E88dBbC8D50A2C53ec19CBD0",
        "gas": "0x13a57",
        "value": "0x0",
        "input": "0x2f2ff15d9792fdc19ab98adfa72ab2fa98d342618c661e01c406979c105b31eda87f5e6f0000000000000000000000001c89357af4f15b351f1ba8a478d944dfa3f45715",
        "nonce": "0x1ed",
        "chainId": "0x103c"
      },
      "additionalContracts": [],
      "isFixedGasLimit": false
    },
    {
      "hash": "0x579602fc4c4fae57d4cee062bbd7934fbc9528586b9001fa2d4a0eaf2139edb6",
      "transactionType": "CALL",
      "contractName": "TransparentUpgradeableProxy",
      "contractAddress": "0x43961cA883FE3282E88dBbC8D50A2C53ec19CBD0",
      "function": null,
      "arguments": null,
      "transaction": {
        "from": "0xee2e617a42Aab5be36c290982493C6CC6C072982",
        "to": "0x43961cA883FE3282E88dBbC8D50A2C53ec19CBD0",
        "gas": "0x13a57",
        "value": "0x0",
        "input": "0x2f2ff15d9792fdc19ab98adfa72ab2fa98d342618c661e01c406979c105b31eda87f5e6f0000000000000000000000006ff2da7eb2df14db66f3f25a0ace6a28e5f15cd9",
        "nonce": "0x1ee",
        "chainId": "0x103c"
      },
      "additionalContracts": [],
      "isFixedGasLimit": false
    },
    {
      "hash": "0xd94c68bfcaf708c92fb4266ad9fc8a3f516c432b922adeca70130b586c90d26c",
      "transactionType": "CALL",
      "contractName": "TransparentUpgradeableProxy",
      "contractAddress": "0x32f652E9Ce04F94Db1fC185B0c53B8107A05693D",
      "function": null,
      "arguments": null,
      "transaction": {
        "from": "0xee2e617a42Aab5be36c290982493C6CC6C072982",
        "to": "0x32f652E9Ce04F94Db1fC185B0c53B8107A05693D",
        "gas": "0xc143",
        "value": "0x0",
        "input": "0x2f2ff15d00000000000000000000000000000000000000000000000000000000000000000000000000000000000000002d2ba91b7c0ea2db570a5df61304b690fd1a3918",
        "nonce": "0x1ef",
        "chainId": "0x103c"
      },
      "additionalContracts": [],
      "isFixedGasLimit": false
    },
    {
      "hash": "0xa2c9a3fd3ee98757007b54b0dc2f72c2ae88d7d52d395e7e5f0de350c19012d4",
      "transactionType": "CALL",
      "contractName": "TransparentUpgradeableProxy",
      "contractAddress": "0x32f652E9Ce04F94Db1fC185B0c53B8107A05693D",
      "function": null,
      "arguments": null,
      "transaction": {
        "from": "0xee2e617a42Aab5be36c290982493C6CC6C072982",
        "to": "0x32f652E9Ce04F94Db1fC185B0c53B8107A05693D",
        "gas": "0xc143",
        "value": "0x0",
        "input": "0x2f2ff15d00000000000000000000000000000000000000000000000000000000000000000000000000000000000000001c89357af4f15b351f1ba8a478d944dfa3f45715",
        "nonce": "0x1f0",
        "chainId": "0x103c"
      },
      "additionalContracts": [],
      "isFixedGasLimit": false
    },
    {
      "hash": "0xc0446f166926bbf5f225bba3788ddc916f04864ee45c2f2cc97bf086ad2e9858",
      "transactionType": "CALL",
      "contractName": "TransparentUpgradeableProxy",
      "contractAddress": "0x32f652E9Ce04F94Db1fC185B0c53B8107A05693D",
      "function": null,
      "arguments": null,
      "transaction": {
        "from": "0xee2e617a42Aab5be36c290982493C6CC6C072982",
        "to": "0x32f652E9Ce04F94Db1fC185B0c53B8107A05693D",
        "gas": "0xc143",
        "value": "0x0",
        "input": "0x2f2ff15d00000000000000000000000000000000000000000000000000000000000000000000000000000000000000006ff2da7eb2df14db66f3f25a0ace6a28e5f15cd9",
        "nonce": "0x1f1",
        "chainId": "0x103c"
      },
      "additionalContracts": [],
      "isFixedGasLimit": false
    },
    {
      "hash": "0xdc6428ef42435b5e953261deabec1de5cd56aa800b2a7b01d2c2e710148c821d",
      "transactionType": "CALL",
      "contractName": "TransparentUpgradeableProxy",
      "contractAddress": "0x32f652E9Ce04F94Db1fC185B0c53B8107A05693D",
      "function": null,
      "arguments": null,
      "transaction": {
        "from": "0xee2e617a42Aab5be36c290982493C6CC6C072982",
        "to": "0x32f652E9Ce04F94Db1fC185B0c53B8107A05693D",
        "gas": "0x55387",
        "value": "0x0",
        "input": "0x6a43a7010000000000000000000000000000000000000000000000000000000000000040000000000000000000000000000000000000000000000000000000000000000100000000000000000000000000000000000000000000000000000000000000306d7876616c6f70657231677a61357939346b616c323565617773656e6c35367468386b6479756a737a6d63737863677300000000000000000000000000000000",
        "nonce": "0x1f2",
        "chainId": "0x103c"
      },
      "additionalContracts": [],
      "isFixedGasLimit": false
    },
    {
      "hash": "0x7814f6e4c12bf7b7c5cf0b04e2a5ffac6213500ec683f39982c61f4f24582ff7",
      "transactionType": "CALL",
      "contractName": "TransparentUpgradeableProxy",
      "contractAddress": "0x32f652E9Ce04F94Db1fC185B0c53B8107A05693D",
      "function": null,
      "arguments": null,
      "transaction": {
        "from": "0xee2e617a42Aab5be36c290982493C6CC6C072982",
        "to": "0x32f652E9Ce04F94Db1fC185B0c53B8107A05693D",
        "gas": "0x54249",
        "value": "0x0",
        "input": "0x6a43a7010000000000000000000000000000000000000000000000000000000000000040000000000000000000000000000000000000000000000000000000000000000100000000000000000000000000000000000000000000000000000000000000306d7876616c6f706572316a70306d37796e777476726b6e7a6c6d647a6172676d6435396d68386e39676b68397966776d00000000000000000000000000000000",
        "nonce": "0x1f3",
        "chainId": "0x103c"
      },
      "additionalContracts": [],
      "isFixedGasLimit": false
    },
    {
      "hash": "0x72b9794d1aacced0eb387272366cdf25f119a31b3f9dcc1d3113bdb5a73fafa2",
      "transactionType": "CALL",
      "contractName": "TransparentUpgradeableProxy",
      "contractAddress": "0x32f652E9Ce04F94Db1fC185B0c53B8107A05693D",
      "function": null,
      "arguments": null,
      "transaction": {
        "from": "0xee2e617a42Aab5be36c290982493C6CC6C072982",
        "to": "0x32f652E9Ce04F94Db1fC185B0c53B8107A05693D",
        "gas": "0x4f744",
        "value": "0x0",
        "input": "0x6a43a7010000000000000000000000000000000000000000000000000000000000000040000000000000000000000000000000000000000000000000000000000000000100000000000000000000000000000000000000000000000000000000000000306d7876616c6f7065723172667a613871666b7477793436756a72756e64747835733574683664713876666e777363703300000000000000000000000000000000",
        "nonce": "0x1f4",
        "chainId": "0x103c"
      },
      "additionalContracts": [],
      "isFixedGasLimit": false
    },
    {
      "hash": "0x6f2a10339bf792f9e0f850e0307cbc0433a821bfc24dec8fcd0ae72fb7d4b0bd",
      "transactionType": "CALL",
      "contractName": "TransparentUpgradeableProxy",
      "contractAddress": "0x32f652E9Ce04F94Db1fC185B0c53B8107A05693D",
      "function": null,
      "arguments": null,
      "transaction": {
        "from": "0xee2e617a42Aab5be36c290982493C6CC6C072982",
        "to": "0x32f652E9Ce04F94Db1fC185B0c53B8107A05693D",
        "gas": "0x4f621",
        "value": "0x0",
        "input": "0x6a43a7010000000000000000000000000000000000000000000000000000000000000040000000000000000000000000000000000000000000000000000000000000000100000000000000000000000000000000000000000000000000000000000000306d7876616c6f7065723132773032337233766a6a6d686b386e7373397535396e7032326d6a736a38796b77726c78733700000000000000000000000000000000",
        "nonce": "0x1f5",
        "chainId": "0x103c"
      },
      "additionalContracts": [],
      "isFixedGasLimit": false
    },
    {
      "hash": "0xebe89e99eac76671490ac380406e84d7626f047cb9bed1f95a1b4e72e39c7cb0",
      "transactionType": "CALL",
      "contractName": "TransparentUpgradeableProxy",
      "contractAddress": "0x32f652E9Ce04F94Db1fC185B0c53B8107A05693D",
      "function": null,
      "arguments": null,
      "transaction": {
        "from": "0xee2e617a42Aab5be36c290982493C6CC6C072982",
        "to": "0x32f652E9Ce04F94Db1fC185B0c53B8107A05693D",
        "gas": "0x4f6cf",
        "value": "0x0",
        "input": "0x6a43a7010000000000000000000000000000000000000000000000000000000000000040000000000000000000000000000000000000000000000000000000000000000100000000000000000000000000000000000000000000000000000000000000306d7876616c6f706572317a677278396a6a7172667965387377796c636d727871336b393265396a3837327339616d717500000000000000000000000000000000",
        "nonce": "0x1f6",
        "chainId": "0x103c"
      },
      "additionalContracts": [],
      "isFixedGasLimit": false
    },
    {
      "hash": "0xba7fdb5874b6f1d54a23c362f1f30b7ad1df49007ea8323fcf70c166f271f2c3",
      "transactionType": "CALL",
      "contractName": "TransparentUpgradeableProxy",
      "contractAddress": "0x32f652E9Ce04F94Db1fC185B0c53B8107A05693D",
      "function": null,
      "arguments": null,
      "transaction": {
        "from": "0xee2e617a42Aab5be36c290982493C6CC6C072982",
        "to": "0x32f652E9Ce04F94Db1fC185B0c53B8107A05693D",
        "gas": "0x4f621",
        "value": "0x0",
        "input": "0x6a43a7010000000000000000000000000000000000000000000000000000000000000040000000000000000000000000000000000000000000000000000000000000000100000000000000000000000000000000000000000000000000000000000000306d7876616c6f706572316b6a72356768307733687278773972376534706a7736767a356b797775706d37397435386e3400000000000000000000000000000000",
        "nonce": "0x1f7",
        "chainId": "0x103c"
      },
      "additionalContracts": [],
      "isFixedGasLimit": false
    },
    {
      "hash": "0x8d24eba9d1b6ee8bb2774f1135b111e45dfad374d4cd48f2e2c561883d73ad46",
      "transactionType": "CALL",
      "contractName": "TransparentUpgradeableProxy",
      "contractAddress": "0x32f652E9Ce04F94Db1fC185B0c53B8107A05693D",
      "function": null,
      "arguments": null,
      "transaction": {
        "from": "0xee2e617a42Aab5be36c290982493C6CC6C072982",
        "to": "0x32f652E9Ce04F94Db1fC185B0c53B8107A05693D",
        "gas": "0x4f6cf",
        "value": "0x0",
        "input": "0x6a43a7010000000000000000000000000000000000000000000000000000000000000040000000000000000000000000000000000000000000000000000000000000000100000000000000000000000000000000000000000000000000000000000000306d7876616c6f706572316c7468737774646c33647a6b707071336565336b6e346a6d36646b786470373974387871363300000000000000000000000000000000",
        "nonce": "0x1f8",
        "chainId": "0x103c"
      },
      "additionalContracts": [],
      "isFixedGasLimit": false
    },
    {
      "hash": "0x6b158e4ae58dc7ae1596eabeb0c594f04143f79a8129db6c74aca7e161b7dafd",
      "transactionType": "CALL",
      "contractName": "TransparentUpgradeableProxy",
      "contractAddress": "0x32f652E9Ce04F94Db1fC185B0c53B8107A05693D",
      "function": null,
      "arguments": null,
      "transaction": {
        "from": "0xee2e617a42Aab5be36c290982493C6CC6C072982",
        "to": "0x32f652E9Ce04F94Db1fC185B0c53B8107A05693D",
        "gas": "0x4f621",
        "value": "0x0",
        "input": "0x6a43a7010000000000000000000000000000000000000000000000000000000000000040000000000000000000000000000000000000000000000000000000000000000100000000000000000000000000000000000000000000000000000000000000306d7876616c6f7065723177306d34386a367a656a6c3635707772743864386638386a64736a66706e653467377172356a00000000000000000000000000000000",
        "nonce": "0x1f9",
        "chainId": "0x103c"
      },
      "additionalContracts": [],
      "isFixedGasLimit": false
    },
    {
      "hash": "0xba6e4f55e0e263b5f7c65ab975e14f01f75c813de316795b8766dcce23df8cf9",
      "transactionType": "CALL",
      "contractName": "TransparentUpgradeableProxy",
      "contractAddress": "0x32f652E9Ce04F94Db1fC185B0c53B8107A05693D",
      "function": null,
      "arguments": null,
      "transaction": {
        "from": "0xee2e617a42Aab5be36c290982493C6CC6C072982",
        "to": "0x32f652E9Ce04F94Db1fC185B0c53B8107A05693D",
        "gas": "0x4f574",
        "value": "0x0",
        "input": "0x6a43a7010000000000000000000000000000000000000000000000000000000000000040000000000000000000000000000000000000000000000000000000000000000100000000000000000000000000000000000000000000000000000000000000306d7876616c6f70657231716a343532667235633872353964747635756c6c6b653737366530377835706b36756d6c683400000000000000000000000000000000",
        "nonce": "0x1fa",
        "chainId": "0x103c"
      },
      "additionalContracts": [],
      "isFixedGasLimit": false
    },
    {
      "hash": "0x5c291ec79d9e6419036908f19fdda57f63e6de3ad2d5b0780d9795c10ae3ea65",
      "transactionType": "CALL",
      "contractName": "TransparentUpgradeableProxy",
      "contractAddress": "0x32f652E9Ce04F94Db1fC185B0c53B8107A05693D",
      "function": null,
      "arguments": null,
      "transaction": {
        "from": "0xee2e617a42Aab5be36c290982493C6CC6C072982",
        "to": "0x32f652E9Ce04F94Db1fC185B0c53B8107A05693D",
        "gas": "0x54249",
        "value": "0x0",
        "input": "0x6a43a7010000000000000000000000000000000000000000000000000000000000000040000000000000000000000000000000000000000000000000000000000000000100000000000000000000000000000000000000000000000000000000000000306d7876616c6f706572317773676d336a6c67637871377666746c647a3768666d7766677139386872756a39796a67723500000000000000000000000000000000",
        "nonce": "0x1fb",
        "chainId": "0x103c"
      },
      "additionalContracts": [],
      "isFixedGasLimit": false
    }
  ],
  "receipts": [
    {
      "status": "0x1",
      "cumulativeGasUsed": "0x2c370",
      "logs": [],
      "logsBloom": "0x00000000000000000000000000000000000000000000000000000000000000000000000000000000000000000000000000000000000000000000000000000000000000000000000000000000000000000000000000000000000000000000000000000000000000000000000000000000000000000000000000000000000000000000000000000000000000000000000000000000000000000000000000000000000000000000000000000000000000000000000000000000000000000000000000000000000000000000000000000000000000000000000000000000000000000000000000000000000000000000000000000000000000000000000000000000",
      "type": "0x2",
      "transactionHash": "0x8847b19e52a689fb135ea317c4e4848449e5031bdf29b46ef4fbb7b1dcaa08aa",
      "transactionIndex": "0x0",
      "blockHash": "0xcb71660721da2bbd4684c65479d593bb1ceb69f1de9966ec9c76e8c405b2ca80",
      "blockNumber": "0x8f37ce",
      "gasUsed": "0x2c370",
      "effectiveGasPrice": "0x746a528801",
      "from": "0xee2e617a42Aab5be36c290982493C6CC6C072982",
      "to": null,
      "contractAddress": "0xFD0Fd568f70C42F87Bc4c9cE99853839fFB02151"
    },
    {
      "status": "0x1",
      "cumulativeGasUsed": "0x105b6",
      "logs": [],
      "logsBloom": "0x00000000000000000000000000000000000000000000000000000000000000000000000000000000000000000000000000000000000000000000000000000000000000000000000000000000000000000000000000000000000000000000000000000000000000000000000000000000000000000000000000000000000000000000000000000000000000000000000000000000000000000000000000000000000000000000000000000000000000000000000000000000000000000000000000000000000000000000000000000000000000000000000000000000000000000000000000000000000000000000000000000000000000000000000000000000",
      "type": "0x2",
      "transactionHash": "0x9bee19109afd8c289b977f90e1ba1d7787a63214003140a89769ce926a4868d1",
      "transactionIndex": "0x0",
      "blockHash": "0x820120daf711b6293f1f1dbc389603e905b3a6aff4f5c83f0ea2e6fd0f0e759c",
      "blockNumber": "0x8f37d0",
      "gasUsed": "0x105b6",
      "effectiveGasPrice": "0x746a528801",
      "from": "0xee2e617a42Aab5be36c290982493C6CC6C072982",
      "to": "0xFD0Fd568f70C42F87Bc4c9cE99853839fFB02151",
      "contractAddress": null
    },
    {
      "status": "0x1",
      "cumulativeGasUsed": "0xebddb",
      "logs": [],
      "logsBloom": "0x00000000000000000000000000000000000000000000000000000000000000000000000000000000000000000000000000000000000000000000000000000000000000000000000000000000000000000000000000000000000000000000000000000000000000000000000000000000000000000000000000000000000000000000000000000000000000000000000000000000000000000000000000000000000000000000000000000000000000000000000000000000000000000000000000000000000000000000000000000000000000000000000000000000000000000000000000000000000000000000000000000000000000000000000000000000",
      "type": "0x2",
      "transactionHash": "0x689768732e5f6e94b78daa53c25af9fe4c728ae8c7ffeb7b530577946f8a1933",
      "transactionIndex": "0x0",
      "blockHash": "0xc87874c6d33ac5e9941262c9deefb6173edca85e6b1e1697ae8f601985654e35",
      "blockNumber": "0x8f37d1",
      "gasUsed": "0xebddb",
      "effectiveGasPrice": "0x746a528801",
      "from": "0xee2e617a42Aab5be36c290982493C6CC6C072982",
      "to": null,
      "contractAddress": "0xefe4cDF0A7Ceb2B12c43Fd8934cf2698D62a17f6"
    },
    {
      "status": "0x1",
      "cumulativeGasUsed": "0x353841",
      "logs": [],
      "logsBloom": "0x00000000000000000000000000000000000000000000000000000000000000000000000000000000000000000000000000000000000000000000000000000000000000000000000000000000000000000000000000000000000000000000000000000000000000000000000000000000000000000000000000000000000000000000000000000000000000000000000000000000000000000000000000000000000000000000000000000000000000000000000000000000000000000000000000000000000000000000000000000000000000000000000000000000000000000000000000000000000000000000000000000000000000000000000000000000",
      "type": "0x2",
      "transactionHash": "0x1f849d674a7946c5d9fc0b35b833955486bfdbfa9caeb4b2df39692e8c25a891",
      "transactionIndex": "0x0",
      "blockHash": "0xcff821993d2fa2dd00e9c502c70df4384cd4de9dda01d419a358ef4d46f1a020",
      "blockNumber": "0x8f37d3",
      "gasUsed": "0x353841",
      "effectiveGasPrice": "0x746a528801",
      "from": "0xee2e617a42Aab5be36c290982493C6CC6C072982",
      "to": null,
      "contractAddress": "0x49bB1F3172B2cBFFaC0336147c13077857b6a8aF"
    },
    {
      "status": "0x1",
      "cumulativeGasUsed": "0x64dd8",
      "logs": [
        {
          "address": "0xED4f18f067a6091a0DeE5aFb6F94C90F0B9A53F9",
          "topics": [
            "0x8be0079c531659141344cd1fd0a4f28419497f9722a3daafe3b4186f6b6457e0",
            "0x0000000000000000000000000000000000000000000000000000000000000000",
            "0x000000000000000000000000ee2e617a42aab5be36c290982493c6cc6c072982"
          ],
          "data": "0x",
          "blockHash": "0xa53063ece75bca006bbf642c86c5dfb26a8e584bcb8500e34928f013150c7ca0",
          "blockNumber": "0x8f37d4",
          "transactionHash": "0xd4c29ffcc1947581e7d266fc978548da507e1b8f4f5d4803b69b884a35477ce6",
          "transactionIndex": "0x0",
          "logIndex": "0x0",
          "removed": false
        }
      ],
      "logsBloom": "0x00000000000000000000000000000000000000000000000000800000000000000000000000000000000000000000000000000000000000000000000000000000000000000000000000000000000000000001000000200000000000000000000000000000020000000000000000000800000000800000000000000000000000400000200000000000000000000000000000000000000000000000000000000020000000000000000000000000000000000000000400000000002000000000000000000000000000000000000000000000000000000000000000000000000020000000000000000000000000000000000000000000000000000000000000000000",
      "type": "0x2",
      "transactionHash": "0xd4c29ffcc1947581e7d266fc978548da507e1b8f4f5d4803b69b884a35477ce6",
      "transactionIndex": "0x0",
      "blockHash": "0xa53063ece75bca006bbf642c86c5dfb26a8e584bcb8500e34928f013150c7ca0",
      "blockNumber": "0x8f37d4",
      "gasUsed": "0x64dd8",
      "effectiveGasPrice": "0x746a528801",
      "from": "0xee2e617a42Aab5be36c290982493C6CC6C072982",
      "to": null,
      "contractAddress": "0xED4f18f067a6091a0DeE5aFb6F94C90F0B9A53F9"
    },
    {
      "status": "0x1",
      "cumulativeGasUsed": "0xaacb7",
      "logs": [
        {
          "address": "0x43961cA883FE3282E88dBbC8D50A2C53ec19CBD0",
          "topics": [
            "0xbc7cd75a20ee27fd9adebab32041f755214dbc6bffa90cc0225b39da2e5c2d3b",
            "0x000000000000000000000000efe4cdf0a7ceb2b12c43fd8934cf2698d62a17f6"
          ],
          "data": "0x",
          "blockHash": "0xf68a3275c20dc7d5425825d3d8e9f5ed182d4fb6b95afd9cd807619c77622119",
          "blockNumber": "0x8f37d5",
          "transactionHash": "0xa650d3da32ab539ac1c27061af439b1af69603e042a1f41b27c05b04fd15736f",
          "transactionIndex": "0x0",
          "logIndex": "0x0",
          "removed": false
        },
        {
          "address": "0x43961cA883FE3282E88dBbC8D50A2C53ec19CBD0",
          "topics": [
            "0x2f8788117e7eff1d82e926ec794901d17c78024a50270940304540a733656f0d",
            "0x0000000000000000000000000000000000000000000000000000000000000000",
            "0x000000000000000000000000ee2e617a42aab5be36c290982493c6cc6c072982",
            "0x000000000000000000000000ee2e617a42aab5be36c290982493c6cc6c072982"
          ],
          "data": "0x",
          "blockHash": "0xf68a3275c20dc7d5425825d3d8e9f5ed182d4fb6b95afd9cd807619c77622119",
          "blockNumber": "0x8f37d5",
          "transactionHash": "0xa650d3da32ab539ac1c27061af439b1af69603e042a1f41b27c05b04fd15736f",
          "transactionIndex": "0x0",
          "logIndex": "0x1",
          "removed": false
        },
        {
          "address": "0x43961cA883FE3282E88dBbC8D50A2C53ec19CBD0",
          "topics": [
            "0x2f8788117e7eff1d82e926ec794901d17c78024a50270940304540a733656f0d",
            "0x9792fdc19ab98adfa72ab2fa98d342618c661e01c406979c105b31eda87f5e6f",
            "0x000000000000000000000000ee2e617a42aab5be36c290982493c6cc6c072982",
            "0x000000000000000000000000ee2e617a42aab5be36c290982493c6cc6c072982"
          ],
          "data": "0x",
          "blockHash": "0xf68a3275c20dc7d5425825d3d8e9f5ed182d4fb6b95afd9cd807619c77622119",
          "blockNumber": "0x8f37d5",
          "transactionHash": "0xa650d3da32ab539ac1c27061af439b1af69603e042a1f41b27c05b04fd15736f",
          "transactionIndex": "0x0",
          "logIndex": "0x2",
          "removed": false
        },
        {
          "address": "0x43961cA883FE3282E88dBbC8D50A2C53ec19CBD0",
          "topics": [
            "0x7f26b83ff96e1f2b6a682f133852f6798a09c465da95921460cefb3847402498"
          ],
          "data": "0x0000000000000000000000000000000000000000000000000000000000000001",
          "blockHash": "0xf68a3275c20dc7d5425825d3d8e9f5ed182d4fb6b95afd9cd807619c77622119",
          "blockNumber": "0x8f37d5",
          "transactionHash": "0xa650d3da32ab539ac1c27061af439b1af69603e042a1f41b27c05b04fd15736f",
          "transactionIndex": "0x0",
          "logIndex": "0x3",
          "removed": false
        },
        {
          "address": "0x43961cA883FE3282E88dBbC8D50A2C53ec19CBD0",
          "topics": [
            "0x7e644d79422f17c01e4894b5f4f588d331ebfa28653d42ae832dc59e38c9798f"
          ],
          "data": "0x0000000000000000000000000000000000000000000000000000000000000000000000000000000000000000ed4f18f067a6091a0dee5afb6f94c90f0b9a53f9",
          "blockHash": "0xf68a3275c20dc7d5425825d3d8e9f5ed182d4fb6b95afd9cd807619c77622119",
          "blockNumber": "0x8f37d5",
          "transactionHash": "0xa650d3da32ab539ac1c27061af439b1af69603e042a1f41b27c05b04fd15736f",
          "transactionIndex": "0x0",
          "logIndex": "0x4",
          "removed": false
        }
      ],
      "logsBloom": "0x00000004000000000000000000000000400000000000000002000000000000000000000000000000000000000000000000000000000000000000000000000000000000000000000000000000000002000000000000000000000000000000000000000000020800000020000000000800200000800000000000000000000000000800000000000000000000000000000000000000000080000000000000800020000002000000000080000000000400000000000400100000007000000000000000000020000000000000000000040000000000000400000100000000000020000000000000000000000000000000000000000000000000000000000000000000",
      "type": "0x2",
      "transactionHash": "0xa650d3da32ab539ac1c27061af439b1af69603e042a1f41b27c05b04fd15736f",
      "transactionIndex": "0x0",
      "blockHash": "0xf68a3275c20dc7d5425825d3d8e9f5ed182d4fb6b95afd9cd807619c77622119",
      "blockNumber": "0x8f37d5",
      "gasUsed": "0xaacb7",
      "effectiveGasPrice": "0x746a528801",
      "from": "0xee2e617a42Aab5be36c290982493C6CC6C072982",
      "to": null,
      "contractAddress": "0x43961cA883FE3282E88dBbC8D50A2C53ec19CBD0"
    },
    {
      "status": "0x1",
      "cumulativeGasUsed": "0xc0a33",
      "logs": [
        {
          "address": "0x32f652E9Ce04F94Db1fC185B0c53B8107A05693D",
          "topics": [
            "0xbc7cd75a20ee27fd9adebab32041f755214dbc6bffa90cc0225b39da2e5c2d3b",
            "0x00000000000000000000000049bb1f3172b2cbffac0336147c13077857b6a8af"
          ],
          "data": "0x",
          "blockHash": "0xcce5879910768b26292e1747f14df807c9f21cb1ef574dc432b1ff747d8f9d88",
          "blockNumber": "0x8f37d7",
          "transactionHash": "0x60b435f857cd596276008b0c520db7703fa59f3ed5c2fff9ea248174de9e071d",
          "transactionIndex": "0x0",
          "logIndex": "0x0",
          "removed": false
        },
        {
          "address": "0x32f652E9Ce04F94Db1fC185B0c53B8107A05693D",
          "topics": [
            "0x2f8788117e7eff1d82e926ec794901d17c78024a50270940304540a733656f0d",
            "0x0000000000000000000000000000000000000000000000000000000000000000",
            "0x000000000000000000000000ee2e617a42aab5be36c290982493c6cc6c072982",
            "0x000000000000000000000000ee2e617a42aab5be36c290982493c6cc6c072982"
          ],
          "data": "0x",
          "blockHash": "0xcce5879910768b26292e1747f14df807c9f21cb1ef574dc432b1ff747d8f9d88",
          "blockNumber": "0x8f37d7",
          "transactionHash": "0x60b435f857cd596276008b0c520db7703fa59f3ed5c2fff9ea248174de9e071d",
          "transactionIndex": "0x0",
          "logIndex": "0x1",
          "removed": false
        },
        {
          "address": "0x32f652E9Ce04F94Db1fC185B0c53B8107A05693D",
          "topics": [
            "0x2f8788117e7eff1d82e926ec794901d17c78024a50270940304540a733656f0d",
            "0x241ecf16d79d0f8dbfb92cbc07fe17840425976cf0667f022fe9877caa831b08",
            "0x000000000000000000000000ee2e617a42aab5be36c290982493c6cc6c072982",
            "0x000000000000000000000000ee2e617a42aab5be36c290982493c6cc6c072982"
          ],
          "data": "0x",
          "blockHash": "0xcce5879910768b26292e1747f14df807c9f21cb1ef574dc432b1ff747d8f9d88",
          "blockNumber": "0x8f37d7",
          "transactionHash": "0x60b435f857cd596276008b0c520db7703fa59f3ed5c2fff9ea248174de9e071d",
          "transactionIndex": "0x0",
          "logIndex": "0x2",
          "removed": false
        },
        {
          "address": "0x32f652E9Ce04F94Db1fC185B0c53B8107A05693D",
          "topics": [
            "0x7f26b83ff96e1f2b6a682f133852f6798a09c465da95921460cefb3847402498"
          ],
          "data": "0x0000000000000000000000000000000000000000000000000000000000000001",
          "blockHash": "0xcce5879910768b26292e1747f14df807c9f21cb1ef574dc432b1ff747d8f9d88",
          "blockNumber": "0x8f37d7",
          "transactionHash": "0x60b435f857cd596276008b0c520db7703fa59f3ed5c2fff9ea248174de9e071d",
          "transactionIndex": "0x0",
          "logIndex": "0x3",
          "removed": false
        },
        {
          "address": "0x32f652E9Ce04F94Db1fC185B0c53B8107A05693D",
          "topics": [
            "0x7e644d79422f17c01e4894b5f4f588d331ebfa28653d42ae832dc59e38c9798f"
          ],
          "data": "0x0000000000000000000000000000000000000000000000000000000000000000000000000000000000000000ed4f18f067a6091a0dee5afb6f94c90f0b9a53f9",
          "blockHash": "0xcce5879910768b26292e1747f14df807c9f21cb1ef574dc432b1ff747d8f9d88",
          "blockNumber": "0x8f37d7",
          "transactionHash": "0x60b435f857cd596276008b0c520db7703fa59f3ed5c2fff9ea248174de9e071d",
          "transactionIndex": "0x0",
          "logIndex": "0x4",
          "removed": false
        }
      ],
      "logsBloom": "0x0000000c000000000000000000000000400000000000004010000000000000000000000000000000000000020000000000000000000000000000000000000000000000000020000000000000000002000000000000000000000000000000000000000000020000000004000000000800000000800000000000000000000000000000000000000000000000000000000000000000000080000000000000800020200000000000000000000000000400000000000400000000003000000000000000000020000000000000020000040000000000000400000100000002000020000000000000000000000000000000000000000000000000000000000000000000",
      "type": "0x2",
      "transactionHash": "0x60b435f857cd596276008b0c520db7703fa59f3ed5c2fff9ea248174de9e071d",
      "transactionIndex": "0x0",
      "blockHash": "0xcce5879910768b26292e1747f14df807c9f21cb1ef574dc432b1ff747d8f9d88",
      "blockNumber": "0x8f37d7",
      "gasUsed": "0xc0a33",
      "effectiveGasPrice": "0x746a528801",
      "from": "0xee2e617a42Aab5be36c290982493C6CC6C072982",
      "to": null,
      "contractAddress": "0x32f652E9Ce04F94Db1fC185B0c53B8107A05693D"
    },
    {
      "status": "0x1",
      "cumulativeGasUsed": "0x8b7b",
      "logs": [],
      "logsBloom": "0x00000000000000000000000000000000000000000000000000000000000000000000000000000000000000000000000000000000000000000000000000000000000000000000000000000000000000000000000000000000000000000000000000000000000000000000000000000000000000000000000000000000000000000000000000000000000000000000000000000000000000000000000000000000000000000000000000000000000000000000000000000000000000000000000000000000000000000000000000000000000000000000000000000000000000000000000000000000000000000000000000000000000000000000000000000000",
      "type": "0x2",
      "transactionHash": "0xa07d80561a0a0f160d751e80a79b0d947daa36a60647720f3f364faa0ead0122",
      "transactionIndex": "0x0",
      "blockHash": "0xfcadc7aec58fbefc64e88afdfb03d407620333b8722a19d44a5507a87765822b",
      "blockNumber": "0x8f37d8",
      "gasUsed": "0x8b7b",
      "effectiveGasPrice": "0x746a528801",
      "from": "0xee2e617a42Aab5be36c290982493C6CC6C072982",
      "to": "0x32f652E9Ce04F94Db1fC185B0c53B8107A05693D",
      "contractAddress": null
    },
    {
      "status": "0x1",
      "cumulativeGasUsed": "0x8e67",
      "logs": [],
      "logsBloom": "0x00000000000000000000000000000000000000000000000000000000000000000000000000000000000000000000000000000000000000000000000000000000000000000000000000000000000000000000000000000000000000000000000000000000000000000000000000000000000000000000000000000000000000000000000000000000000000000000000000000000000000000000000000000000000000000000000000000000000000000000000000000000000000000000000000000000000000000000000000000000000000000000000000000000000000000000000000000000000000000000000000000000000000000000000000000000",
      "type": "0x2",
      "transactionHash": "0xfaa1ca4bc3b3ae6d4bade9d2c3c57320747b292b03d3a6cbaa9eaab08bb53253",
      "transactionIndex": "0x0",
      "blockHash": "0x7960f027562bc429286b341e562e0c25ba3f090b8915613f178d83be8baf60eb",
      "blockNumber": "0x8f37da",
      "gasUsed": "0x8e67",
      "effectiveGasPrice": "0x746a528801",
      "from": "0xee2e617a42Aab5be36c290982493C6CC6C072982",
      "to": "0x32f652E9Ce04F94Db1fC185B0c53B8107A05693D",
      "contractAddress": null
    },
    {
      "status": "0x1",
      "cumulativeGasUsed": "0x8eeb",
      "logs": [],
      "logsBloom": "0x00000000000000000000000000000000000000000000000000000000000000000000000000000000000000000000000000000000000000000000000000000000000000000000000000000000000000000000000000000000000000000000000000000000000000000000000000000000000000000000000000000000000000000000000000000000000000000000000000000000000000000000000000000000000000000000000000000000000000000000000000000000000000000000000000000000000000000000000000000000000000000000000000000000000000000000000000000000000000000000000000000000000000000000000000000000",
      "type": "0x2",
      "transactionHash": "0x6eff6f8fef35c460b1bf22a64bbcea0a452b0aaa0491d1bbd41fab1a0bd8e090",
      "transactionIndex": "0x0",
      "blockHash": "0xbece45ffa97c390cba960275d30a3bea257b145e6ae43c18f47978db495e7089",
      "blockNumber": "0x8f37db",
      "gasUsed": "0x8eeb",
      "effectiveGasPrice": "0x746a528801",
      "from": "0xee2e617a42Aab5be36c290982493C6CC6C072982",
      "to": "0x32f652E9Ce04F94Db1fC185B0c53B8107A05693D",
      "contractAddress": null
    },
    {
      "status": "0x1",
      "cumulativeGasUsed": "0x9290",
      "logs": [
        {
          "address": "0x43961cA883FE3282E88dBbC8D50A2C53ec19CBD0",
          "topics": [
            "0x159e83f4712ba2552e68be9d848e49bf6dd35c24f19564ffd523b6549450a2f4",
            "0x49d1edfc45745215fb1af941c080e34c8cb1339ccd6252e9ba44624e8cb6d8c6"
          ],
          "data": "0x00000000000000000000000000000000000000000000000000470de4df820000",
          "blockHash": "0x88d0db2ef33a42be5de6254e1f0c6b4e712190b9db7530560c359985a640c7f6",
          "blockNumber": "0x8f37dd",
          "transactionHash": "0x0102974c1f954d959876b0567b9bc78b306fe14731bb0fe52f2742091e7ad730",
          "transactionIndex": "0x0",
          "logIndex": "0x0",
          "removed": false
        }
      ],
      "logsBloom": "0x00000000000000000040000000000000000000000000000000000000000000000000000000000000000000000000000000000000000000000000000000000000000000000000020020000000000000000000000000000000000000000000000000000000000000000020000000000000200000004000000000000000000000000000000000000000000000000000000000000000000000000000000000000000000000000000000000000000000000000000000000001000004000000000000000000000000000000000000000000000000000000000000000020000000000000000000000000000000000000000000000000000000000000000000000000000",
      "type": "0x2",
      "transactionHash": "0x0102974c1f954d959876b0567b9bc78b306fe14731bb0fe52f2742091e7ad730",
      "transactionIndex": "0x0",
      "blockHash": "0x88d0db2ef33a42be5de6254e1f0c6b4e712190b9db7530560c359985a640c7f6",
      "blockNumber": "0x8f37dd",
      "gasUsed": "0x9290",
      "effectiveGasPrice": "0x746a528801",
      "from": "0xee2e617a42Aab5be36c290982493C6CC6C072982",
      "to": "0x43961cA883FE3282E88dBbC8D50A2C53ec19CBD0",
      "contractAddress": null
    },
    {
      "status": "0x1",
      "cumulativeGasUsed": "0xe418",
      "logs": [
        {
          "address": "0x32f652E9Ce04F94Db1fC185B0c53B8107A05693D",
          "topics": [
            "0x2f8788117e7eff1d82e926ec794901d17c78024a50270940304540a733656f0d",
            "0x241ecf16d79d0f8dbfb92cbc07fe17840425976cf0667f022fe9877caa831b08",
            "0x0000000000000000000000002d2ba91b7c0ea2db570a5df61304b690fd1a3918",
            "0x000000000000000000000000ee2e617a42aab5be36c290982493c6cc6c072982"
          ],
          "data": "0x",
          "blockHash": "0xb743f25a96e68a5820d0df11be21edd0172732e8c8e2845c9d3227f5c6941d26",
          "blockNumber": "0x8f37de",
          "transactionHash": "0x7e3e6c7fac2366aedfba62598fe7ce288b58596bf0a6477319f7591c5970bec4",
          "transactionIndex": "0x0",
          "logIndex": "0x0",
          "removed": false
        }
      ],
      "logsBloom": "0x0000000c000000000000000000000000000000000000004000000000000000000000000000000000000000000000000000000000000000000000000000000000000000000020000000000000000000000000000000000000000000000000000000000000000000000004000000000000000000000000000000000000000000000000100000000000000000000000000000000000000000000000000000000020200000000000000000000000000000000000000400004000003000000000000000000000000000000000020000000000000000000000000100000000000000000000000000000000000000000000000000000000000000008000000000000000",
      "type": "0x2",
      "transactionHash": "0x7e3e6c7fac2366aedfba62598fe7ce288b58596bf0a6477319f7591c5970bec4",
      "transactionIndex": "0x0",
      "blockHash": "0xb743f25a96e68a5820d0df11be21edd0172732e8c8e2845c9d3227f5c6941d26",
      "blockNumber": "0x8f37de",
      "gasUsed": "0xe418",
      "effectiveGasPrice": "0x746a528801",
      "from": "0xee2e617a42Aab5be36c290982493C6CC6C072982",
      "to": "0x32f652E9Ce04F94Db1fC185B0c53B8107A05693D",
      "contractAddress": null
    },
    {
      "status": "0x1",
      "cumulativeGasUsed": "0xe418",
      "logs": [
        {
          "address": "0x32f652E9Ce04F94Db1fC185B0c53B8107A05693D",
          "topics": [
            "0x2f8788117e7eff1d82e926ec794901d17c78024a50270940304540a733656f0d",
            "0x241ecf16d79d0f8dbfb92cbc07fe17840425976cf0667f022fe9877caa831b08",
            "0x0000000000000000000000001c89357af4f15b351f1ba8a478d944dfa3f45715",
            "0x000000000000000000000000ee2e617a42aab5be36c290982493c6cc6c072982"
          ],
          "data": "0x",
          "blockHash": "0x2383bad922647d835c199572c7a560e0b7f6b92b2323a8b65092615609c4f14f",
          "blockNumber": "0x8f37df",
          "transactionHash": "0xd99ded16923a843b48e8ad2349992b4042768c95e1e917f5c69887c422679753",
          "transactionIndex": "0x0",
          "logIndex": "0x0",
          "removed": false
        }
      ],
      "logsBloom": "0x0000000c000000000000000000000000000000000100004000000010000000000000000000000000000000000000000000000000000000000000000000000000000000000020000000000000200000000000000000000000000000000000000000000000000000000004000000000000000000000000000000000000000000000000000000000000000000000000000000000000000000000000000000000020200000000000000000000000000000000000000400000000003000000000000000000000000000000000020000000000000000000000000100000000000000000000000000000000000000000000000000000000000000000000000000000000",
      "type": "0x2",
      "transactionHash": "0xd99ded16923a843b48e8ad2349992b4042768c95e1e917f5c69887c422679753",
      "transactionIndex": "0x0",
      "blockHash": "0x2383bad922647d835c199572c7a560e0b7f6b92b2323a8b65092615609c4f14f",
      "blockNumber": "0x8f37df",
      "gasUsed": "0xe418",
      "effectiveGasPrice": "0x746a528801",
      "from": "0xee2e617a42Aab5be36c290982493C6CC6C072982",
      "to": "0x32f652E9Ce04F94Db1fC185B0c53B8107A05693D",
      "contractAddress": null
    },
    {
      "status": "0x1",
      "cumulativeGasUsed": "0xe418",
      "logs": [
        {
          "address": "0x32f652E9Ce04F94Db1fC185B0c53B8107A05693D",
          "topics": [
            "0x2f8788117e7eff1d82e926ec794901d17c78024a50270940304540a733656f0d",
            "0x241ecf16d79d0f8dbfb92cbc07fe17840425976cf0667f022fe9877caa831b08",
            "0x0000000000000000000000006ff2da7eb2df14db66f3f25a0ace6a28e5f15cd9",
            "0x000000000000000000000000ee2e617a42aab5be36c290982493c6cc6c072982"
          ],
          "data": "0x",
          "blockHash": "0xc6bcffb518f5586023f5dfd63c19cc0fb586f0a38082d416f86ac3eb4aebd3b3",
          "blockNumber": "0x8f37e1",
          "transactionHash": "0x2eff40245235801522ab27f843367f15919b78dfdd6579c61bca7cfc00b7e1ea",
          "transactionIndex": "0x0",
          "logIndex": "0x0",
          "removed": false
        }
      ],
      "logsBloom": "0x0000000c000000000000000000000000000000000000004000000000000000800000000000000000000000000000000000000000000000000000000000000000000000000020000000000000000000000000000000000000000000000000000000000000000000000004000000000100000000000000000000000000000000000000000000000000000000000000000000000000000000000000000000000020200001000000000000000000000000000000000400000000003000000000000000000000000000000000020000000000000000000000000100000000000000000000000000000000000000000000000000000000000000000000000000000000",
      "type": "0x2",
      "transactionHash": "0x2eff40245235801522ab27f843367f15919b78dfdd6579c61bca7cfc00b7e1ea",
      "transactionIndex": "0x0",
      "blockHash": "0xc6bcffb518f5586023f5dfd63c19cc0fb586f0a38082d416f86ac3eb4aebd3b3",
      "blockNumber": "0x8f37e1",
      "gasUsed": "0xe418",
      "effectiveGasPrice": "0x746a528801",
      "from": "0xee2e617a42Aab5be36c290982493C6CC6C072982",
      "to": "0x32f652E9Ce04F94Db1fC185B0c53B8107A05693D",
      "contractAddress": null
    },
    {
      "status": "0x1",
      "cumulativeGasUsed": "0xe418",
      "logs": [
        {
          "address": "0x32f652E9Ce04F94Db1fC185B0c53B8107A05693D",
          "topics": [
            "0x2f8788117e7eff1d82e926ec794901d17c78024a50270940304540a733656f0d",
            "0x97667070c54ef182b0f5858b034beac1b6f3089aa2d3188bb1e8929f4fa9b929",
            "0x0000000000000000000000002d2ba91b7c0ea2db570a5df61304b690fd1a3918",
            "0x000000000000000000000000ee2e617a42aab5be36c290982493c6cc6c072982"
          ],
          "data": "0x",
          "blockHash": "0x6cf447494783ebf10368d9407c3ca3ebd77540f4d0bf1e52f21a33c049e4c1b6",
          "blockNumber": "0x8f37e2",
          "transactionHash": "0xf168a4a9712627e0cfffc872cdc5fbec7b6fe0ec863489239f849e3aa78465cb",
          "transactionIndex": "0x0",
          "logIndex": "0x0",
          "removed": false
        }
      ],
      "logsBloom": "0x0000000c00000000000000000000000000000000000000400000000000000000020000000000000000000000000000000000000000000000000000000000000000000000000000000000000000000000000200000000000000000000000000000000000000000000000000000000000000000000000000000000000000000000000010000000000000000000000000000000000000000000000000000000002020000000000000000000000000000000000000040000c000003000000000000000000000000000000000000000000000000000000000000100000000000000000000000000000000000000000000000000000000000000008000000000000000",
      "type": "0x2",
      "transactionHash": "0xf168a4a9712627e0cfffc872cdc5fbec7b6fe0ec863489239f849e3aa78465cb",
      "transactionIndex": "0x0",
      "blockHash": "0x6cf447494783ebf10368d9407c3ca3ebd77540f4d0bf1e52f21a33c049e4c1b6",
      "blockNumber": "0x8f37e2",
      "gasUsed": "0xe418",
      "effectiveGasPrice": "0x746a528801",
      "from": "0xee2e617a42Aab5be36c290982493C6CC6C072982",
      "to": "0x32f652E9Ce04F94Db1fC185B0c53B8107A05693D",
      "contractAddress": null
    },
    {
      "status": "0x1",
      "cumulativeGasUsed": "0xe418",
      "logs": [
        {
          "address": "0x32f652E9Ce04F94Db1fC185B0c53B8107A05693D",
          "topics": [
            "0x2f8788117e7eff1d82e926ec794901d17c78024a50270940304540a733656f0d",
            "0x97667070c54ef182b0f5858b034beac1b6f3089aa2d3188bb1e8929f4fa9b929",
            "0x0000000000000000000000001c89357af4f15b351f1ba8a478d944dfa3f45715",
            "0x000000000000000000000000ee2e617a42aab5be36c290982493c6cc6c072982"
          ],
          "data": "0x",
          "blockHash": "0x874ab3f90d994ff601bf7b6e5aa87993b1a28d5d8835c7ab0a21aac4a7bc1e9f",
          "blockNumber": "0x8f37e4",
          "transactionHash": "0xa8c4ae7b789ad8dc952ae4c78824a80df9c23144a1490843a7d9fcf023478873",
          "transactionIndex": "0x0",
          "logIndex": "0x0",
          "removed": false
        }
      ],
      "logsBloom": "0x0000000c000000000000000000000000000000000100004000000010000000000200000000000000000000000000000000000000000000000000000000000000000000000000000000000000200000000002000000000000000000000000000000000000000000000000000000000000000000000000000000000000000000000000000000000000000000000000000000000000000000000000000000000020200000000000000000000000000000000000000400008000003000000000000000000000000000000000000000000000000000000000000100000000000000000000000000000000000000000000000000000000000000000000000000000000",
      "type": "0x2",
      "transactionHash": "0xa8c4ae7b789ad8dc952ae4c78824a80df9c23144a1490843a7d9fcf023478873",
      "transactionIndex": "0x0",
      "blockHash": "0x874ab3f90d994ff601bf7b6e5aa87993b1a28d5d8835c7ab0a21aac4a7bc1e9f",
      "blockNumber": "0x8f37e4",
      "gasUsed": "0xe418",
      "effectiveGasPrice": "0x746a528801",
      "from": "0xee2e617a42Aab5be36c290982493C6CC6C072982",
      "to": "0x32f652E9Ce04F94Db1fC185B0c53B8107A05693D",
      "contractAddress": null
    },
    {
      "status": "0x1",
      "cumulativeGasUsed": "0xe418",
      "logs": [
        {
          "address": "0x32f652E9Ce04F94Db1fC185B0c53B8107A05693D",
          "topics": [
            "0x2f8788117e7eff1d82e926ec794901d17c78024a50270940304540a733656f0d",
            "0x97667070c54ef182b0f5858b034beac1b6f3089aa2d3188bb1e8929f4fa9b929",
            "0x0000000000000000000000006ff2da7eb2df14db66f3f25a0ace6a28e5f15cd9",
            "0x000000000000000000000000ee2e617a42aab5be36c290982493c6cc6c072982"
          ],
          "data": "0x",
          "blockHash": "0xe44e6c2fa1cd56b4a5bfca02ed7625af698bae305c0dd1274bcdbc63c230af5d",
          "blockNumber": "0x8f37e5",
          "transactionHash": "0xf40cb03919e1a5f9b55521309e3e61e673c355b3ba88813bab21db7639263040",
          "transactionIndex": "0x0",
          "logIndex": "0x0",
          "removed": false
        }
      ],
      "logsBloom": "0x0000000c000000000000000000000000000000000000004000000000000000800200000000000000000000000000000000000000000000000000000000000000000000000000000000000000000000000002000000000000000000000000000000000000000000000000000000000100000000000000000000000000000000000000000000000000000000000000000000000000000000000000000000000020200001000000000000000000000000000000000400008000003000000000000000000000000000000000000000000000000000000000000100000000000000000000000000000000000000000000000000000000000000000000000000000000",
      "type": "0x2",
      "transactionHash": "0xf40cb03919e1a5f9b55521309e3e61e673c355b3ba88813bab21db7639263040",
      "transactionIndex": "0x0",
      "blockHash": "0xe44e6c2fa1cd56b4a5bfca02ed7625af698bae305c0dd1274bcdbc63c230af5d",
      "blockNumber": "0x8f37e5",
      "gasUsed": "0xe418",
      "effectiveGasPrice": "0x746a528801",
      "from": "0xee2e617a42Aab5be36c290982493C6CC6C072982",
      "to": "0x32f652E9Ce04F94Db1fC185B0c53B8107A05693D",
      "contractAddress": null
    },
    {
      "status": "0x1",
      "cumulativeGasUsed": "0xe298",
      "logs": [
        {
          "address": "0x32f652E9Ce04F94Db1fC185B0c53B8107A05693D",
          "topics": [
            "0x2f8788117e7eff1d82e926ec794901d17c78024a50270940304540a733656f0d",
            "0x0000000000000000000000000000000000000000000000000000000000000000",
            "0x0000000000000000000000002d2ba91b7c0ea2db570a5df61304b690fd1a3918",
            "0x000000000000000000000000ee2e617a42aab5be36c290982493c6cc6c072982"
          ],
          "data": "0x",
          "blockHash": "0x3111bc93157d47480441eff64221ac21a40a059fa92ae4b2f46a63224735f436",
          "blockNumber": "0x8f37e6",
          "transactionHash": "0x3008b0981f5b00dfacf2297a1e29b20a9b03f49d2a5d53ad8ad9f85f8c033eaf",
          "transactionIndex": "0x0",
          "logIndex": "0x0",
          "removed": false
        }
      ],
      "logsBloom": "0x0000000c000000000000000000000000000000000000004000000000000000000000000000000000000000000000000000000000000000000000000000000000000000000000000000000000000000000000000000000000000000000000000000000000020000000000000000000800000000000000000000000000000000000000100000000000000000000000000000000000000000000000000000000020200000000000000000000000000000000000000400004000003000000000000000000000000000000000000000000000000000000000000100000000000020000000000000000000000000000000000000000000000000008000000000000000",
      "type": "0x2",
      "transactionHash": "0x3008b0981f5b00dfacf2297a1e29b20a9b03f49d2a5d53ad8ad9f85f8c033eaf",
      "transactionIndex": "0x0",
      "blockHash": "0x3111bc93157d47480441eff64221ac21a40a059fa92ae4b2f46a63224735f436",
      "blockNumber": "0x8f37e6",
      "gasUsed": "0xe298",
      "effectiveGasPrice": "0x746a528801",
      "from": "0xee2e617a42Aab5be36c290982493C6CC6C072982",
      "to": "0x32f652E9Ce04F94Db1fC185B0c53B8107A05693D",
      "contractAddress": null
    },
    {
      "status": "0x1",
      "cumulativeGasUsed": "0xe298",
      "logs": [
        {
          "address": "0x32f652E9Ce04F94Db1fC185B0c53B8107A05693D",
          "topics": [
            "0x2f8788117e7eff1d82e926ec794901d17c78024a50270940304540a733656f0d",
            "0x0000000000000000000000000000000000000000000000000000000000000000",
            "0x0000000000000000000000001c89357af4f15b351f1ba8a478d944dfa3f45715",
            "0x000000000000000000000000ee2e617a42aab5be36c290982493c6cc6c072982"
          ],
          "data": "0x",
          "blockHash": "0xcb796ce7943f8842c8291b632fd2baa65315c11618a160ff3e18273d39a5bcd8",
          "blockNumber": "0x8f37e8",
          "transactionHash": "0xc43e0b705733826294f48146163e01ae626de56a8c8153f545cd34f771511211",
          "transactionIndex": "0x0",
          "logIndex": "0x0",
          "removed": false
        }
      ],
      "logsBloom": "0x0000000c000000000000000000000000000000000100004000000010000000000000000000000000000000000000000000000000000000000000000000000000000000000000000000000000200000000000000000000000000000000000000000000000020000000000000000000800000000000000000000000000000000000000000000000000000000000000000000000000000000000000000000000020200000000000000000000000000000000000000400000000003000000000000000000000000000000000000000000000000000000000000100000000000020000000000000000000000000000000000000000000000000000000000000000000",
      "type": "0x2",
      "transactionHash": "0xc43e0b705733826294f48146163e01ae626de56a8c8153f545cd34f771511211",
      "transactionIndex": "0x0",
      "blockHash": "0xcb796ce7943f8842c8291b632fd2baa65315c11618a160ff3e18273d39a5bcd8",
      "blockNumber": "0x8f37e8",
      "gasUsed": "0xe298",
      "effectiveGasPrice": "0x746a528801",
      "from": "0xee2e617a42Aab5be36c290982493C6CC6C072982",
      "to": "0x32f652E9Ce04F94Db1fC185B0c53B8107A05693D",
      "contractAddress": null
    },
    {
      "status": "0x1",
      "cumulativeGasUsed": "0xe298",
      "logs": [
        {
          "address": "0x32f652E9Ce04F94Db1fC185B0c53B8107A05693D",
          "topics": [
            "0x2f8788117e7eff1d82e926ec794901d17c78024a50270940304540a733656f0d",
            "0x0000000000000000000000000000000000000000000000000000000000000000",
            "0x0000000000000000000000006ff2da7eb2df14db66f3f25a0ace6a28e5f15cd9",
            "0x000000000000000000000000ee2e617a42aab5be36c290982493c6cc6c072982"
          ],
          "data": "0x",
          "blockHash": "0x4608ee3c0da92929a823030917d838c43f8dc00b79fcd8931f25c608035ccd92",
          "blockNumber": "0x8f37e9",
          "transactionHash": "0x20f4ae4630f4936f67785daa0e3bce62e2b9ee2d14e8e4b66c5283767d14211a",
          "transactionIndex": "0x0",
          "logIndex": "0x0",
          "removed": false
        }
      ],
      "logsBloom": "0x0000000c000000000000000000000000000000000000004000000000000000800000000000000000000000000000000000000000000000000000000000000000000000000000000000000000000000000000000000000000000000000000000000000000020000000000000000000900000000000000000000000000000000000000000000000000000000000000000000000000000000000000000000000020200001000000000000000000000000000000000400000000003000000000000000000000000000000000000000000000000000000000000100000000000020000000000000000000000000000000000000000000000000000000000000000000",
      "type": "0x2",
      "transactionHash": "0x20f4ae4630f4936f67785daa0e3bce62e2b9ee2d14e8e4b66c5283767d14211a",
      "transactionIndex": "0x0",
      "blockHash": "0x4608ee3c0da92929a823030917d838c43f8dc00b79fcd8931f25c608035ccd92",
      "blockNumber": "0x8f37e9",
      "gasUsed": "0xe298",
      "effectiveGasPrice": "0x746a528801",
      "from": "0xee2e617a42Aab5be36c290982493C6CC6C072982",
      "to": "0x32f652E9Ce04F94Db1fC185B0c53B8107A05693D",
      "contractAddress": null
    },
    {
      "status": "0x1",
      "cumulativeGasUsed": "0xe214",
      "logs": [
        {
          "address": "0x43961cA883FE3282E88dBbC8D50A2C53ec19CBD0",
          "topics": [
            "0x2f8788117e7eff1d82e926ec794901d17c78024a50270940304540a733656f0d",
            "0x0000000000000000000000000000000000000000000000000000000000000000",
            "0x0000000000000000000000002d2ba91b7c0ea2db570a5df61304b690fd1a3918",
            "0x000000000000000000000000ee2e617a42aab5be36c290982493c6cc6c072982"
          ],
          "data": "0x",
          "blockHash": "0xdee5bf05e41cabbd595e86e08966546c40d28cb14dd9b3383d22dac81b762446",
          "blockNumber": "0x8f37eb",
          "transactionHash": "0xd65ed219d85a0a8c8f6a85ecca59bdbf6496468e3de5a45e6998c3a5aaf43aac",
          "transactionIndex": "0x0",
          "logIndex": "0x0",
          "removed": false
        }
      ],
      "logsBloom": "0x00000004000000000000000000000000000000000000000000000000000000000000000000000000000000000000000000000000000000000000000000000000000000000000000000000000000000000000000000000000000000000000000000000000020000000020000000000800200000000000000000000000000000000000100000000000000000000000000000000000000000000000000000000020000000000000000000000000000000000000000400004000007000000000000000000000000000000000000000000000000000000000000100000000000020000000000000000000000000000000000000000000000000008000000000000000",
      "type": "0x2",
      "transactionHash": "0xd65ed219d85a0a8c8f6a85ecca59bdbf6496468e3de5a45e6998c3a5aaf43aac",
      "transactionIndex": "0x0",
      "blockHash": "0xdee5bf05e41cabbd595e86e08966546c40d28cb14dd9b3383d22dac81b762446",
      "blockNumber": "0x8f37eb",
      "gasUsed": "0xe214",
      "effectiveGasPrice": "0x746a528801",
      "from": "0xee2e617a42Aab5be36c290982493C6CC6C072982",
      "to": "0x43961cA883FE3282E88dBbC8D50A2C53ec19CBD0",
      "contractAddress": null
    },
    {
      "status": "0x1",
      "cumulativeGasUsed": "0xe214",
      "logs": [
        {
          "address": "0x43961cA883FE3282E88dBbC8D50A2C53ec19CBD0",
          "topics": [
            "0x2f8788117e7eff1d82e926ec794901d17c78024a50270940304540a733656f0d",
            "0x0000000000000000000000000000000000000000000000000000000000000000",
            "0x0000000000000000000000001c89357af4f15b351f1ba8a478d944dfa3f45715",
            "0x000000000000000000000000ee2e617a42aab5be36c290982493c6cc6c072982"
          ],
          "data": "0x",
          "blockHash": "0x978db5a883683ec1be37ecb1079cf2f5a7aecae55327b286449429ab003ba3cf",
          "blockNumber": "0x8f37ec",
          "transactionHash": "0x26b08a27c8973cd9b3b102db0543129e89b0436b798266e3a1b36b5d0ebe4a5a",
          "transactionIndex": "0x0",
          "logIndex": "0x0",
          "removed": false
        }
      ],
      "logsBloom": "0x00000004000000000000000000000000000000000100000000000010000000000000000000000000000000000000000000000000000000000000000000000000000000000000000000000000200000000000000000000000000000000000000000000000020000000020000000000800200000000000000000000000000000000000000000000000000000000000000000000000000000000000000000000020000000000000000000000000000000000000000400000000007000000000000000000000000000000000000000000000000000000000000100000000000020000000000000000000000000000000000000000000000000000000000000000000",
      "type": "0x2",
      "transactionHash": "0x26b08a27c8973cd9b3b102db0543129e89b0436b798266e3a1b36b5d0ebe4a5a",
      "transactionIndex": "0x0",
      "blockHash": "0x978db5a883683ec1be37ecb1079cf2f5a7aecae55327b286449429ab003ba3cf",
      "blockNumber": "0x8f37ec",
      "gasUsed": "0xe214",
      "effectiveGasPrice": "0x746a528801",
      "from": "0xee2e617a42Aab5be36c290982493C6CC6C072982",
      "to": "0x43961cA883FE3282E88dBbC8D50A2C53ec19CBD0",
      "contractAddress": null
    },
    {
      "status": "0x1",
      "cumulativeGasUsed": "0xe214",
      "logs": [
        {
          "address": "0x43961cA883FE3282E88dBbC8D50A2C53ec19CBD0",
          "topics": [
            "0x2f8788117e7eff1d82e926ec794901d17c78024a50270940304540a733656f0d",
            "0x0000000000000000000000000000000000000000000000000000000000000000",
            "0x0000000000000000000000006ff2da7eb2df14db66f3f25a0ace6a28e5f15cd9",
            "0x000000000000000000000000ee2e617a42aab5be36c290982493c6cc6c072982"
          ],
          "data": "0x",
          "blockHash": "0x810691bc2e63cbeae8d762f993fd4e9f718242cd28a7089a417e383ca54c8da5",
          "blockNumber": "0x8f37ee",
          "transactionHash": "0xa4e69355beae62f3acf68ea917d15e243b0b69f52003337cc73786b725f744ec",
          "transactionIndex": "0x0",
          "logIndex": "0x0",
          "removed": false
        }
      ],
      "logsBloom": "0x00000004000000000000000000000000000000000000000000000000000000800000000000000000000000000000000000000000000000000000000000000000000000000000000000000000000000000000000000000000000000000000000000000000020000000020000000000900200000000000000000000000000000000000000000000000000000000000000000000000000000000000000000000020000001000000000000000000000000000000000400000000007000000000000000000000000000000000000000000000000000000000000100000000000020000000000000000000000000000000000000000000000000000000000000000000",
      "type": "0x2",
      "transactionHash": "0xa4e69355beae62f3acf68ea917d15e243b0b69f52003337cc73786b725f744ec",
      "transactionIndex": "0x0",
      "blockHash": "0x810691bc2e63cbeae8d762f993fd4e9f718242cd28a7089a417e383ca54c8da5",
      "blockNumber": "0x8f37ee",
      "gasUsed": "0xe214",
      "effectiveGasPrice": "0x746a528801",
      "from": "0xee2e617a42Aab5be36c290982493C6CC6C072982",
      "to": "0x43961cA883FE3282E88dBbC8D50A2C53ec19CBD0",
      "contractAddress": null
    },
    {
      "status": "0x1",
      "cumulativeGasUsed": "0xe394",
      "logs": [
        {
          "address": "0x43961cA883FE3282E88dBbC8D50A2C53ec19CBD0",
          "topics": [
            "0x2f8788117e7eff1d82e926ec794901d17c78024a50270940304540a733656f0d",
            "0x9792fdc19ab98adfa72ab2fa98d342618c661e01c406979c105b31eda87f5e6f",
            "0x0000000000000000000000002d2ba91b7c0ea2db570a5df61304b690fd1a3918",
            "0x000000000000000000000000ee2e617a42aab5be36c290982493c6cc6c072982"
          ],
          "data": "0x",
          "blockHash": "0xcebe2169bae89585ab87d1dd9fead028f866f06a6c02b2e835f69dcc3e3d4fba",
          "blockNumber": "0x8f37ef",
          "transactionHash": "0x5aca76db1444a084ca8996aa93b69d624895b465b95eb404d311f434a95d3de3",
          "transactionIndex": "0x0",
          "logIndex": "0x0",
          "removed": false
        }
      ],
      "logsBloom": "0x00000004000000000000000000000000000000000000000000000000000000000000000000000000000000000000000000000000000000000000000000000000000000000000000000000000000000000000000000000000000000000000000000000000000000000020000000000000200000000000000000000000000000000800100000000000000000000000000000000000000000000000000000000020000002000000000080000000000000000000000400004000007000000000000000000000000000000000000000000000000000000000000100000000000000000000000000000000000000000000000000000000000000008000000000000000",
      "type": "0x2",
      "transactionHash": "0x5aca76db1444a084ca8996aa93b69d624895b465b95eb404d311f434a95d3de3",
      "transactionIndex": "0x0",
      "blockHash": "0xcebe2169bae89585ab87d1dd9fead028f866f06a6c02b2e835f69dcc3e3d4fba",
      "blockNumber": "0x8f37ef",
      "gasUsed": "0xe394",
      "effectiveGasPrice": "0x746a528801",
      "from": "0xee2e617a42Aab5be36c290982493C6CC6C072982",
      "to": "0x43961cA883FE3282E88dBbC8D50A2C53ec19CBD0",
      "contractAddress": null
    },
    {
      "status": "0x1",
      "cumulativeGasUsed": "0xe394",
      "logs": [
        {
          "address": "0x43961cA883FE3282E88dBbC8D50A2C53ec19CBD0",
          "topics": [
            "0x2f8788117e7eff1d82e926ec794901d17c78024a50270940304540a733656f0d",
            "0x9792fdc19ab98adfa72ab2fa98d342618c661e01c406979c105b31eda87f5e6f",
            "0x0000000000000000000000001c89357af4f15b351f1ba8a478d944dfa3f45715",
            "0x000000000000000000000000ee2e617a42aab5be36c290982493c6cc6c072982"
          ],
          "data": "0x",
          "blockHash": "0xa0779ffb3ae438f59f403c2ce128e5fbf9299463224248770f254050b74a1575",
          "blockNumber": "0x8f37f0",
          "transactionHash": "0x48333e2d8ec700cd8536293215edb24b2c610652426dd6bc7e8e8ecb7d1a69c1",
          "transactionIndex": "0x0",
          "logIndex": "0x0",
          "removed": false
        }
      ],
      "logsBloom": "0x00000004000000000000000000000000000000000100000000000010000000000000000000000000000000000000000000000000000000000000000000000000000000000000000000000000200000000000000000000000000000000000000000000000000000000020000000000000200000000000000000000000000000000800000000000000000000000000000000000000000000000000000000000020000002000000000080000000000000000000000400000000007000000000000000000000000000000000000000000000000000000000000100000000000000000000000000000000000000000000000000000000000000000000000000000000",
      "type": "0x2",
      "transactionHash": "0x48333e2d8ec700cd8536293215edb24b2c610652426dd6bc7e8e8ecb7d1a69c1",
      "transactionIndex": "0x0",
      "blockHash": "0xa0779ffb3ae438f59f403c2ce128e5fbf9299463224248770f254050b74a1575",
      "blockNumber": "0x8f37f0",
      "gasUsed": "0xe394",
      "effectiveGasPrice": "0x746a528801",
      "from": "0xee2e617a42Aab5be36c290982493C6CC6C072982",
      "to": "0x43961cA883FE3282E88dBbC8D50A2C53ec19CBD0",
      "contractAddress": null
    },
    {
      "status": "0x1",
      "cumulativeGasUsed": "0xe394",
      "logs": [
        {
          "address": "0x43961cA883FE3282E88dBbC8D50A2C53ec19CBD0",
          "topics": [
            "0x2f8788117e7eff1d82e926ec794901d17c78024a50270940304540a733656f0d",
            "0x9792fdc19ab98adfa72ab2fa98d342618c661e01c406979c105b31eda87f5e6f",
            "0x0000000000000000000000006ff2da7eb2df14db66f3f25a0ace6a28e5f15cd9",
            "0x000000000000000000000000ee2e617a42aab5be36c290982493c6cc6c072982"
          ],
          "data": "0x",
          "blockHash": "0xd4b42a524696288f427c6c1c28c124d4ffebd6203981a5647e26461a8e0ea46c",
          "blockNumber": "0x8f37f2",
          "transactionHash": "0x579602fc4c4fae57d4cee062bbd7934fbc9528586b9001fa2d4a0eaf2139edb6",
          "transactionIndex": "0x0",
          "logIndex": "0x0",
          "removed": false
        }
      ],
      "logsBloom": "0x00000004000000000000000000000000000000000000000000000000000000800000000000000000000000000000000000000000000000000000000000000000000000000000000000000000000000000000000000000000000000000000000000000000000000000020000000000100200000000000000000000000000000000800000000000000000000000000000000000000000000000000000000000020000003000000000080000000000000000000000400000000007000000000000000000000000000000000000000000000000000000000000100000000000000000000000000000000000000000000000000000000000000000000000000000000",
      "type": "0x2",
      "transactionHash": "0x579602fc4c4fae57d4cee062bbd7934fbc9528586b9001fa2d4a0eaf2139edb6",
      "transactionIndex": "0x0",
      "blockHash": "0xd4b42a524696288f427c6c1c28c124d4ffebd6203981a5647e26461a8e0ea46c",
      "blockNumber": "0x8f37f2",
      "gasUsed": "0xe394",
      "effectiveGasPrice": "0x746a528801",
      "from": "0xee2e617a42Aab5be36c290982493C6CC6C072982",
      "to": "0x43961cA883FE3282E88dBbC8D50A2C53ec19CBD0",
      "contractAddress": null
    },
    {
      "status": "0x1",
      "cumulativeGasUsed": "0x8bec",
      "logs": [],
      "logsBloom": "0x00000000000000000000000000000000000000000000000000000000000000000000000000000000000000000000000000000000000000000000000000000000000000000000000000000000000000000000000000000000000000000000000000000000000000000000000000000000000000000000000000000000000000000000000000000000000000000000000000000000000000000000000000000000000000000000000000000000000000000000000000000000000000000000000000000000000000000000000000000000000000000000000000000000000000000000000000000000000000000000000000000000000000000000000000000000",
      "type": "0x2",
      "transactionHash": "0xd94c68bfcaf708c92fb4266ad9fc8a3f516c432b922adeca70130b586c90d26c",
      "transactionIndex": "0x0",
      "blockHash": "0xc29c8d15ec57af8a757ef77763f481ec7af63641c2772da6605436b329fb862c",
      "blockNumber": "0x8f37f3",
      "gasUsed": "0x8bec",
      "effectiveGasPrice": "0x746a528801",
      "from": "0xee2e617a42Aab5be36c290982493C6CC6C072982",
      "to": "0x32f652E9Ce04F94Db1fC185B0c53B8107A05693D",
      "contractAddress": null
    },
    {
      "status": "0x1",
      "cumulativeGasUsed": "0x8bec",
      "logs": [],
      "logsBloom": "0x00000000000000000000000000000000000000000000000000000000000000000000000000000000000000000000000000000000000000000000000000000000000000000000000000000000000000000000000000000000000000000000000000000000000000000000000000000000000000000000000000000000000000000000000000000000000000000000000000000000000000000000000000000000000000000000000000000000000000000000000000000000000000000000000000000000000000000000000000000000000000000000000000000000000000000000000000000000000000000000000000000000000000000000000000000000",
      "type": "0x2",
      "transactionHash": "0xa2c9a3fd3ee98757007b54b0dc2f72c2ae88d7d52d395e7e5f0de350c19012d4",
      "transactionIndex": "0x0",
      "blockHash": "0xff0499a51b4f8edab634eeac0a97e1035080741ba4676d5411479381b0f55a0b",
      "blockNumber": "0x8f37f5",
      "gasUsed": "0x8bec",
      "effectiveGasPrice": "0x746a528801",
      "from": "0xee2e617a42Aab5be36c290982493C6CC6C072982",
      "to": "0x32f652E9Ce04F94Db1fC185B0c53B8107A05693D",
      "contractAddress": null
    },
    {
      "status": "0x1",
      "cumulativeGasUsed": "0x8bec",
      "logs": [],
      "logsBloom": "0x00000000000000000000000000000000000000000000000000000000000000000000000000000000000000000000000000000000000000000000000000000000000000000000000000000000000000000000000000000000000000000000000000000000000000000000000000000000000000000000000000000000000000000000000000000000000000000000000000000000000000000000000000000000000000000000000000000000000000000000000000000000000000000000000000000000000000000000000000000000000000000000000000000000000000000000000000000000000000000000000000000000000000000000000000000000",
      "type": "0x2",
      "transactionHash": "0xc0446f166926bbf5f225bba3788ddc916f04864ee45c2f2cc97bf086ad2e9858",
      "transactionIndex": "0x0",
      "blockHash": "0x513c12fb132ccb5da6a4ca52e97ca9f009024c2c7600bd2ef81a1376ee4e9656",
      "blockNumber": "0x8f37f6",
      "gasUsed": "0x8bec",
      "effectiveGasPrice": "0x746a528801",
      "from": "0xee2e617a42Aab5be36c290982493C6CC6C072982",
      "to": "0x32f652E9Ce04F94Db1fC185B0c53B8107A05693D",
      "contractAddress": null
    },
    {
      "status": "0x1",
      "cumulativeGasUsed": "0x3db2c",
      "logs": [
        {
          "address": "0x32f652E9Ce04F94Db1fC185B0c53B8107A05693D",
          "topics": [
            "0x01b043d7926a29446dc3d65941e5ef42247dc676bc6fcd937852d930ad52046b"
          ],
          "data": "0x0000000000000000000000000000000000000000000000000000000000000040000000000000000000000000000000000000000000000000000000000000000100000000000000000000000000000000000000000000000000000000000000306d7876616c6f70657231677a61357939346b616c323565617773656e6c35367468386b6479756a737a6d63737863677300000000000000000000000000000000",
          "blockHash": "0x09b9cc83cfb80f48cd8b6972e02b173f3ab48637abd6d309601c8a02c3665a05",
          "blockNumber": "0x8f37f8",
          "transactionHash": "0xdc6428ef42435b5e953261deabec1de5cd56aa800b2a7b01d2c2e710148c821d",
          "transactionIndex": "0x0",
          "logIndex": "0x0",
          "removed": false
        }
      ],
      "logsBloom": "0x00000008000000000000000000000000000000000000004000000000000000000000000000000000000000000000000000000000000000000000000000000000000000000000000000000200008000000000000000000000000000000000000000000000000000000000000000000000000000000000000000000000000000000000000000000000000000000000000000000000000000000000000000000000200000000000000000000000000000000000000000000000000000000000000000000004000000000000000000000000000000000000000000000000000000000000000000000000000000000000000000000000000000000000000000000000",
      "type": "0x2",
      "transactionHash": "0xdc6428ef42435b5e953261deabec1de5cd56aa800b2a7b01d2c2e710148c821d",
      "transactionIndex": "0x0",
      "blockHash": "0x09b9cc83cfb80f48cd8b6972e02b173f3ab48637abd6d309601c8a02c3665a05",
      "blockNumber": "0x8f37f8",
      "gasUsed": "0x3db2c",
      "effectiveGasPrice": "0x746a528801",
      "from": "0xee2e617a42Aab5be36c290982493C6CC6C072982",
      "to": "0x32f652E9Ce04F94Db1fC185B0c53B8107A05693D",
      "contractAddress": null
    },
    {
      "status": "0x1",
      "cumulativeGasUsed": "0x3988a",
      "logs": [
        {
          "address": "0x32f652E9Ce04F94Db1fC185B0c53B8107A05693D",
          "topics": [
            "0x01b043d7926a29446dc3d65941e5ef42247dc676bc6fcd937852d930ad52046b"
          ],
          "data": "0x0000000000000000000000000000000000000000000000000000000000000040000000000000000000000000000000000000000000000000000000000000000100000000000000000000000000000000000000000000000000000000000000306d7876616c6f706572316a70306d37796e777476726b6e7a6c6d647a6172676d6435396d68386e39676b68397966776d00000000000000000000000000000000",
          "blockHash": "0x01e9a9c31ad41aeb5eadc4915b0974d4d043ee76c9b1cbc08771348bdbf6528c",
          "blockNumber": "0x8f37f9",
          "transactionHash": "0x7814f6e4c12bf7b7c5cf0b04e2a5ffac6213500ec683f39982c61f4f24582ff7",
          "transactionIndex": "0x0",
          "logIndex": "0x0",
          "removed": false
        }
      ],
      "logsBloom": "0x00000008000000000000000000000000000000000000004000000000000000000000000000000000000000000000000000000000000000000000000000000000000000000000000000000200008000000000000000000000000000000000000000000000000000000000000000000000000000000000000000000000000000000000000000000000000000000000000000000000000000000000000000000000200000000000000000000000000000000000000000000000000000000000000000000004000000000000000000000000000000000000000000000000000000000000000000000000000000000000000000000000000000000000000000000000",
      "type": "0x2",
      "transactionHash": "0x7814f6e4c12bf7b7c5cf0b04e2a5ffac6213500ec683f39982c61f4f24582ff7",
      "transactionIndex": "0x0",
      "blockHash": "0x01e9a9c31ad41aeb5eadc4915b0974d4d043ee76c9b1cbc08771348bdbf6528c",
      "blockNumber": "0x8f37f9",
      "gasUsed": "0x3988a",
      "effectiveGasPrice": "0x746a528801",
      "from": "0xee2e617a42Aab5be36c290982493C6CC6C072982",
      "to": "0x32f652E9Ce04F94Db1fC185B0c53B8107A05693D",
      "contractAddress": null
    },
    {
      "status": "0x1",
      "cumulativeGasUsed": "0x39860",
      "logs": [
        {
          "address": "0x32f652E9Ce04F94Db1fC185B0c53B8107A05693D",
          "topics": [
            "0x01b043d7926a29446dc3d65941e5ef42247dc676bc6fcd937852d930ad52046b"
          ],
          "data": "0x0000000000000000000000000000000000000000000000000000000000000040000000000000000000000000000000000000000000000000000000000000000100000000000000000000000000000000000000000000000000000000000000306d7876616c6f7065723172667a613871666b7477793436756a72756e64747835733574683664713876666e777363703300000000000000000000000000000000",
          "blockHash": "0xcbc9441f3c38844a68c8fffe4d874731e3b7cda2969c18644b5ef6ac2d82656f",
          "blockNumber": "0x8f37fa",
          "transactionHash": "0x72b9794d1aacced0eb387272366cdf25f119a31b3f9dcc1d3113bdb5a73fafa2",
          "transactionIndex": "0x0",
          "logIndex": "0x0",
          "removed": false
        }
      ],
      "logsBloom": "0x00000008000000000000000000000000000000000000004000000000000000000000000000000000000000000000000000000000000000000000000000000000000000000000000000000200008000000000000000000000000000000000000000000000000000000000000000000000000000000000000000000000000000000000000000000000000000000000000000000000000000000000000000000000200000000000000000000000000000000000000000000000000000000000000000000004000000000000000000000000000000000000000000000000000000000000000000000000000000000000000000000000000000000000000000000000",
      "type": "0x2",
      "transactionHash": "0x72b9794d1aacced0eb387272366cdf25f119a31b3f9dcc1d3113bdb5a73fafa2",
      "transactionIndex": "0x0",
      "blockHash": "0xcbc9441f3c38844a68c8fffe4d874731e3b7cda2969c18644b5ef6ac2d82656f",
      "blockNumber": "0x8f37fa",
      "gasUsed": "0x39860",
      "effectiveGasPrice": "0x746a528801",
      "from": "0xee2e617a42Aab5be36c290982493C6CC6C072982",
      "to": "0x32f652E9Ce04F94Db1fC185B0c53B8107A05693D",
      "contractAddress": null
    },
    {
      "status": "0x1",
      "cumulativeGasUsed": "0x3978e",
      "logs": [
        {
          "address": "0x32f652E9Ce04F94Db1fC185B0c53B8107A05693D",
          "topics": [
            "0x01b043d7926a29446dc3d65941e5ef42247dc676bc6fcd937852d930ad52046b"
          ],
          "data": "0x0000000000000000000000000000000000000000000000000000000000000040000000000000000000000000000000000000000000000000000000000000000100000000000000000000000000000000000000000000000000000000000000306d7876616c6f7065723132773032337233766a6a6d686b386e7373397535396e7032326d6a736a38796b77726c78733700000000000000000000000000000000",
          "blockHash": "0x4295a6db94ea81d109503b077de454a08c4ff0dbd8506ddfcfc2ba490d26b87c",
          "blockNumber": "0x8f37fc",
          "transactionHash": "0x6f2a10339bf792f9e0f850e0307cbc0433a821bfc24dec8fcd0ae72fb7d4b0bd",
          "transactionIndex": "0x0",
          "logIndex": "0x0",
          "removed": false
        }
      ],
      "logsBloom": "0x00000008000000000000000000000000000000000000004000000000000000000000000000000000000000000000000000000000000000000000000000000000000000000000000000000200008000000000000000000000000000000000000000000000000000000000000000000000000000000000000000000000000000000000000000000000000000000000000000000000000000000000000000000000200000000000000000000000000000000000000000000000000000000000000000000004000000000000000000000000000000000000000000000000000000000000000000000000000000000000000000000000000000000000000000000000",
      "type": "0x2",
      "transactionHash": "0x6f2a10339bf792f9e0f850e0307cbc0433a821bfc24dec8fcd0ae72fb7d4b0bd",
      "transactionIndex": "0x0",
      "blockHash": "0x4295a6db94ea81d109503b077de454a08c4ff0dbd8506ddfcfc2ba490d26b87c",
      "blockNumber": "0x8f37fc",
      "gasUsed": "0x3978e",
      "effectiveGasPrice": "0x746a528801",
      "from": "0xee2e617a42Aab5be36c290982493C6CC6C072982",
      "to": "0x32f652E9Ce04F94Db1fC185B0c53B8107A05693D",
      "contractAddress": null
    },
    {
      "status": "0x1",
      "cumulativeGasUsed": "0x3980c",
      "logs": [
        {
          "address": "0x32f652E9Ce04F94Db1fC185B0c53B8107A05693D",
          "topics": [
            "0x01b043d7926a29446dc3d65941e5ef42247dc676bc6fcd937852d930ad52046b"
          ],
          "data": "0x0000000000000000000000000000000000000000000000000000000000000040000000000000000000000000000000000000000000000000000000000000000100000000000000000000000000000000000000000000000000000000000000306d7876616c6f706572317a677278396a6a7172667965387377796c636d727871336b393265396a3837327339616d717500000000000000000000000000000000",
          "blockHash": "0x153980be6c05cd28174887e62d1dc1cd07de6e4dc3a4a60efcee9abebbbc3617",
          "blockNumber": "0x8f37fd",
          "transactionHash": "0xebe89e99eac76671490ac380406e84d7626f047cb9bed1f95a1b4e72e39c7cb0",
          "transactionIndex": "0x0",
          "logIndex": "0x0",
          "removed": false
        }
      ],
      "logsBloom": "0x00000008000000000000000000000000000000000000004000000000000000000000000000000000000000000000000000000000000000000000000000000000000000000000000000000200008000000000000000000000000000000000000000000000000000000000000000000000000000000000000000000000000000000000000000000000000000000000000000000000000000000000000000000000200000000000000000000000000000000000000000000000000000000000000000000004000000000000000000000000000000000000000000000000000000000000000000000000000000000000000000000000000000000000000000000000",
      "type": "0x2",
      "transactionHash": "0xebe89e99eac76671490ac380406e84d7626f047cb9bed1f95a1b4e72e39c7cb0",
      "transactionIndex": "0x0",
      "blockHash": "0x153980be6c05cd28174887e62d1dc1cd07de6e4dc3a4a60efcee9abebbbc3617",
      "blockNumber": "0x8f37fd",
      "gasUsed": "0x3980c",
      "effectiveGasPrice": "0x746a528801",
      "from": "0xee2e617a42Aab5be36c290982493C6CC6C072982",
      "to": "0x32f652E9Ce04F94Db1fC185B0c53B8107A05693D",
      "contractAddress": null
    },
    {
      "status": "0x1",
      "cumulativeGasUsed": "0x3978e",
      "logs": [
        {
          "address": "0x32f652E9Ce04F94Db1fC185B0c53B8107A05693D",
          "topics": [
            "0x01b043d7926a29446dc3d65941e5ef42247dc676bc6fcd937852d930ad52046b"
          ],
          "data": "0x0000000000000000000000000000000000000000000000000000000000000040000000000000000000000000000000000000000000000000000000000000000100000000000000000000000000000000000000000000000000000000000000306d7876616c6f706572316b6a72356768307733687278773972376534706a7736767a356b797775706d37397435386e3400000000000000000000000000000000",
          "blockHash": "0x86b3032bb6bf86dfae86d4cd4d01e05718ef05d1ec60ba02e8a18ec2e558d774",
          "blockNumber": "0x8f37ff",
          "transactionHash": "0xba7fdb5874b6f1d54a23c362f1f30b7ad1df49007ea8323fcf70c166f271f2c3",
          "transactionIndex": "0x0",
          "logIndex": "0x0",
          "removed": false
        }
      ],
      "logsBloom": "0x00000008000000000000000000000000000000000000004000000000000000000000000000000000000000000000000000000000000000000000000000000000000000000000000000000200008000000000000000000000000000000000000000000000000000000000000000000000000000000000000000000000000000000000000000000000000000000000000000000000000000000000000000000000200000000000000000000000000000000000000000000000000000000000000000000004000000000000000000000000000000000000000000000000000000000000000000000000000000000000000000000000000000000000000000000000",
      "type": "0x2",
      "transactionHash": "0xba7fdb5874b6f1d54a23c362f1f30b7ad1df49007ea8323fcf70c166f271f2c3",
      "transactionIndex": "0x0",
      "blockHash": "0x86b3032bb6bf86dfae86d4cd4d01e05718ef05d1ec60ba02e8a18ec2e558d774",
      "blockNumber": "0x8f37ff",
      "gasUsed": "0x3978e",
      "effectiveGasPrice": "0x746a528801",
      "from": "0xee2e617a42Aab5be36c290982493C6CC6C072982",
      "to": "0x32f652E9Ce04F94Db1fC185B0c53B8107A05693D",
      "contractAddress": null
    },
    {
      "status": "0x1",
      "cumulativeGasUsed": "0x3980c",
      "logs": [
        {
          "address": "0x32f652E9Ce04F94Db1fC185B0c53B8107A05693D",
          "topics": [
            "0x01b043d7926a29446dc3d65941e5ef42247dc676bc6fcd937852d930ad52046b"
          ],
          "data": "0x0000000000000000000000000000000000000000000000000000000000000040000000000000000000000000000000000000000000000000000000000000000100000000000000000000000000000000000000000000000000000000000000306d7876616c6f706572316c7468737774646c33647a6b707071336565336b6e346a6d36646b786470373974387871363300000000000000000000000000000000",
          "blockHash": "0xb9bf979663e5b98a9844cb832b06831848f6e8481c63e3a07898d43e06e74113",
          "blockNumber": "0x8f3800",
          "transactionHash": "0x8d24eba9d1b6ee8bb2774f1135b111e45dfad374d4cd48f2e2c561883d73ad46",
          "transactionIndex": "0x0",
          "logIndex": "0x0",
          "removed": false
        }
      ],
      "logsBloom": "0x00000008000000000000000000000000000000000000004000000000000000000000000000000000000000000000000000000000000000000000000000000000000000000000000000000200008000000000000000000000000000000000000000000000000000000000000000000000000000000000000000000000000000000000000000000000000000000000000000000000000000000000000000000000200000000000000000000000000000000000000000000000000000000000000000000004000000000000000000000000000000000000000000000000000000000000000000000000000000000000000000000000000000000000000000000000",
      "type": "0x2",
      "transactionHash": "0x8d24eba9d1b6ee8bb2774f1135b111e45dfad374d4cd48f2e2c561883d73ad46",
      "transactionIndex": "0x0",
      "blockHash": "0xb9bf979663e5b98a9844cb832b06831848f6e8481c63e3a07898d43e06e74113",
      "blockNumber": "0x8f3800",
      "gasUsed": "0x3980c",
      "effectiveGasPrice": "0x746a528801",
      "from": "0xee2e617a42Aab5be36c290982493C6CC6C072982",
      "to": "0x32f652E9Ce04F94Db1fC185B0c53B8107A05693D",
      "contractAddress": null
    },
    {
      "status": "0x1",
      "cumulativeGasUsed": "0x3978e",
      "logs": [
        {
          "address": "0x32f652E9Ce04F94Db1fC185B0c53B8107A05693D",
          "topics": [
            "0x01b043d7926a29446dc3d65941e5ef42247dc676bc6fcd937852d930ad52046b"
          ],
          "data": "0x0000000000000000000000000000000000000000000000000000000000000040000000000000000000000000000000000000000000000000000000000000000100000000000000000000000000000000000000000000000000000000000000306d7876616c6f7065723177306d34386a367a656a6c3635707772743864386638386a64736a66706e653467377172356a00000000000000000000000000000000",
          "blockHash": "0xc0c24af4122121eb15802845a1a12818fa1d3052f9e376ec2fd25a74fa9648d7",
          "blockNumber": "0x8f3801",
          "transactionHash": "0x6b158e4ae58dc7ae1596eabeb0c594f04143f79a8129db6c74aca7e161b7dafd",
          "transactionIndex": "0x0",
          "logIndex": "0x0",
          "removed": false
        }
      ],
      "logsBloom": "0x00000008000000000000000000000000000000000000004000000000000000000000000000000000000000000000000000000000000000000000000000000000000000000000000000000200008000000000000000000000000000000000000000000000000000000000000000000000000000000000000000000000000000000000000000000000000000000000000000000000000000000000000000000000200000000000000000000000000000000000000000000000000000000000000000000004000000000000000000000000000000000000000000000000000000000000000000000000000000000000000000000000000000000000000000000000",
      "type": "0x2",
      "transactionHash": "0x6b158e4ae58dc7ae1596eabeb0c594f04143f79a8129db6c74aca7e161b7dafd",
      "transactionIndex": "0x0",
      "blockHash": "0xc0c24af4122121eb15802845a1a12818fa1d3052f9e376ec2fd25a74fa9648d7",
      "blockNumber": "0x8f3801",
      "gasUsed": "0x3978e",
      "effectiveGasPrice": "0x746a528801",
      "from": "0xee2e617a42Aab5be36c290982493C6CC6C072982",
      "to": "0x32f652E9Ce04F94Db1fC185B0c53B8107A05693D",
      "contractAddress": null
    },
    {
      "status": "0x1",
      "cumulativeGasUsed": "0x39710",
      "logs": [
        {
          "address": "0x32f652E9Ce04F94Db1fC185B0c53B8107A05693D",
          "topics": [
            "0x01b043d7926a29446dc3d65941e5ef42247dc676bc6fcd937852d930ad52046b"
          ],
          "data": "0x0000000000000000000000000000000000000000000000000000000000000040000000000000000000000000000000000000000000000000000000000000000100000000000000000000000000000000000000000000000000000000000000306d7876616c6f70657231716a343532667235633872353964747635756c6c6b653737366530377835706b36756d6c683400000000000000000000000000000000",
          "blockHash": "0xab7e4aae7d0f7c5675f3681c29b56f6abdf3fe3d33217118e998fb0076d29212",
          "blockNumber": "0x8f3803",
          "transactionHash": "0xba6e4f55e0e263b5f7c65ab975e14f01f75c813de316795b8766dcce23df8cf9",
          "transactionIndex": "0x0",
          "logIndex": "0x0",
          "removed": false
        }
      ],
      "logsBloom": "0x00000008000000000000000000000000000000000000004000000000000000000000000000000000000000000000000000000000000000000000000000000000000000000000000000000200008000000000000000000000000000000000000000000000000000000000000000000000000000000000000000000000000000000000000000000000000000000000000000000000000000000000000000000000200000000000000000000000000000000000000000000000000000000000000000000004000000000000000000000000000000000000000000000000000000000000000000000000000000000000000000000000000000000000000000000000",
      "type": "0x2",
      "transactionHash": "0xba6e4f55e0e263b5f7c65ab975e14f01f75c813de316795b8766dcce23df8cf9",
      "transactionIndex": "0x0",
      "blockHash": "0xab7e4aae7d0f7c5675f3681c29b56f6abdf3fe3d33217118e998fb0076d29212",
      "blockNumber": "0x8f3803",
      "gasUsed": "0x39710",
      "effectiveGasPrice": "0x746a528801",
      "from": "0xee2e617a42Aab5be36c290982493C6CC6C072982",
      "to": "0x32f652E9Ce04F94Db1fC185B0c53B8107A05693D",
      "contractAddress": null
    },
    {
      "status": "0x1",
      "cumulativeGasUsed": "0x3988a",
      "logs": [
        {
          "address": "0x32f652E9Ce04F94Db1fC185B0c53B8107A05693D",
          "topics": [
            "0x01b043d7926a29446dc3d65941e5ef42247dc676bc6fcd937852d930ad52046b"
          ],
          "data": "0x0000000000000000000000000000000000000000000000000000000000000040000000000000000000000000000000000000000000000000000000000000000100000000000000000000000000000000000000000000000000000000000000306d7876616c6f706572317773676d336a6c67637871377666746c647a3768666d7766677139386872756a39796a67723500000000000000000000000000000000",
          "blockHash": "0x33080ac3a54c789b18b56daf9192543879bde45b6106a760a5decc22abc77a6f",
          "blockNumber": "0x8f3804",
          "transactionHash": "0x5c291ec79d9e6419036908f19fdda57f63e6de3ad2d5b0780d9795c10ae3ea65",
          "transactionIndex": "0x0",
          "logIndex": "0x0",
          "removed": false
        }
      ],
      "logsBloom": "0x00000008000000000000000000000000000000000000004000000000000000000000000000000000000000000000000000000000000000000000000000000000000000000000000000000200008000000000000000000000000000000000000000000000000000000000000000000000000000000000000000000000000000000000000000000000000000000000000000000000000000000000000000000000200000000000000000000000000000000000000000000000000000000000000000000004000000000000000000000000000000000000000000000000000000000000000000000000000000000000000000000000000000000000000000000000",
      "type": "0x2",
      "transactionHash": "0x5c291ec79d9e6419036908f19fdda57f63e6de3ad2d5b0780d9795c10ae3ea65",
      "transactionIndex": "0x0",
      "blockHash": "0x33080ac3a54c789b18b56daf9192543879bde45b6106a760a5decc22abc77a6f",
      "blockNumber": "0x8f3804",
      "gasUsed": "0x3988a",
      "effectiveGasPrice": "0x746a528801",
      "from": "0xee2e617a42Aab5be36c290982493C6CC6C072982",
      "to": "0x32f652E9Ce04F94Db1fC185B0c53B8107A05693D",
      "contractAddress": null
    }
  ],
  "libraries": [],
  "pending": [],
  "returns": {},
  "timestamp": 1744209478,
  "chain": 4156,
  "commit": "084dfa1"
}