{
  "transactions": [
    {
      "hash": "0x3a031d472a181755adf65227248057257fe560837f9385fdeacd36d4107c423b",
      "transactionType": "CREATE",
      "contractName": "MockDIAOracle",
      "contractAddress": "0xC6569965a61BEdF4AfA97cBba177Dc7FB894ACB2",
      "function": null,
      "arguments": null,
      "transaction": {
        "from": "0xee2e617a42Aab5be36c290982493C6CC6C072982",
        "gas": "0x397ab",
        "value": "0x0",
        "input": "0x60808060405234601557610250908161001b8239f35b600080fdfe6080604052600436101561001257600080fd5b60003560e01c8063960384a0146100cb5763e74254a71461003257600080fd5b346100c65760403660031901126100c65760043567ffffffffffffffff81116100c657610063903690600401610129565b602435906001600160801b03821682036100c6576100a2916001600160801b0361008c836101a8565b91166001600160801b03198254161790556101e1565b80546fffffffffffffffffffffffffffffffff1916426001600160801b0316179055005b600080fd5b346100c65760203660031901126100c65760043567ffffffffffffffff81116100c6576100fe6040913690600401610129565b6001600160801b0361011b81610113846101a8565b5416926101e1565b541682519182526020820152f35b81601f820112156100c65780359067ffffffffffffffff82116101925760405192601f8301601f19908116603f0116840167ffffffffffffffff81118582101761019257604052828452602083830101116100c657816000926020809301838601378301015290565b634e487b7160e01b600052604160045260246000fd5b604051908181519160005b8381106101cc5750506020918101600081520301902090565b602082820181015186830152859350016101b3565b604051908181519160005b8381106102055750506020918101600181520301902090565b602082820181015186830152859350016101ec56fea2646970667358221220e10ecfb446ba2f434685d8b8c842637b16404bb50b47fe5776dbbc5b5051fb2764736f6c634300081a0033",
        "nonce": "0x1b5",
        "chainId": "0x103c"
      },
      "additionalContracts": [],
      "isFixedGasLimit": false
    },
    {
      "hash": "0xb34a3898f4998337a52d61d7b7bcd43451d0f82714cd51625aa794fa4e367c41",
      "transactionType": "CALL",
      "contractName": "MockDIAOracle",
      "contractAddress": "0xC6569965a61BEdF4AfA97cBba177Dc7FB894ACB2",
      "function": "setPrice(string,uint128)",
      "arguments": [
        "XFI/USD",
        "90000000"
      ],
      "transaction": {
        "from": "0xee2e617a42Aab5be36c290982493C6CC6C072982",
        "to": "0xC6569965a61BEdF4AfA97cBba177Dc7FB894ACB2",
        "gas": "0x1697c",
        "value": "0x0",
        "input": "0xe74254a7000000000000000000000000000000000000000000000000000000000000004000000000000000000000000000000000000000000000000000000000055d4a8000000000000000000000000000000000000000000000000000000000000000075846492f55534400000000000000000000000000000000000000000000000000",
        "nonce": "0x1b6",
        "chainId": "0x103c"
      },
      "additionalContracts": [],
      "isFixedGasLimit": false
    },
    {
      "hash": "0xa15cb14782932079c19823f367a4d47cf3c595d91d6d70a6273fa32c6f6ce337",
      "transactionType": "CREATE",
      "contractName": "UnifiedOracle",
      "contractAddress": "0x938c6e70A863621Dc63124043A86F954F65f0174",
      "function": null,
      "arguments": null,
      "transaction": {
        "from": "0xee2e617a42Aab5be36c290982493C6CC6C072982",
        "gas": "0x132a03",
        "value": "0x0",
        "input": "0x60808060405234601557611085908161001b8239f35b600080fdfe608080604052600436101561001357600080fd5b60003560e01c90816301ffc9a7146107dc575080631732d330146107a157806322e0119214610703578063248a9ca3146106d65780632f2ff15d1461061657806336568abe14610584578063524f3889146105485780635c975abb1461052557806391d14854146104d8578063a217fddf146104bc578063a28ff72d1461049e578063c4d66de8146101cf578063d547741f14610188578063e7bb654d14610161578063e91b10fa146100fa5763ff138439146100cf57600080fd5b346100f55760203660031901126100f55760206100ed600435610b5a565b604051908152f35b600080fd5b346100f55760203660031901126100f557600435610116610bc1565b610121811515610873565b8060ca557f159e83f4712ba2552e68be9d848e49bf6dd35c24f19564ffd523b6549450a2f4602060036040516209aa0b60eb1b81522092604051908152a2005b346100f55760003660031901126100f557604061017c610a07565b82519182526020820152f35b346100f55760403660031901126100f5576101cd6004356101a761085d565b906101c86101c382600052606560205260016040600020015490565b610cef565b610d33565b005b346100f55760203660031901126100f5576004356001600160a01b038116908190036100f5576000549060ff8260081c161591828093610491575b801561047a575b1561041e5760ff1981166001176000558261040c575b5061024b60ff60005460081c1661023d81610db9565b61024681610db9565b610db9565b6097805460ff1916905560c980546001600160a01b0319169190911790553360009081527fffdfc1249c027f9191656349feb0761381bb32c9f557e01f419fd08754bf5a1b602052604090205460ff16156103a8575b3360009081527f195b802817a72f18b673de6eed587139bc84fcc6a3cb962019b5b3d2f73bf0fd602052604090205460ff1615610322575b668e1bc9bf04000060ca556102ea57005b61ff0019600054166000557f7f26b83ff96e1f2b6a682f133852f6798a09c465da95921460cefb3847402498602060405160018152a1005b3360008181527f195b802817a72f18b673de6eed587139bc84fcc6a3cb962019b5b3d2f73bf0fd60205260408120805460ff1916600117905581907f9792fdc19ab98adfa72ab2fa98d342618c661e01c406979c105b31eda87f5e6f907f2f8788117e7eff1d82e926ec794901d17c78024a50270940304540a733656f0d9080a46102d9565b3360008181527fffdfc1249c027f9191656349feb0761381bb32c9f557e01f419fd08754bf5a1b60205260408120805460ff1916600117905581907f2f8788117e7eff1d82e926ec794901d17c78024a50270940304540a733656f0d8180a46102a1565b61ffff19166101011760005582610227565b60405162461bcd60e51b815260206004820152602e60248201527f496e697469616c697a61626c653a20636f6e747261637420697320616c72656160448201526d191e481a5b9a5d1a585b1a5e995960921b6064820152608490fd5b50303b1580156102115750600160ff821614610211565b50600160ff82161061020a565b346100f55760003660031901126100f557602060ca54604051908152f35b346100f55760003660031901126100f557602060405160008152f35b346100f55760403660031901126100f5576104f161085d565b600435600052606560205260406000209060018060a01b0316600052602052602060ff604060002054166040519015158152f35b346100f55760003660031901126100f557602060ff609754166040519015158152f35b346100f55760203660031901126100f55760043567ffffffffffffffff81116100f5576100ed61057e602092369060040161082f565b9061093a565b346100f55760403660031901126100f55761059d61085d565b336001600160a01b038216036105b9576101cd90600435610d33565b60405162461bcd60e51b815260206004820152602f60248201527f416363657373436f6e74726f6c3a2063616e206f6e6c792072656e6f756e636560448201526e103937b632b9903337b91039b2b63360891b6064820152608490fd5b346100f55760403660031901126100f55760043561063261085d565b9061064e6101c382600052606560205260016040600020015490565b806000526065602052604060002060018060a01b03831660005260205260ff604060002054161561067b57005b60008181526065602090815260408083206001600160a01b0395909516808452949091528120805460ff19166001179055339291907f2f8788117e7eff1d82e926ec794901d17c78024a50270940304540a733656f0d9080a4005b346100f55760203660031901126100f55760206100ed600435600052606560205260016040600020015490565b346100f55760403660031901126100f55760043567ffffffffffffffff81116100f5577f159e83f4712ba2552e68be9d848e49bf6dd35c24f19564ffd523b6549450a2f4610757602092369060040161082f565b6024359391610764610bc1565b61076f851515610873565b8460405183838237848185810160cb8152030190205581604051928392833781016000815203902092604051908152a2005b346100f55760003660031901126100f55760206040517f9792fdc19ab98adfa72ab2fa98d342618c661e01c406979c105b31eda87f5e6f8152f35b346100f55760203660031901126100f5576004359063ffffffff60e01b82168092036100f557602091637965db0b60e01b811490811561081e575b5015158152f35b6301ffc9a760e01b14905083610817565b9181601f840112156100f55782359167ffffffffffffffff83116100f557602083818601950101116100f557565b602435906001600160a01b03821682036100f557565b1561087a57565b60405162461bcd60e51b815260206004820152600d60248201526c496e76616c696420707269636560981b6044820152606490fd5b90601f8019910116810190811067ffffffffffffffff8211176108d157604052565b634e487b7160e01b600052604160045260246000fd5b67ffffffffffffffff81116108d157601f01601f191660200190565b92919261090f826108e7565b9161091d60405193846108af565b8294818452818301116100f5578281602093846000960137010152565b90610946368284610903565b602081519101209160409260036020855161096187826108af565b828152016209aa0b60eb1b815220146109ea5761097f913691610903565b6020815191012060036020835161099685826108af565b828152016258464960e81b815220146109dd575162461bcd60e51b815260206004820152600e60248201526d155b9adb9bdddb881cde5b589bdb60921b6044820152606490fd5b506109e6610a07565b5090565b50505060ca5490565b51906001600160801b03821682036100f557565b60c954604080516304b01c2560e51b81526020600482015260076024820152661611924bd554d160ca1b60448201529291839060649082906001600160a01b03165afa918215610b4e57600090600093610afe575b506001600160801b03168015801580610ae0575b15610ab0576402540be40082029182046402540be400141715610a9a57916001600160801b031690565b634e487b7160e01b600052601160045260246000fd5b50506040516258464960e81b815260cb600382015260239020549091508015610ad857904290565b506000908190565b506001600160801b0384164203428111610a9a57610e101015610a70565b9250506040823d604011610b46575b81610b1a604093836108af565b810103126100f5576001600160801b03610b3f6020610b38856109f3565b94016109f3565b9290610a5c565b3d9150610b0d565b6040513d6000823e3d90fd5b8015808015610bb7575b610bb057610b70610a07565b508015610ba857808302928304141715610a9a5760ca54908115610b92570490565b634e487b7160e01b600052601260045260246000fd5b505050600090565b5050600090565b5060ca5415610b64565b3360009081527f195b802817a72f18b673de6eed587139bc84fcc6a3cb962019b5b3d2f73bf0fd602052604090205460ff1615610bfa57565b610ce160446037610c0a33610e63565b610cb96011610c387f9792fdc19ab98adfa72ab2fa98d342618c661e01c406979c105b31eda87f5e6f610fa3565b60405194859160208301957f416363657373436f6e74726f6c3a206163636f756e74200000000000000000008752610c798151809260208688019101610e19565b83017001034b99036b4b9b9b4b733903937b6329607d1b83820152610ca8825180936020604885019101610e19565b01010301601f1981018452836108af565b60405193849262461bcd60e51b84526020600485015251809281602486015285850190610e19565b601f01601f19168101030190fd5b600081815260656020908152604080832033845290915290205460ff1615610d145750565b60446037610ce192610cb96011610c38610d2d33610e63565b93610fa3565b806000526065602052604060002060018060a01b03831660005260205260ff60406000205416610d61575050565b60008181526065602090815260408083206001600160a01b0395909516808452949091528120805460ff19169055339291907ff6391f5c32d9c69d2a47ea670b442974b53935d1edc7fd64eb21e047a839171b9080a4565b15610dc057565b60405162461bcd60e51b815260206004820152602b60248201527f496e697469616c697a61626c653a20636f6e7472616374206973206e6f74206960448201526a6e697469616c697a696e6760a81b6064820152608490fd5b60005b838110610e2c5750506000910152565b8181015183820152602001610e1c565b908151811015610e4d570160200190565b634e487b7160e01b600052603260045260246000fd5b600090610e70602a6108e7565b91610e7e60405193846108af565b602a8352610e8c602a6108e7565b6020840190601f1901368237835115610f8f5760309053825160011015610f7b576078602184015350602960005b60018211610f0f575050610ecb5790565b606460405162461bcd60e51b815260206004820152602060248201527f537472696e67733a20686578206c656e67746820696e73756666696369656e746044820152fd5b9091600f81166010811015610f67576f181899199a1a9b1b9c1cb0b131b232b360811b901a610f3e8486610e3c565b5360041c918015610f53576000190190610eba565b634e487b7160e01b82526011600452602482fd5b634e487b7160e01b83526032600452602483fd5b634e487b7160e01b81526032600452602490fd5b634e487b7160e01b82526032600452602482fd5b600090610fb060426108e7565b91610fbe60405193846108af565b60428352610fcc60426108e7565b6020840190601f1901368237835115610f8f5760309053825160011015610f7b576078602184015350604160005b6001821161100b575050610ecb5790565b9091600f81166010811015610f67576f181899199a1a9b1b9c1cb0b131b232b360811b901a61103a8486610e3c565b5360041c918015610f53576000190190610ffa56fea2646970667358221220f141e57a851a2da48ccae30722dcbcacc172a2c14ddf5c66656b6b3c88e4d60764736f6c634300081a0033",
        "nonce": "0x1b7",
        "chainId": "0x103c"
      },
      "additionalContracts": [],
      "isFixedGasLimit": false
    },
    {
      "hash": "0x5358e6ece2a188ac5f5941c0893dbee8b1e41a0a6dcd1c58311a20e507c0dc4a",
      "transactionType": "CREATE",
      "contractName": "NativeStaking",
      "contractAddress": "0x8de80F7B0A4Df74bF30Fd26494cb712f052b0748",
      "function": null,
      "arguments": null,
      "transaction": {
        "from": "0xee2e617a42Aab5be36c290982493C6CC6C072982",
        "gas": "0x47f154",
        "value": "0x0",
        "input": "0x608080604052346015576140a0908161001b8239f35b600080fdfe608080604052600436101561001d575b50361561001b57600080fd5b005b60003560e01c908162c4e69a14612c075750806301ffc9a714612bb15780630d29fcd414612b8f578063139b76bf14612b6d57806322477cab14612b4e578063248a9ca314612b19578063268b32371461293157806327ff88fc14612853578063295311d0146128345780632bcce425146125fe5780632f2ff15d1461253e57806336568abe146124ac5780633765cf021461248d57806337ce51ae1461246757806345f217721461241557806346f45b8d1461218e5780634e3266e31461209d578063549dfc1014611d645780635c975abb14611d415780636e2f169614611d065780637071688a14611ce85780637571836614611cbf5780637adbf97314611c345780637e75012c1461199f578063833b1fce146119765780638a9e64e21461189c5780638fa111a5146117f157806391d14854146117a457806393f4bcde14611710578063972c8ffa146116bf5780639a90a8e1146115a3578063a217fddf14611587578063a428142b146114b8578063aa2bbdee1461104f578063b7ab4db514610e44578063ba5e745e14610e04578063c350a1b514610ad7578063d0898c1814610ab5578063d547741f14610a70578063d8f309c114610a1e578063dee95d1b14610856578063e278298414610641578063ec87621c14610606578063f07fc224146105e4578063f5b541a6146105a9578063f999c5061461054f578063f9e21eb9146104015763ffb2925914610239573861000f565b346103fc5760203660031901126103fc576004356001600160401b0381116103fc57610269903690600401612c4f565b610271613686565b61028c610287610282368486612e0e565b6136ff565b612e45565b6102ba6102b36102ad6102a86102a3368688612e0e565b613851565b612e88565b54612ed4565b1515612f0e565b6102fc60016102e46102d06102a3368688612e0e565b3360005260fe602052604060002090612eae565b6102f081541515613048565b01546101045490613025565b42106103a857610332916102a39161032b60ff60026103226102d06102a3368789612e0e565b01541615613085565b3691612e0e565b3360005260fe602052610349604060002082612eae565b503360005261010160205261036660ff60406000205416156130d1565b7fc050fbdb05cfd3e20d6db3bc0238b5f13b18af81d8918f8165466c830d350b9f604051602081528061039e33946020830190612ce2565b0390a2600160c955005b60405162461bcd60e51b815260206004820152602660248201527f54696d652073696e6365207374616b696e6720746f6f2073686f727420666f7260448201526520636c61696d60d01b6064820152608490fd5b600080fd5b346103fc576104786104806102a36102a361041b36612d50565b96929093916104286134be565b610439610287610282368486612e0e565b61044a610287610282368b89612e0e565b6104616102b36102ad6102a86102a3368688612e0e565b61032b6102b36102ad6102a86102a3368d8b612e0e565b933691612e0e565b8151906020830191822090602081519101201461050b577f39e458def3bf0983040e315a8d9c531d029de4d0bf4035a72c9c8d44367e943e9160016104d560206104ff94604051809381928751928391612cbf565b810160fc81520301902001600260ff19825416179055604051918291604083526040830190612ce2565b600260208301520390a1005b606460405162461bcd60e51b815260206004820152602060248201527f43616e6e6f74206d69677261746520746f2073616d652076616c696461746f726044820152fd5b346103fc5760003660031901126103fc576105686134be565b610570613ad6565b600160ff1960975416176097557f62e78cea01bee320cd4e420270b5ea74000d11b0c9f74754ebdbfc544b05a2586020604051338152a1005b346103fc5760003660031901126103fc5760206040517f97667070c54ef182b0f5858b034beac1b6f3089aa2d3188bb1e8929f4fa9b9298152f35b346103fc5760203660031901126103fc576105fd6134be565b60043561010455005b346103fc5760003660031901126103fc5760206040517f241ecf16d79d0f8dbfb92cbc07fe17840425976cf0667f022fe9877caa831b088152f35b346103fc5760403660031901126103fc576004356001600160401b0381116103fc57610671903690600401612c4f565b9060243590811515928383036103fc576106896134be565b61069a610287610282368486612e0e565b6106b86040518284823760208184810160fc81520301902054612ed4565b610811576106cb916102a3913691612e0e565b901561080a5760015b604051906106e182612d9c565b8282526106f26020830191826134b2565b60408201906000825260608301906000825261072e604051602081885161071c8183858d01612cbf565b810160fc815203019020945185613226565b519160038310156107f45761074860039360018601613475565b5160028401555191015560fd54600160401b8110156107de57806001610773920160fd5560fd61319a565b9190916107c8577f01b043d7926a29446dc3d65941e5ef42247dc676bc6fcd937852d930ad52046b926107a9826107bd94613226565b604051928392604084526040840190612ce2565b9060208301520390a1005b634e487b7160e01b600052600060045260246000fd5b634e487b7160e01b600052604160045260246000fd5b634e487b7160e01b600052602160045260246000fd5b60006106d4565b60405162461bcd60e51b815260206004820152601860248201527f56616c696461746f7220616c72656164792065786973747300000000000000006044820152606490fd5b346103fc5760603660031901126103fc5761086f612c23565b6024356001600160401b0381116103fc576102a36108f36108b57f4f42c0af756b4e2949089b1b493aca69bfaa0be0f67f849195bbdd56a64bb821933690600401612c4f565b9290604435936108c36135d3565b6108cb613686565b6108dc610287610282368486612e0e565b61032b6102b36102ad6102a86102a3368688612e0e565b6109b660008080808660018060a01b038a16998a835260fe6020528761091c6040852082612eae565b60028101805461092e60ff82166133e5565b61094586845461094082821015613429565b6133cb565b835560ff19169055846004820155600260405160208181865196019561096c818389612cbf565b810160fc815203019020016109828582546133cb565b905554156109dd575b508a8352610100602052604083206109a48382546133cb565b90555af16109b0612f9b565b50612fcb565b60fb5461039e906109d19084906001600160a01b0316613911565b6040519384938461311d565b6109f760206003928b604051938492839251928391612cbf565b810160fc81520301902001610a0c81546133d8565b9055610a188882613c89565b8b61098b565b346103fc57602060ff6002610a636102a3610a45610a3b36612c7c565b9391933691612e0e565b6001600160a01b03909116600090815260fe86526040902090612eae565b0154166040519015158152f35b346103fc5760403660031901126103fc5761001b600435610a8f612c39565b90610ab0610aab82600052606560205260016040600020015490565b613646565b613a50565b346103fc5760203660031901126103fc57610ace6134be565b60043561010355005b346103fc5760603660031901126103fc57610af0612c23565b6044356001600160a01b038116908190036103fc576000549160ff8360081c161592838094610df7575b8015610de0575b15610d845760ff19811660011760005583610d72575b50610b7760ff60005460081c16610b4d81613da3565b610b5681613da3565b610b5f81613da3565b60ff1960975416609755610b7281613da3565b613da3565b600160c9556001600160a01b03811660009081527fffdfc1249c027f9191656349feb0761381bb32c9f557e01f419fd08754bf5a1b602052604090205460ff1615610d04575b6001600160a01b03811660009081527fcee91eb23e767f0f440dd9fce5554f355614443931e9ac5ce78c67b9e06e6f70602052604090205460ff1615610c74575b50602435610106556bffffffffffffffffffffffff60a01b60fb54161760fb55620151806101025562015180610103556201518061010455610c3c57005b61ff0019600054166000557f7f26b83ff96e1f2b6a682f133852f6798a09c465da95921460cefb3847402498602060405160018152a1005b6001600160a01b031660008181527fcee91eb23e767f0f440dd9fce5554f355614443931e9ac5ce78c67b9e06e6f7060205260408120805460ff191660011790553391907f241ecf16d79d0f8dbfb92cbc07fe17840425976cf0667f022fe9877caa831b08907f2f8788117e7eff1d82e926ec794901d17c78024a50270940304540a733656f0d9080a482610bfe565b6001600160a01b03811660008181527fffdfc1249c027f9191656349feb0761381bb32c9f557e01f419fd08754bf5a1b60205260408120805460ff191660011790553391907f2f8788117e7eff1d82e926ec794901d17c78024a50270940304540a733656f0d8180a4610bbd565b61ffff19166101011760005583610b37565b60405162461bcd60e51b815260206004820152602e60248201527f496e697469616c697a61626c653a20636f6e747261637420697320616c72656160448201526d191e481a5b9a5d1a585b1a5e995960921b6064820152608490fd5b50303b158015610b215750600160ff821614610b21565b50600160ff821610610b1a565b346103fc5760203660031901126103fc576001600160a01b03610e25612c23565b16600052610101602052602060ff604060002054166040519015158152f35b346103fc5760003660031901126103fc5760fd54610e618161331d565b90610e6f6040519283612dd2565b808252601f19610e7e8261331d565b0160005b81811061103857505060fd5460005b828110610f0057836040518091602082016020835281518091526040830190602060408260051b8601019301916000905b828210610ed157505050500390f35b91936001919395506020610ef08192603f198a82030186528851612d14565b9601920192018594939192610ec2565b6000828210156110245760fd90526040517f9346ac6dd7de6b96975fec380d4d994c4c12e6a8897544f22915316cc6cca280820180546000918290610f4483612ed4565b92600181169081156110095750600114610fd5575b505050906020818360fc600196955203019020600360405191610f7b83612d9c565b604051610f9381610f8c8185613334565b0382612dd2565b8352610fa860ff8683015416602085016134b2565b6002810154604084015201546060820152610fc382876133b7565b52610fce81866133b7565b5001610e91565b908092935052602081205b828210610ff557505081016020826001610f59565b600181602092548487015201910190610fe0565b60ff1916865250505080151502820190506020826001610f59565b634e487b7160e01b81526032600452602490fd5b60209061104361348d565b82828701015201610e82565b346103fc5761105d36612d50565b9290611067613686565b611078610287610282368686612e0e565b611089610287610282368785612e0e565b6110a06102b36102ad6102a86102a3368888612e0e565b60ff60016110f660206110b76102a3368a88612e0e565b604051906110e56102b38251938581818601966110d581838a612cbf565b810160fc81520301902054612ed4565b604051938492839251928391612cbf565b810160fc8152030190200154169260038410156107f4576102a36102a39361047892611127600161113f981461313f565b61032b60ff60026103226102d06102a3368789612e0e565b906040519060ff60018251936020818186019661115d81838a612cbf565b810160fc81520301902001541660038110156107f457600203611467576040519260ff60018251956020818186019861119781838c612cbf565b810160fc81520301902001541660038110156107f457600103611423573360005260fe6020526111cb604060002083612eae565b80549485156113e85760028201916111e760ff84541615612f5a565b6001810192835442111561138f576000809460036112c160207fe247094e40ceb45679130e19d4d25d684ad00deb82ee6590c5e3c846646c932e9b8d6112ad60028e879c8f338c5260fe885261124060408d2082612eae565b80549061124d8883613025565b8155600142910155846040518a81855161126881838a612cbf565b810160fc8152030190200161127e888254613025565b905515611347575b50508560405180925161129a81838a612cbf565b810160fc815203019020019182546133cb565b90558b604051938492839251928391612cbf565b810160fc815203019020016112d681546133d8565b90556112e28833613c89565b81845555805460ff19169055015560fb5461132f9061130b9086906001600160a01b0316613911565b9161132160405194608086526080860190612ce2565b908482036020860152612ce2565b93604083015260608201528033930390a2600160c955005b896113618961138894604051809381928751928391612cbf565b810160fc81520301902001611376815461318b565b9055338c5260ff885260408c206132f0565b388f611286565b60405162461bcd60e51b815260206004820152602b60248201527f43616e6e6f74206d69677261746520696e207468652073616d6520626c6f636b60448201526a206173207374616b696e6760a81b6064820152608490fd5b60405162461bcd60e51b81526020600482015260136024820152724e6f207374616b6520746f206d69677261746560681b6044820152606490fd5b606460405162461bcd60e51b815260206004820152602060248201527f5461726765742076616c696461746f72206d75737420626520656e61626c65646044820152fd5b60405162461bcd60e51b815260206004820152602360248201527f536f757263652076616c696461746f72206d75737420626520646570726563616044820152621d195960ea1b6064820152608490fd5b346103fc5760a061151d6102a36115026114d136612c7c565b600060806040969496516114e481612db7565b82815282602082015282604082015282606082015201523691612e0e565b90600180851b031660005260fe602052604060002090612eae565b60405161152981612db7565b81549182825260018101546020830190815260ff600283015416906040840191151582526080600460038501549460608701958652015494019384526040519485525160208501525115156040840152516060830152516080820152f35b346103fc5760003660031901126103fc57602060405160008152f35b346103fc5760003660031901126103fc576115bc613686565b3360005261010060205260406000205415611683573360005261010160205260ff6040600020541661162f57336000526101016020526040600020600160ff19825416179055337f94a24a12ee2237e49085823ea498014eb282565d32725255191fa29e7aae301b600080a2600160c955005b60405162461bcd60e51b815260206004820152602660248201527f456d657267656e6379207769746864726177616c20616c7265616479207265716044820152651d595cdd195960d21b6064820152608490fd5b60405162461bcd60e51b81526020600482015260146024820152734e6f2066756e647320746f20776974686472617760601b6044820152606490fd5b346103fc5760203660031901126103fc576004356001600160401b0381116103fc5760ff60016116fe6102a86102a361032b6020963690600401612c4f565b01541661170e6040518092612d07565bf35b346103fc5760003660031901126103fc576117296134be565b60975460ff8116156117685760ff19166097557f5db9ee0a495bf2e6ff9c91a7834c1ba4fdd244a5e8aa4e537bd38aeae4b073aa6020604051338152a1005b60405162461bcd60e51b815260206004820152601460248201527314185d5cd8589b194e881b9bdd081c185d5cd95960621b6044820152606490fd5b346103fc5760403660031901126103fc576117bd612c39565b600435600052606560205260406000209060018060a01b0316600052602052602060ff604060002054166040519015158152f35b346103fc5760203660031901126103fc576004356001600160401b0381116103fc5761183d6102a86102a361182d611898943690600401612c4f565b61183561348d565b503691612e0e565b60036040519161184c83612d9c565b60405161185d81610f8c8185613334565b835261187360ff600183015416602085016134b2565b6002810154604084015201546060820152604051918291602083526020830190612d14565b0390f35b346103fc5760403660031901126103fc576004356001600160401b0381116103fc576118cc903690600401612c4f565b60243560038110156103fc577f39e458def3bf0983040e315a8d9c531d029de4d0bf4035a72c9c8d44367e943e92826119676060936119096134be565b6119206102b36102ad6102a86102a336888a612e0e565b6119418160016040518688823760208188810160fc81520301902001613475565b604051958694604086528160408701528686013760008584860101526020840190612d07565b601f01601f19168101030190a1005b346103fc5760003660031901126103fc5760fb546040516001600160a01b039091168152602090f35b346103fc5760803660031901126103fc576119b8612c23565b602435906001600160401b0382116103fc576119db6102a3923690600401612c4f565b92906119f2604435928392606435966108c36135d3565b928360018060a01b038216958660005260fe602052611a15604060002083612eae565b906002820190611a2860ff8354166133e5565b611a358684541015613429565b80611b8b575b509360009493859493838695611a53858897546133cb565b825560ff1981541690558460038201558460048201556002604051602081818651960195611a82818389612cbf565b810160fc81520301902001611a988582546133cb565b90555415611b4a575b5088835261010060205260408320611aba8382546133cb565b90555af1611ac6612f9b565b5015611b05577f4f42c0af756b4e2949089b1b493aca69bfaa0be0f67f849195bbdd56a64bb8219161039e6109d18360018060a01b0360fb5416613911565b60405162461bcd60e51b815260206004820152601760248201527f556e7374616b65207472616e73666572206661696c65640000000000000000006044820152606490fd5b611b6460206003928b604051938492839251928391612cbf565b810160fc81520301902001611b7981546133d8565b9055611b858882613c89565b89611aa1565b92509350600080808085875af1611ba0612f9b565b5015611bf6578460009493878695938695948b7fa22c130ab9525575739c5b8856b4345b50ef04582844399f49949042eb410f00611be689986040519182918883613009565b0390a29397509350935093611a3b565b60405162461bcd60e51b815260206004820152601660248201527514995dd85c99081d1c985b9cd9995c8819985a5b195960521b6044820152606490fd5b346103fc5760203660031901126103fc57611c4d612c23565b611c556134be565b6001600160a01b03168015611c81576bffffffffffffffffffffffff60a01b60fb54161760fb55600080f35b60405162461bcd60e51b8152602060048201526016602482015275496e76616c6964206f7261636c65206164647265737360501b6044820152606490fd5b346103fc5760003660031901126103fc57611cd86134be565b610105805460ff19166001179055005b346103fc5760003660031901126103fc57602060fd54604051908152f35b346103fc5760203660031901126103fc576001600160a01b03611d27612c23565b166000526101006020526020604060002054604051908152f35b346103fc5760003660031901126103fc57602060ff609754166040519015158152f35b346103fc5760403660031901126103fc57611d7d612c23565b60243590611d896135d3565b611d91613686565b6001600160a01b0381166000818152610101602052604090205490929060ff161561204e5780151580612035575b15611fff5782600052610101602052604060002060ff1981541690558260005260ff6020526040600020908154611df58161331d565b92611e036040519485612dd2565b818452602084019060005260206000206000915b838310611fda575050505060005b8251811015611ed65780611e3b600192856133b7565b518660005260fe602052611e53604060002082612eae565b80549081611e65575b50505001611e25565b6003611ea16020829460009660405191611e8e600283519486818187019761129a81838b612cbf565b9055604051938492839251928391612cbf565b810160fc81520301902001611eb681546133d8565b905582815582858201556002810160ff1981541690550155868080611e5c565b8482858260005260ff60205260406000208054906000815581611f64575b847f684a52a0e971d0f5abbdd93bc699d8abec05d959da3301e591004d8401a85ecd604086611f3b6000808080858c8a835261010060205282898120555af16109b0612f9b565b60fb54611f529082906001600160a01b0316613911565b82519182526020820152a2600160c955005b6000526020600020908101905b81811015611ef457600190611f868154612ed4565b80611f93575b5001611f71565b601f81118314611fa95750600081555b86611f8c565b611fc7908260005283601f6020600020920160051c820191016131c8565b8060005260006020812081835555611fa3565b600160208192604051611ff181610f8c8189613334565b815201920192019190611e17565b60405162461bcd60e51b815260206004820152600e60248201526d125b9d985b1a5908185b5bdd5b9d60921b6044820152606490fd5b5082600052610100602052604060002054811115611dbf565b60405162461bcd60e51b815260206004820152602160248201527f4e6f20656d657267656e6379207769746864726177616c2072657175657374656044820152601960fa1b6064820152608490fd5b346103fc5760203660031901126103fc576001600160a01b036120be612c23565b1660005260ff60205260406000208054906120d88261331d565b916120e66040519384612dd2565b80835260208301809260005260206000206000915b83831061216957848660405191829160208301906020845251809152604083019060408160051b85010192916000905b82821061213a57505050500390f35b919360019193955060206121598192603f198a82030186528851612ce2565b960192019201859493919261212b565b60016020819260405161218081610f8c8189613334565b8152019201920191906120fb565b60203660031901126103fc576004356001600160401b0381116103fc576121b9903690600401612c4f565b6121c1613ad6565b6121c9613686565b6121da610287610282368486612e0e565b60ff60016121f160206110b76102a3368789612e0e565b810160fc81520301902001541660038110156107f4576001612213911461313f565b3360005260fe602052600160406000206020604051809285878337858201908152030190200154806123b7575b5061224e6101065434613b1a565b901561238f576122786102a384843360005261010160205261032b60ff60406000205416156130d1565b3360005260fe60205261228f604060002082612eae565b80549061229c3483613025565b8155600142910155604051906002835192602081818701956122bf818389612cbf565b810160fc815203019020016122d5348254613025565b905515612342575b503360005261010060205260406000206122f8348254613025565b90557f2bad35bd346df31ec34e3b4c5ffd2ec582f2839da18cd5824ba8a48b40bf2f5361039e6123323460018060a01b0360fb5416613911565b604051918291339534908461311d565b61235b6020600392604051809381928751928391612cbf565b810160fc81520301902001612370815461318b565b90553360005260ff6020526123898160406000206132f0565b816122dd565b60405162461bcd60e51b8152602060048201529081906123b3906024830190612ce2565b0390fd5b610102546123c491613025565b42106123d05782612240565b60405162461bcd60e51b815260206004820152601d60248201527f54696d65206265747765656e207374616b657320746f6f2073686f72740000006044820152606490fd5b346103fc57604061244c6102a361242e610a3b36612c7c565b6001600160a01b03909116600090815260fe60205283902090612eae565b600460ff600283015416910154825191151582526020820152f35b346103fc5760003660031901126103fc576124806134be565b610105805460ff19169055005b346103fc5760003660031901126103fc57602061010654604051908152f35b346103fc5760403660031901126103fc576124c5612c39565b336001600160a01b038216036124e15761001b90600435613a50565b60405162461bcd60e51b815260206004820152602f60248201527f416363657373436f6e74726f6c3a2063616e206f6e6c792072656e6f756e636560448201526e103937b632b9903337b91039b2b63360891b6064820152608490fd5b346103fc5760403660031901126103fc5760043561255a612c39565b90612576610aab82600052606560205260016040600020015490565b806000526065602052604060002060018060a01b03831660005260205260ff60406000205416156125a357005b60008181526065602090815260408083206001600160a01b0395909516808452949091528120805460ff19166001179055339291907f2f8788117e7eff1d82e926ec794901d17c78024a50270940304540a733656f0d9080a4005b346103fc5760203660031901126103fc576004356001600160401b0381116103fc5761262e903690600401612c4f565b612636613686565b612647610287610282368486612e0e565b61265e6102b36102ad6102a86102a3368688612e0e565b61268c60016126746102d06102a3368688612e0e565b61268081541515613048565b01546101035490613025565b42106127de576126aa60ff60026103226102d06102a3368789612e0e565b60ff61010554166127a5576126c4916102a3913691612e0e565b3360005260fe6020527f8e5138d7e0f1348da73d35df3c7455c94100459fda4c4af5b31322c2c72169f960046126fe604060002084612eae565b805491829161270e831515613048565b3360005261010160205261272a60ff60406000205416156130d1565b60028101600160ff198254161790554260038201550155604051602081527fc050fbdb05cfd3e20d6db3bc0238b5f13b18af81d8918f8165466c830d350b9f3391806127796020820188612ce2565b0390a260fb546127939082906001600160a01b0316613911565b9061039e60405192839233968461311d565b60405162461bcd60e51b8152602060048201526011602482015270155b9cdd185ad9481a5cc81c185d5cd959607a1b6044820152606490fd5b60405162461bcd60e51b815260206004820152602860248201527f54696d652073696e6365207374616b696e6720746f6f2073686f727420666f7260448201526720756e7374616b6560c01b6064820152608490fd5b346103fc5760003660031901126103fc57602061010354604051908152f35b346103fc57608061288b6102a361286c610a3b36612c7c565b6001600160a01b03909116600090815260fe6020526040902090612eae565b60018101546128ab6128a06101035483613025565b916101045490613025565b9082541515809381612921575b84612915575b84612906575b816128f6575b50806128ec575b60405193151584521515602084015260408301526060820152f35b50814210156128d1565b60ff9150600201541615856128ca565b6101055460ff161594506128c4565b935081421015936128be565b600281015460ff161594506128b8565b60803660031901126103fc57612945612c23565b6024356001600160401b0381116103fc57612964903690600401612c4f565b606435916044359183151584036103fc5761297d6135d3565b612985613686565b612996610287610282368486612e0e565b6129ad6102b36102ad6102a86102a3368688612e0e565b8215612ad557823410612a99576129c9916102a3913691612e0e565b60018060a01b038416938460005260fe6020526129ea604060002083612eae565b93845415612a54576000808086612a3695829560ff60027fa22c130ab9525575739c5b8856b4345b50ef04582844399f49949042eb410f009c015416612a45575b505af16109b0612f9b565b61039e60405192839283613009565b612a4e90612f5a565b8b612a2b565b60405162461bcd60e51b815260206004820152601b60248201527f4e6f207374616b6520666f7220746869732076616c696461746f7200000000006044820152606490fd5b60405162461bcd60e51b8152602060048201526014602482015273496e73756666696369656e74207265776172647360601b6044820152606490fd5b606460405162461bcd60e51b815260206004820152602060248201527f416d6f756e74206d7573742062652067726561746572207468616e207a65726f6044820152fd5b346103fc5760203660031901126103fc576020612b46600435600052606560205260016040600020015490565b604051908152f35b346103fc5760003660031901126103fc57602061010254604051908152f35b346103fc5760203660031901126103fc57612b866134be565b60043561010255005b346103fc5760203660031901126103fc57612ba86134be565b60043561010655005b346103fc5760203660031901126103fc5760043563ffffffff60e01b81168091036103fc57602090637965db0b60e01b8114908115612bf6575b506040519015158152f35b6301ffc9a760e01b14905082612beb565b346103fc5760003660031901126103fc57602090610104548152f35b600435906001600160a01b03821682036103fc57565b602435906001600160a01b03821682036103fc57565b9181601f840112156103fc578235916001600160401b0383116103fc57602083818601950101116103fc57565b9060406003198301126103fc576004356001600160a01b03811681036103fc5791602435906001600160401b0382116103fc57612cbb91600401612c4f565b9091565b60005b838110612cd25750506000910152565b8181015183820152602001612cc2565b90602091612cfb81518092818552858086019101612cbf565b601f01601f1916010190565b9060038210156107f45752565b90606080612d2b8451608085526080850190612ce2565b93612d3e60208201516020860190612d07565b60408101516040850152015191015290565b60406003198201126103fc576004356001600160401b0381116103fc5781612d7a91600401612c4f565b92909291602435906001600160401b0382116103fc57612cbb91600401612c4f565b608081019081106001600160401b038211176107de57604052565b60a081019081106001600160401b038211176107de57604052565b90601f801991011681019081106001600160401b038211176107de57604052565b6001600160401b0381116107de57601f01601f191660200190565b929192612e1a82612df3565b91612e286040519384612dd2565b8294818452818301116103fc578281602093846000960137010152565b15612e4c57565b60405162461bcd60e51b8152602060048201526014602482015273125b9d985b1a59081d985b1a59185d1bdc88125160621b6044820152606490fd5b6020612ea1918160405193828580945193849201612cbf565b810160fc81520301902090565b602090612ec8928260405194838680955193849201612cbf565b82019081520301902090565b90600182811c92168015612f04575b6020831014612eee57565b634e487b7160e01b600052602260045260246000fd5b91607f1691612ee3565b15612f1557565b60405162461bcd60e51b815260206004820152601860248201527f56616c696461746f7220646f6573206e6f7420657869737400000000000000006044820152606490fd5b15612f6157565b60405162461bcd60e51b8152602060048201526012602482015271556e7374616b6520696e2070726f6365737360701b6044820152606490fd5b3d15612fc6573d90612fac82612df3565b91612fba6040519384612dd2565b82523d6000602084013e565b606090565b15612fd257565b60405162461bcd60e51b815260206004820152600f60248201526e151c985b9cd9995c8819985a5b1959608a1b6044820152606490fd5b929190613020602091604086526040860190612ce2565b930152565b9190820180921161303257565b634e487b7160e01b600052601160045260246000fd5b1561304f57565b60405162461bcd60e51b815260206004820152600e60248201526d139bc81cdd185ad948199bdd5b9960921b6044820152606490fd5b1561308c57565b60405162461bcd60e51b815260206004820152601a60248201527f556e7374616b6520616c726561647920696e2070726f636573730000000000006044820152606490fd5b156130d857565b60405162461bcd60e51b815260206004820152601f60248201527f456d657267656e6379207769746864726177616c20696e2070726f63657373006044820152606490fd5b61313560409295949395606083526060830190612ce2565b9460208201520152565b1561314657565b60405162461bcd60e51b815260206004820152601860248201527f56616c696461746f72206973206e6f7420656e61626c656400000000000000006044820152606490fd5b60001981146130325760010190565b80548210156131b25760005260206000200190600090565b634e487b7160e01b600052603260045260246000fd5b8181106131d3575050565b600081556001016131c8565b9190601f81116131ee57505050565b61321a926000526020600020906020601f840160051c8301931061321c575b601f0160051c01906131c8565b565b909150819061320d565b91909182516001600160401b0381116107de5761324d816132478454612ed4565b846131df565b6020601f821160011461328e57819061327f939495600092613283575b50508160011b916000199060031b1c19161790565b9055565b01519050388061326a565b601f1982169083600052806000209160005b8181106132d8575095836001959697106132bf575b505050811b019055565b015160001960f88460031b161c191690553880806132b5565b9192602060018192868b0151815501940192016132a0565b8054600160401b8110156107de5761330d9160018201815561319a565b9190916107c85761321a91613226565b6001600160401b0381116107de5760051b60200190565b6000929181549161334483612ed4565b808352926001811690811561339a575060011461336057505050565b60009081526020812093945091925b838310613380575060209250010190565b60018160209294939454838587010152019101919061336f565b915050602093945060ff929192191683830152151560051b010190565b80518210156131b25760209160051b010190565b9190820391821161303257565b8015613032576000190190565b156133ec57565b60405162461bcd60e51b81526020600482015260156024820152744e6f20756e7374616b6520696e2070726f6365737360581b6044820152606490fd5b1561343057565b60405162461bcd60e51b815260206004820152601a60248201527f496e73756666696369656e74207374616b656420616d6f756e740000000000006044820152606490fd5b9060038110156107f45760ff80198354169116179055565b6040519061349a82612d9c565b60006060838181528260208201528260408201520152565b60038210156107f45752565b3360009081527fcee91eb23e767f0f440dd9fce5554f355614443931e9ac5ce78c67b9e06e6f70602052604090205460ff16156134f757565b6123b361350333613eb0565b6135b360116135317f241ecf16d79d0f8dbfb92cbc07fe17840425976cf0667f022fe9877caa831b08613fc8565b9260376040519485927f416363657373436f6e74726f6c3a206163636f756e742000000000000000000060208501526135738151809260208688019101612cbf565b83017001034b99036b4b9b9b4b733903937b6329607d1b838201526135a2825180936020604885019101612cbf565b01010301601f198101835282612dd2565b60405162461bcd60e51b8152602060048201529182916024830190612ce2565b3360009081527fbdd154b7c599a43e8b8410b62e84571cd69a79e95c9fc5b630a687cb7c97edf9602052604090205460ff161561360c57565b6123b361361833613eb0565b6135b360116135317f97667070c54ef182b0f5858b034beac1b6f3089aa2d3188bb1e8929f4fa9b929613fc8565b600081815260656020908152604080832033845290915290205460ff161561366b5750565b6123b3906135b3601161353161368033613eb0565b93613fc8565b600260c9541461369757600260c955565b60405162461bcd60e51b815260206004820152601f60248201527f5265656e7472616e637947756172643a207265656e7472616e742063616c6c006044820152606490fd5b9081518110156131b2570160200190565b60ff60209116019060ff821161303257565b8051801561383957602d8110908115613846575b5061384057604051613726604082612dd2565b600981526836bc3b30b637b832b960b91b602082015260098251106138395760005b815181101561382b5761375b81846136dc565b516001600160f81b031981169061377283856136dc565b516001600160f81b0319811691604160f81b8410158061381d575b6137f9575b50604160f81b821015806137eb575b6137ca575b506001600160f81b03199081169116036137c257600101613748565b505050600090565b6001600160f81b031991506137e19060f81c6136ed565b60f81b16386137a6565b50602d60f91b8211156137a1565b9092506001600160f81b0319906138129060f81c6136ed565b60f81b169138613792565b50602d60f91b84111561378d565b505161383691613e03565b90565b5050600090565b50600090565b603c91501138613713565b90815161385d81612df3565b9061386b6040519283612dd2565b80825261387a601f1991612df3565b0136602083013760005b835181101561390c578061389a600192866136dc565b516001600160f81b03198116604160f81b811015806138fe575b156138e957506001600160f81b0319906138d09060f81c6136ed565b60f81b1660001a6138e182856136dc565b535b01613884565b905060001a6138f882856136dc565b536138e3565b50602d60f91b8111156138b4565b509150565b9190918215613a495760405163524f388960e01b8152602060048201819052600360248301526258464960e81b60448301529093916001600160a01b03169084606481845afa938415613a0857600094613a14575b50926020600493946040519485809263a28ff72d60e01b82525afa928315613a08576000936139d1575b50801580156139c9575b6137c257808202918204036130325781156139b3570490565b634e487b7160e01b600052601260045260246000fd5b50821561399a565b90926020823d602011613a00575b816139ec60209383612dd2565b810103126139fd5750519138613990565b80fd5b3d91506139df565b6040513d6000823e3d90fd5b936020853d602011613a41575b81613a2e60209383612dd2565b810103126139fd57509251926020613966565b3d9150613a21565b5060009150565b806000526065602052604060002060018060a01b03831660005260205260ff60406000205416613a7e575050565b60008181526065602090815260408083206001600160a01b0395909516808452949091528120805460ff19169055339291907ff6391f5c32d9c69d2a47ea670b442974b53935d1edc7fd64eb21e047a839171b9080a4565b60ff60975416613ae257565b60405162461bcd60e51b815260206004820152601060248201526f14185d5cd8589b194e881c185d5cd95960821b6044820152606490fd5b8015613b725710613b3d57600190604051613b36602082612dd2565b6000815290565b600090604051613b4e604082612dd2565b6014815273416d6f756e742062656c6f77206d696e696d756d60601b602082015290565b5050600090604051613b85604082612dd2565b601d81527f416d6f756e74206d7573742062652067726561746572207468616e2030000000602082015290565b919091828114613c8457613bc68354612ed4565b6001600160401b0381116107de57613be2816132478454612ed4565b600093601f8211600114613c1f5761327f9293948291600092613c145750508160011b916000199060031b1c19161790565b01549050388061326a565b845260208085208386529085209094601f198316815b818110613c6c57509583600195969710613c5357505050811b019055565b015460001960f88460031b161c191690553880806132b5565b9192600180602092868b015481550194019201613c35565b509050565b6001600160a01b0316600090815260ff60205260408120905b815480821015613d9d57610f8c613cc9613cbc848661319a565b5060405192838092613334565b602081519101208451602086012014613ce55750600101613ca2565b91925090600019810190811161303257613d02613d0a918461319a565b50918361319a565b9190916107c857613d1a91613bb2565b80548015613d87576000190190613d31828261319a565b6107c857613d3f8154612ed4565b9081613d4a57505055565b81601f60009311600114613d5d57505555565b81835260208320613d7991601f0160051c8101906001016131c8565b808252816020812091555555565b634e487b7160e01b600052603160045260246000fd5b50505050565b15613daa57565b60405162461bcd60e51b815260206004820152602b60248201527f496e697469616c697a61626c653a20636f6e7472616374206973206e6f74206960448201526a6e697469616c697a696e6760a81b6064820152608490fd5b906026613e118284516133cb565b108015613e9c575b613839575b8151811015613e95576001600160f81b0319613e3a82846136dc565b5116606160f81b81101580613e87575b600360fc1b8210159182613e78575b50159081613e6f575b5061383957600101613e1e565b90501538613e62565b603960f81b1015915038613e59565b50603d60f91b811115613e4a565b5050600190565b50603b613eaa8284516133cb565b11613e19565b600090613ebd602a612df3565b91613ecb6040519384612dd2565b602a8352613ed9602a612df3565b6020840190601f1901368237835115613fb45760309053825160011015611024576078602184015350602960005b60018211613f5c575050613f185790565b606460405162461bcd60e51b815260206004820152602060248201527f537472696e67733a20686578206c656e67746820696e73756666696369656e746044820152fd5b9091600f81166010811015613fa057613f9a91906f181899199a1a9b1b9c1cb0b131b232b360811b901a613f9085876136dc565b5360041c926133d8565b90613f07565b634e487b7160e01b83526032600452602483fd5b634e487b7160e01b82526032600452602482fd5b600090613fd56042612df3565b91613fe36040519384612dd2565b60428352613ff16042612df3565b6020840190601f1901368237835115613fb45760309053825160011015611024576078602184015350604160005b60018211614030575050613f185790565b9091600f81166010811015613fa05761406491906f181899199a1a9b1b9c1cb0b131b232b360811b901a613f9085876136dc565b9061401f56fea26469706673582212206b06a257ae05fcc65c4045b832aed1f6b137ca1c45ee37318e4aef8bad00870364736f6c634300081a0033",
        "nonce": "0x1b8",
        "chainId": "0x103c"
      },
      "additionalContracts": [],
      "isFixedGasLimit": false
    },
    {
      "hash": "0xca320b9d65e7e951d41a7dd9371d45d917d28a5509e2c2938deb4f930a9369eb",
      "transactionType": "CREATE",
      "contractName": "ProxyAdmin",
      "contractAddress": "0x7d0e7c8E9eDb11CcbDCf6b8af6E4a6EB9203052E",
      "function": null,
      "arguments": null,
      "transaction": {
        "from": "0xee2e617a42Aab5be36c290982493C6CC6C072982",
        "gas": "0x831ff",
        "value": "0x0",
        "input": "0x60808060405234605a5760008054336001600160a01b0319821681178355916001600160a01b03909116907f8be0079c531659141344cd1fd0a4f28419497f9722a3daafe3b4186f6b6457e09080a361060f90816100608239f35b600080fdfe608080604052600436101561001357600080fd5b60009081803560e01c918263204e1c7a1461046d5750508063715018a6146104135780637eff275e146103825780638da5cb5b1461035b5780639623609d1461024957806399a88ec4146101b4578063f2fde38b146100ee5763f3b7dead1461007b57600080fd5b346100eb5760203660031901126100eb57808060046001600160a01b036100a06104ad565b6040516303e1469160e61b815291165afa6100b9610532565b90156100e75780516020916001600160a01b03916100de919081018401908401610562565b16604051908152f35b5080fd5b80fd5b50346100eb5760203660031901126100eb576101086104ad565b610110610581565b6001600160a01b031680156101605781546001600160a01b03198116821783556001600160a01b03167f8be0079c531659141344cd1fd0a4f28419497f9722a3daafe3b4186f6b6457e08380a380f35b60405162461bcd60e51b815260206004820152602660248201527f4f776e61626c653a206e6577206f776e657220697320746865207a65726f206160448201526564647265737360d01b6064820152608490fd5b50346100eb5760403660031901126100eb57806101cf6104ad565b6101d76104c8565b906101e0610581565b6001600160a01b031690813b1561024557604051631b2ce7f360e11b81526001600160a01b0390911660048201529082908290602490829084905af1801561023a576102295750f35b81610233916104de565b6100eb5780f35b6040513d84823e3d90fd5b5050fd5b5060603660031901126100eb5761025e6104ad565b906102676104c8565b6044359267ffffffffffffffff8411610353573660238501121561035357836004013561029381610516565b946102a160405196876104de565b81865236602483830101116103575781859260246020930183890137860101526102c9610581565b6001600160a01b0316803b15610353576040805163278f794360e11b81526001600160a01b0390931660048401526024830152835160448301819052835b81811061033d57848085818187816064818a86838284010152601f8019910116810103019134905af1801561023a576102295750f35b8060208092880101516064828701015201610307565b8280fd5b8480fd5b50346100eb57806003193601126100eb57546040516001600160a01b039091168152602090f35b50346100eb5760403660031901126100eb578061039d6104ad565b6103a56104c8565b906103ae610581565b6001600160a01b031690813b15610245576040516308f2839760e41b81526001600160a01b039091166004820152919081908390602490829084905af18015610406576103f85780f35b610401916104de565b388180f35b50604051903d90823e3d90fd5b50346100eb57806003193601126100eb5761042c610581565b80546001600160a01b03198116825581906001600160a01b03167f8be0079c531659141344cd1fd0a4f28419497f9722a3daafe3b4186f6b6457e08280a380f35b8190346104aa5760203660031901126104aa5781906004906001600160a01b036104956104ad565b635c60da1b60e01b8352165afa6100b9610532565b50fd5b600435906001600160a01b03821682036104c357565b600080fd5b602435906001600160a01b03821682036104c357565b90601f8019910116810190811067ffffffffffffffff82111761050057604052565b634e487b7160e01b600052604160045260246000fd5b67ffffffffffffffff811161050057601f01601f191660200190565b3d1561055d573d9061054382610516565b9161055160405193846104de565b82523d6000602084013e565b606090565b908160209103126104c357516001600160a01b03811681036104c35790565b6000546001600160a01b0316330361059557565b606460405162461bcd60e51b815260206004820152602060248201527f4f776e61626c653a2063616c6c6572206973206e6f7420746865206f776e65726044820152fdfea2646970667358221220742de87e4d8483b029ff0569e0c8acdfa5fd7d1a9c9ff4245c304b35f1394c5f64736f6c634300081a0033",
        "nonce": "0x1b9",
        "chainId": "0x103c"
      },
      "additionalContracts": [],
      "isFixedGasLimit": false
    },
    {
      "hash": "0xbecf99f39d3017a97231f66fad435ab472cf4beddde3a3ca78a08806ae35cce8",
      "transactionType": "CREATE",
      "contractName": "TransparentUpgradeableProxy",
      "contractAddress": "0x00BF426c408c4aD61Ad22B556D0eC0A1370792ED",
      "function": null,
      "arguments": [
        "0x938c6e70A863621Dc63124043A86F954F65f0174",
        "0x7d0e7c8E9eDb11CcbDCf6b8af6E4a6EB9203052E",
        "0xc4d66de8000000000000000000000000c6569965a61bedf4afa97cbba177dc7fb894acb2000000000000000000000000ee2e617a42aab5be36c290982493c6cc6c072982"
      ],
      "transaction": {
        "from": "0xee2e617a42Aab5be36c290982493C6CC6C072982",
        "gas": "0xde087",
        "value": "0x0",
        "input": "0x6080604052610c7580380380610014816102ce565b92833981016060828203126102c95761002c82610309565b61003860208401610309565b604084015190936001600160401b0382116102c957019082601f830112156102c95781519161006e6100698461031d565b6102ce565b928084526020840194602082840101116102c95784602061008f9301610338565b803b1561026e577f360894a13ba1a3210667c828492db98dca3e2076cc3735a920a3ca505d382bbc80546001600160a01b0319166001600160a01b0383169081179091557fbc7cd75a20ee27fd9adebab32041f755214dbc6bffa90cc0225b39da2e5c2d3b600080a2815115801590610266575b6101e0575b5050600080516020610c5583398151915254604080516001600160a01b03808416825290941660208501819052939192507f7e644d79422f17c01e4894b5f4f588d331ebfa28653d42ae832dc59e38c9798f91a1811561018c576001600160a01b03191617600080516020610c5583398151915255604051610846908161040f8239f35b60405162461bcd60e51b815260206004820152602660248201527f455243313936373a206e65772061646d696e20697320746865207a65726f206160448201526564647265737360d01b6064820152608490fd5b600080610255946101f160606102ce565b94602786527f416464726573733a206c6f772d6c6576656c2064656c65676174652063616c6c6020870152660819985a5b195960ca1b60408701525190845af43d1561025e573d916102456100698461031d565b9283523d6000602085013e61035b565b50388080610108565b60609161035b565b506000610103565b60405162461bcd60e51b815260206004820152602d60248201527f455243313936373a206e657720696d706c656d656e746174696f6e206973206e60448201526c1bdd08184818dbdb9d1c9858dd609a1b6064820152608490fd5b600080fd5b6040519190601f01601f191682016001600160401b038111838210176102f357604052565b634e487b7160e01b600052604160045260246000fd5b51906001600160a01b03821682036102c957565b6001600160401b0381116102f357601f01601f191660200190565b60005b83811061034b5750506000910152565b818101518382015260200161033b565b919290156103bd575081511561036f575090565b3b156103785790565b60405162461bcd60e51b815260206004820152601d60248201527f416464726573733a2063616c6c20746f206e6f6e2d636f6e74726163740000006044820152606490fd5b8251909150156103d05750805190602001fd5b6044604051809262461bcd60e51b8252602060048301526104008151809281602486015260208686019101610338565b601f01601f19168101030190fdfe60806040523661013f576000805160206107d183398151915254610033906001600160a01b03165b6001600160a01b031690565b330361013a576000356001600160e01b031916631b2ce7f360e11b8103610065575061005d61045b565b602081519101f35b63278f794360e11b8103610081575061007c6103ca565b61005d565b6308f2839760e41b8103610098575061007c6102e4565b6303e1469160e61b81036100af575061007c61023e565b635c60da1b60e01b036100c45761007c610203565b60405162461bcd60e51b815260206004820152604260248201527f5472616e73706172656e745570677261646561626c6550726f78793a2061646d60448201527f696e2063616e6e6f742066616c6c6261636b20746f2070726f78792074617267606482015261195d60f21b608482015260a490fd5b61018b565b6000805160206107d183398151915254610161906001600160a01b0316610027565b330361018b576000356001600160e01b031916631b2ce7f360e11b8103610065575061005d61045b565b6000805160206107f18339815191525460009081906001600160a01b0316368280378136915af43d6000803e156101c1573d6000f35b3d6000fd5b634e487b7160e01b600052604160045260246000fd5b90601f8019910116810190811067ffffffffffffffff8211176101fe57604052565b6101c6565b61020b610581565b60018060a01b036000805160206107f183398151915254166040519060208201526020815261023b6040826101dc565b90565b610246610581565b60018060a01b036000805160206107d183398151915254166040519060208201526020815261023b6040826101dc565b600435906001600160a01b038216820361028c57565b600080fd5b602090600319011261028c576004356001600160a01b038116810361028c5790565b67ffffffffffffffff81116101fe57601f01601f191660200190565b604051906102de6020836101dc565b60008252565b6102ec610581565b3660041161028c576001600160a01b0361030536610291565b166000805160206107d1833981519152547f7e644d79422f17c01e4894b5f4f588d331ebfa28653d42ae832dc59e38c9798f6040805160018060a01b0384168152846020820152a18115610376576001600160a01b031916176000805160206107d18339815191525561023b6102cf565b60405162461bcd60e51b815260206004820152602660248201527f455243313936373a206e65772061646d696e20697320746865207a65726f206160448201526564647265737360d01b6064820152608490fd5b3660041161028c57604036600319011261028c576103e6610276565b6024359067ffffffffffffffff821161028c573660238301121561028c57816004013590610413826102b3565b9161042160405193846101dc565b808352366024828601011161028c576020816000926024610453970183870137840101526001600160a01b0316610588565b61023b6102cf565b610463610581565b3660041161028c576001600160a01b0361047c36610291565b166020906040519061048e83836101dc565b60008252803b15610526576000805160206107f183398151915280546001600160a01b03191682179055807fbc7cd75a20ee27fd9adebab32041f755214dbc6bffa90cc0225b39da2e5c2d3b600080a281511580159061051e575b610504575b50506104fd60405191826101dc565b6000815290565b61051691610510610664565b916106af565b5038806104ee565b5060006104e9565b60405162461bcd60e51b815260048101849052602d60248201527f455243313936373a206e657720696d706c656d656e746174696f6e206973206e60448201526c1bdd08184818dbdb9d1c9858dd609a1b6064820152608490fd5b3461028c57565b803b15610609576000805160206107f183398151915280546001600160a01b0319166001600160a01b0383169081179091557fbc7cd75a20ee27fd9adebab32041f755214dbc6bffa90cc0225b39da2e5c2d3b600080a2815115801590610601575b6105f2575050565b6105fe91610510610664565b50565b5060016105ea565b60405162461bcd60e51b815260206004820152602d60248201527f455243313936373a206e657720696d706c656d656e746174696f6e206973206e60448201526c1bdd08184818dbdb9d1c9858dd609a1b6064820152608490fd5b604051906106736060836101dc565b60278252660819985a5b195960ca1b6040837f416464726573733a206c6f772d6c6576656c2064656c65676174652063616c6c60208201520152565b60008061023b9493602081519101845af43d156106ee573d916106d1836102b3565b926106df60405194856101dc565b83523d6000602085013e610742565b606091610742565b156106fd57565b60405162461bcd60e51b815260206004820152601d60248201527f416464726573733a2063616c6c20746f206e6f6e2d636f6e74726163740000006044820152606490fd5b919290156107625750815115610756575090565b61023b903b15156106f6565b8251909150156107755750805190602001fd5b6040519062461bcd60e51b8252602060048301528181519182602483015260005b8381106107b85750508160006044809484010152601f80199101168101030190fd5b6020828201810151604487840101528593500161079656feb53127684a568b3173ae13b9f8a6016e243e63b6e8ee1178d6a717850b5d6103360894a13ba1a3210667c828492db98dca3e2076cc3735a920a3ca505d382bbca26469706673582212205aff0989c9aab561c84c1fa1aa4c2c3ecbeae1a51e046cba854732d636963eb964736f6c634300081a0033b53127684a568b3173ae13b9f8a6016e243e63b6e8ee1178d6a717850b5d6103000000000000000000000000938c6e70a863621dc63124043a86f954f65f01740000000000000000000000007d0e7c8e9edb11ccbdcf6b8af6e4a6eb9203052e00000000000000000000000000000000000000000000000000000000000000600000000000000000000000000000000000000000000000000000000000000044c4d66de8000000000000000000000000c6569965a61bedf4afa97cbba177dc7fb894acb2000000000000000000000000ee2e617a42aab5be36c290982493c6cc6c07298200000000000000000000000000000000000000000000000000000000",
        "nonce": "0x1ba",
        "chainId": "0x103c"
      },
      "additionalContracts": [],
      "isFixedGasLimit": false
    },
    {
      "hash": "0x8bfe02cb15eb7d022c762be386a5338a4ce851a55395a0ad1de3d09d24dd6c32",
      "transactionType": "CREATE",
      "contractName": "TransparentUpgradeableProxy",
      "contractAddress": "0x536cbD6ca17a10E4b4F9D709827923a6F8D08C3f",
      "function": null,
      "arguments": [
        "0x8de80F7B0A4Df74bF30Fd26494cb712f052b0748",
        "0x7d0e7c8E9eDb11CcbDCf6b8af6E4a6EB9203052E",
        "0xc350a1b5000000000000000000000000ee2e617a42aab5be36c290982493c6cc6c0729820000000000000000000000000000000000000000000000000de0b6b3a764000000000000000000000000000000bf426c408c4ad61ad22b556d0ec0a1370792ed"
      ],
      "transaction": {
        "from": "0xee2e617a42Aab5be36c290982493C6CC6C072982",
        "gas": "0xfa6cc",
        "value": "0x0",
        "input": "0x6080604052610c7580380380610014816102ce565b92833981016060828203126102c95761002c82610309565b61003860208401610309565b604084015190936001600160401b0382116102c957019082601f830112156102c95781519161006e6100698461031d565b6102ce565b928084526020840194602082840101116102c95784602061008f9301610338565b803b1561026e577f360894a13ba1a3210667c828492db98dca3e2076cc3735a920a3ca505d382bbc80546001600160a01b0319166001600160a01b0383169081179091557fbc7cd75a20ee27fd9adebab32041f755214dbc6bffa90cc0225b39da2e5c2d3b600080a2815115801590610266575b6101e0575b5050600080516020610c5583398151915254604080516001600160a01b03808416825290941660208501819052939192507f7e644d79422f17c01e4894b5f4f588d331ebfa28653d42ae832dc59e38c9798f91a1811561018c576001600160a01b03191617600080516020610c5583398151915255604051610846908161040f8239f35b60405162461bcd60e51b815260206004820152602660248201527f455243313936373a206e65772061646d696e20697320746865207a65726f206160448201526564647265737360d01b6064820152608490fd5b600080610255946101f160606102ce565b94602786527f416464726573733a206c6f772d6c6576656c2064656c65676174652063616c6c6020870152660819985a5b195960ca1b60408701525190845af43d1561025e573d916102456100698461031d565b9283523d6000602085013e61035b565b50388080610108565b60609161035b565b506000610103565b60405162461bcd60e51b815260206004820152602d60248201527f455243313936373a206e657720696d706c656d656e746174696f6e206973206e60448201526c1bdd08184818dbdb9d1c9858dd609a1b6064820152608490fd5b600080fd5b6040519190601f01601f191682016001600160401b038111838210176102f357604052565b634e487b7160e01b600052604160045260246000fd5b51906001600160a01b03821682036102c957565b6001600160401b0381116102f357601f01601f191660200190565b60005b83811061034b5750506000910152565b818101518382015260200161033b565b919290156103bd575081511561036f575090565b3b156103785790565b60405162461bcd60e51b815260206004820152601d60248201527f416464726573733a2063616c6c20746f206e6f6e2d636f6e74726163740000006044820152606490fd5b8251909150156103d05750805190602001fd5b6044604051809262461bcd60e51b8252602060048301526104008151809281602486015260208686019101610338565b601f01601f19168101030190fdfe60806040523661013f576000805160206107d183398151915254610033906001600160a01b03165b6001600160a01b031690565b330361013a576000356001600160e01b031916631b2ce7f360e11b8103610065575061005d61045b565b602081519101f35b63278f794360e11b8103610081575061007c6103ca565b61005d565b6308f2839760e41b8103610098575061007c6102e4565b6303e1469160e61b81036100af575061007c61023e565b635c60da1b60e01b036100c45761007c610203565b60405162461bcd60e51b815260206004820152604260248201527f5472616e73706172656e745570677261646561626c6550726f78793a2061646d60448201527f696e2063616e6e6f742066616c6c6261636b20746f2070726f78792074617267606482015261195d60f21b608482015260a490fd5b61018b565b6000805160206107d183398151915254610161906001600160a01b0316610027565b330361018b576000356001600160e01b031916631b2ce7f360e11b8103610065575061005d61045b565b6000805160206107f18339815191525460009081906001600160a01b0316368280378136915af43d6000803e156101c1573d6000f35b3d6000fd5b634e487b7160e01b600052604160045260246000fd5b90601f8019910116810190811067ffffffffffffffff8211176101fe57604052565b6101c6565b61020b610581565b60018060a01b036000805160206107f183398151915254166040519060208201526020815261023b6040826101dc565b90565b610246610581565b60018060a01b036000805160206107d183398151915254166040519060208201526020815261023b6040826101dc565b600435906001600160a01b038216820361028c57565b600080fd5b602090600319011261028c576004356001600160a01b038116810361028c5790565b67ffffffffffffffff81116101fe57601f01601f191660200190565b604051906102de6020836101dc565b60008252565b6102ec610581565b3660041161028c576001600160a01b0361030536610291565b166000805160206107d1833981519152547f7e644d79422f17c01e4894b5f4f588d331ebfa28653d42ae832dc59e38c9798f6040805160018060a01b0384168152846020820152a18115610376576001600160a01b031916176000805160206107d18339815191525561023b6102cf565b60405162461bcd60e51b815260206004820152602660248201527f455243313936373a206e65772061646d696e20697320746865207a65726f206160448201526564647265737360d01b6064820152608490fd5b3660041161028c57604036600319011261028c576103e6610276565b6024359067ffffffffffffffff821161028c573660238301121561028c57816004013590610413826102b3565b9161042160405193846101dc565b808352366024828601011161028c576020816000926024610453970183870137840101526001600160a01b0316610588565b61023b6102cf565b610463610581565b3660041161028c576001600160a01b0361047c36610291565b166020906040519061048e83836101dc565b60008252803b15610526576000805160206107f183398151915280546001600160a01b03191682179055807fbc7cd75a20ee27fd9adebab32041f755214dbc6bffa90cc0225b39da2e5c2d3b600080a281511580159061051e575b610504575b50506104fd60405191826101dc565b6000815290565b61051691610510610664565b916106af565b5038806104ee565b5060006104e9565b60405162461bcd60e51b815260048101849052602d60248201527f455243313936373a206e657720696d706c656d656e746174696f6e206973206e60448201526c1bdd08184818dbdb9d1c9858dd609a1b6064820152608490fd5b3461028c57565b803b15610609576000805160206107f183398151915280546001600160a01b0319166001600160a01b0383169081179091557fbc7cd75a20ee27fd9adebab32041f755214dbc6bffa90cc0225b39da2e5c2d3b600080a2815115801590610601575b6105f2575050565b6105fe91610510610664565b50565b5060016105ea565b60405162461bcd60e51b815260206004820152602d60248201527f455243313936373a206e657720696d706c656d656e746174696f6e206973206e60448201526c1bdd08184818dbdb9d1c9858dd609a1b6064820152608490fd5b604051906106736060836101dc565b60278252660819985a5b195960ca1b6040837f416464726573733a206c6f772d6c6576656c2064656c65676174652063616c6c60208201520152565b60008061023b9493602081519101845af43d156106ee573d916106d1836102b3565b926106df60405194856101dc565b83523d6000602085013e610742565b606091610742565b156106fd57565b60405162461bcd60e51b815260206004820152601d60248201527f416464726573733a2063616c6c20746f206e6f6e2d636f6e74726163740000006044820152606490fd5b919290156107625750815115610756575090565b61023b903b15156106f6565b8251909150156107755750805190602001fd5b6040519062461bcd60e51b8252602060048301528181519182602483015260005b8381106107b85750508160006044809484010152601f80199101168101030190fd5b6020828201810151604487840101528593500161079656feb53127684a568b3173ae13b9f8a6016e243e63b6e8ee1178d6a717850b5d6103360894a13ba1a3210667c828492db98dca3e2076cc3735a920a3ca505d382bbca26469706673582212205aff0989c9aab561c84c1fa1aa4c2c3ecbeae1a51e046cba854732d636963eb964736f6c634300081a0033b53127684a568b3173ae13b9f8a6016e243e63b6e8ee1178d6a717850b5d61030000000000000000000000008de80f7b0a4df74bf30fd26494cb712f052b07480000000000000000000000007d0e7c8e9edb11ccbdcf6b8af6e4a6eb9203052e00000000000000000000000000000000000000000000000000000000000000600000000000000000000000000000000000000000000000000000000000000064c350a1b5000000000000000000000000ee2e617a42aab5be36c290982493c6cc6c0729820000000000000000000000000000000000000000000000000de0b6b3a764000000000000000000000000000000bf426c408c4ad61ad22b556d0ec0a1370792ed00000000000000000000000000000000000000000000000000000000",
        "nonce": "0x1bb",
        "chainId": "0x103c"
      },
      "additionalContracts": [],
      "isFixedGasLimit": false
    },
    {
      "hash": "0xe898f89249ab6253f5d2779e02474b3cfcb35850794b4e5bbc7caefedda4a7bf",
      "transactionType": "CALL",
      "contractName": "TransparentUpgradeableProxy",
      "contractAddress": "0x536cbD6ca17a10E4b4F9D709827923a6F8D08C3f",
      "function": null,
      "arguments": null,
      "transaction": {
        "from": "0xee2e617a42Aab5be36c290982493C6CC6C072982",
        "to": "0x536cbD6ca17a10E4b4F9D709827923a6F8D08C3f",
        "gas": "0xcbfd",
        "value": "0x0",
        "input": "0x139b76bf000000000000000000000000000000000000000000000000000000000000001e",
        "nonce": "0x1bc",
        "chainId": "0x103c"
      },
      "additionalContracts": [],
      "isFixedGasLimit": false
    },
    {
      "hash": "0x48ae479e557a3334683b08bb34b270c928ac9904360fbe0730faf76a19714d9d",
      "transactionType": "CALL",
      "contractName": "TransparentUpgradeableProxy",
      "contractAddress": "0x536cbD6ca17a10E4b4F9D709827923a6F8D08C3f",
      "function": null,
      "arguments": null,
      "transaction": {
        "from": "0xee2e617a42Aab5be36c290982493C6CC6C072982",
        "to": "0x536cbD6ca17a10E4b4F9D709827923a6F8D08C3f",
        "gas": "0xc4b0",
        "value": "0x0",
        "input": "0xd0898c18000000000000000000000000000000000000000000000000000000000000001e",
        "nonce": "0x1bd",
        "chainId": "0x103c"
      },
      "additionalContracts": [],
      "isFixedGasLimit": false
    },
    {
      "hash": "0xda0f90d107c0f510238d2fa4c49a42e23b7f33024dff3059729ebcc51e152899",
      "transactionType": "CALL",
      "contractName": "TransparentUpgradeableProxy",
      "contractAddress": "0x536cbD6ca17a10E4b4F9D709827923a6F8D08C3f",
      "function": null,
      "arguments": null,
      "transaction": {
        "from": "0xee2e617a42Aab5be36c290982493C6CC6C072982",
        "to": "0x536cbD6ca17a10E4b4F9D709827923a6F8D08C3f",
        "gas": "0xd104",
        "value": "0x0",
        "input": "0xf07fc224000000000000000000000000000000000000000000000000000000000000001e",
        "nonce": "0x1be",
        "chainId": "0x103c"
      },
      "additionalContracts": [],
      "isFixedGasLimit": false
    },
    {
      "hash": "0xb3ed03d3f3b726c315984c9e53c8ae6f1815ae32edc05f1e2f56ec3b5d8d5198",
      "transactionType": "CALL",
      "contractName": "TransparentUpgradeableProxy",
      "contractAddress": "0x00BF426c408c4aD61Ad22B556D0eC0A1370792ED",
      "function": null,
      "arguments": null,
      "transaction": {
        "from": "0xee2e617a42Aab5be36c290982493C6CC6C072982",
        "to": "0x00BF426c408c4aD61Ad22B556D0eC0A1370792ED",
        "gas": "0xca70",
        "value": "0x0",
        "input": "0xe91b10fa00000000000000000000000000000000000000000000000000470de4df820000",
        "nonce": "0x1bf",
        "chainId": "0x103c"
      },
      "additionalContracts": [],
      "isFixedGasLimit": false
    },
    {
      "hash": "0xbe1115e7c5968a05bc98137d4da99424bad1fe96e84cc4eef2ce96c21b9001f5",
      "transactionType": "CALL",
      "contractName": "TransparentUpgradeableProxy",
      "contractAddress": "0x536cbD6ca17a10E4b4F9D709827923a6F8D08C3f",
      "function": null,
      "arguments": null,
      "transaction": {
        "from": "0xee2e617a42Aab5be36c290982493C6CC6C072982",
        "to": "0x536cbD6ca17a10E4b4F9D709827923a6F8D08C3f",
        "gas": "0x13b0d",
        "value": "0x0",
        "input": "0x2f2ff15d241ecf16d79d0f8dbfb92cbc07fe17840425976cf0667f022fe9877caa831b080000000000000000000000002d2ba91b7c0ea2db570a5df61304b690fd1a3918",
        "nonce": "0x1c0",
        "chainId": "0x103c"
      },
      "additionalContracts": [],
      "isFixedGasLimit": false
    },
    {
      "hash": "0x311cd4006507efccbf6f09a84b62e7dac9786ef011f81cb481db5452c30cfb23",
      "transactionType": "CALL",
      "contractName": "TransparentUpgradeableProxy",
      "contractAddress": "0x536cbD6ca17a10E4b4F9D709827923a6F8D08C3f",
      "function": null,
      "arguments": null,
      "transaction": {
        "from": "0xee2e617a42Aab5be36c290982493C6CC6C072982",
        "to": "0x536cbD6ca17a10E4b4F9D709827923a6F8D08C3f",
        "gas": "0x13b0d",
        "value": "0x0",
        "input": "0x2f2ff15d241ecf16d79d0f8dbfb92cbc07fe17840425976cf0667f022fe9877caa831b080000000000000000000000001c89357af4f15b351f1ba8a478d944dfa3f45715",
        "nonce": "0x1c1",
        "chainId": "0x103c"
      },
      "additionalContracts": [],
      "isFixedGasLimit": false
    },
    {
      "hash": "0x314edfea416f168ca77641b0781301664d52a1b1bfe4d042937ad8aec021a62d",
      "transactionType": "CALL",
      "contractName": "TransparentUpgradeableProxy",
      "contractAddress": "0x536cbD6ca17a10E4b4F9D709827923a6F8D08C3f",
      "function": null,
      "arguments": null,
      "transaction": {
        "from": "0xee2e617a42Aab5be36c290982493C6CC6C072982",
        "to": "0x536cbD6ca17a10E4b4F9D709827923a6F8D08C3f",
        "gas": "0x13b0d",
        "value": "0x0",
        "input": "0x2f2ff15d241ecf16d79d0f8dbfb92cbc07fe17840425976cf0667f022fe9877caa831b080000000000000000000000006ff2da7eb2df14db66f3f25a0ace6a28e5f15cd9",
        "nonce": "0x1c2",
        "chainId": "0x103c"
      },
      "additionalContracts": [],
      "isFixedGasLimit": false
    },
    {
      "hash": "0x43326c916755201b1271a959627600a11b787bd100212a8972e41abbc95aab4f",
      "transactionType": "CALL",
      "contractName": "TransparentUpgradeableProxy",
      "contractAddress": "0x536cbD6ca17a10E4b4F9D709827923a6F8D08C3f",
      "function": null,
      "arguments": null,
      "transaction": {
        "from": "0xee2e617a42Aab5be36c290982493C6CC6C072982",
        "to": "0x536cbD6ca17a10E4b4F9D709827923a6F8D08C3f",
        "gas": "0x13b0d",
        "value": "0x0",
        "input": "0x2f2ff15d97667070c54ef182b0f5858b034beac1b6f3089aa2d3188bb1e8929f4fa9b9290000000000000000000000002d2ba91b7c0ea2db570a5df61304b690fd1a3918",
        "nonce": "0x1c3",
        "chainId": "0x103c"
      },
      "additionalContracts": [],
      "isFixedGasLimit": false
    },
    {
      "hash": "0x6acfa1c17dee38c4f58e32a559d9e93f6e848be595b05bb7948ec82d16999c9f",
      "transactionType": "CALL",
      "contractName": "TransparentUpgradeableProxy",
      "contractAddress": "0x536cbD6ca17a10E4b4F9D709827923a6F8D08C3f",
      "function": null,
      "arguments": null,
      "transaction": {
        "from": "0xee2e617a42Aab5be36c290982493C6CC6C072982",
        "to": "0x536cbD6ca17a10E4b4F9D709827923a6F8D08C3f",
        "gas": "0x13b0d",
        "value": "0x0",
        "input": "0x2f2ff15d97667070c54ef182b0f5858b034beac1b6f3089aa2d3188bb1e8929f4fa9b9290000000000000000000000001c89357af4f15b351f1ba8a478d944dfa3f45715",
        "nonce": "0x1c4",
        "chainId": "0x103c"
      },
      "additionalContracts": [],
      "isFixedGasLimit": false
    },
    {
      "hash": "0x701e52104f14ce26e0a02b27e01e254ee881938ba3559950b63f3561d10ce214",
      "transactionType": "CALL",
      "contractName": "TransparentUpgradeableProxy",
      "contractAddress": "0x536cbD6ca17a10E4b4F9D709827923a6F8D08C3f",
      "function": null,
      "arguments": null,
      "transaction": {
        "from": "0xee2e617a42Aab5be36c290982493C6CC6C072982",
        "to": "0x536cbD6ca17a10E4b4F9D709827923a6F8D08C3f",
        "gas": "0x13b0d",
        "value": "0x0",
        "input": "0x2f2ff15d97667070c54ef182b0f5858b034beac1b6f3089aa2d3188bb1e8929f4fa9b9290000000000000000000000006ff2da7eb2df14db66f3f25a0ace6a28e5f15cd9",
        "nonce": "0x1c5",
        "chainId": "0x103c"
      },
      "additionalContracts": [],
      "isFixedGasLimit": false
    },
    {
      "hash": "0x69cdad5e63300e4bdb9270da7640aa99f04e5510354c2063ab7db3f177bcfb15",
      "transactionType": "CALL",
      "contractName": "TransparentUpgradeableProxy",
      "contractAddress": "0x536cbD6ca17a10E4b4F9D709827923a6F8D08C3f",
      "function": null,
      "arguments": null,
      "transaction": {
        "from": "0xee2e617a42Aab5be36c290982493C6CC6C072982",
        "to": "0x536cbD6ca17a10E4b4F9D709827923a6F8D08C3f",
        "gas": "0x138fa",
        "value": "0x0",
        "input": "0x2f2ff15d00000000000000000000000000000000000000000000000000000000000000000000000000000000000000002d2ba91b7c0ea2db570a5df61304b690fd1a3918",
        "nonce": "0x1c6",
        "chainId": "0x103c"
      },
      "additionalContracts": [],
      "isFixedGasLimit": false
    },
    {
      "hash": "0x3af58af5e4f4e61396abb99e855bbc03989b4960a41270f69366a6cd7297d2f2",
      "transactionType": "CALL",
      "contractName": "TransparentUpgradeableProxy",
      "contractAddress": "0x536cbD6ca17a10E4b4F9D709827923a6F8D08C3f",
      "function": null,
      "arguments": null,
      "transaction": {
        "from": "0xee2e617a42Aab5be36c290982493C6CC6C072982",
        "to": "0x536cbD6ca17a10E4b4F9D709827923a6F8D08C3f",
        "gas": "0x138fa",
        "value": "0x0",
        "input": "0x2f2ff15d00000000000000000000000000000000000000000000000000000000000000000000000000000000000000001c89357af4f15b351f1ba8a478d944dfa3f45715",
        "nonce": "0x1c7",
        "chainId": "0x103c"
      },
      "additionalContracts": [],
      "isFixedGasLimit": false
    },
    {
      "hash": "0x68b6447d1de76c7553a204ea388540273660fbce19a7d458fb568457aec13c6f",
      "transactionType": "CALL",
      "contractName": "TransparentUpgradeableProxy",
      "contractAddress": "0x536cbD6ca17a10E4b4F9D709827923a6F8D08C3f",
      "function": null,
      "arguments": null,
      "transaction": {
        "from": "0xee2e617a42Aab5be36c290982493C6CC6C072982",
        "to": "0x536cbD6ca17a10E4b4F9D709827923a6F8D08C3f",
        "gas": "0x138fa",
        "value": "0x0",
        "input": "0x2f2ff15d00000000000000000000000000000000000000000000000000000000000000000000000000000000000000006ff2da7eb2df14db66f3f25a0ace6a28e5f15cd9",
        "nonce": "0x1c8",
        "chainId": "0x103c"
      },
      "additionalContracts": [],
      "isFixedGasLimit": false
    },
    {
      "hash": "0x70c032429628d5459b103d58f510ce6e8268310a25c54d1a22ce03c8334fdb69",
      "transactionType": "CALL",
      "contractName": "TransparentUpgradeableProxy",
      "contractAddress": "0x536cbD6ca17a10E4b4F9D709827923a6F8D08C3f",
      "function": null,
      "arguments": null,
      "transaction": {
        "from": "0xee2e617a42Aab5be36c290982493C6CC6C072982",
        "to": "0x536cbD6ca17a10E4b4F9D709827923a6F8D08C3f",
        "gas": "0x55544",
        "value": "0x0",
        "input": "0xe27829840000000000000000000000000000000000000000000000000000000000000040000000000000000000000000000000000000000000000000000000000000000100000000000000000000000000000000000000000000000000000000000000306d7876616c6f70657231677a61357939346b616c323565617773656e6c35367468386b6479756a737a6d63737863677300000000000000000000000000000000",
        "nonce": "0x1c9",
        "chainId": "0x103c"
      },
      "additionalContracts": [],
      "isFixedGasLimit": false
    },
    {
      "hash": "0xd765b85ef38973222146f7056def56d00488d4251d6f8bf84839e69a14462f33",
      "transactionType": "CALL",
      "contractName": "TransparentUpgradeableProxy",
      "contractAddress": "0x536cbD6ca17a10E4b4F9D709827923a6F8D08C3f",
      "function": null,
      "arguments": null,
      "transaction": {
        "from": "0xee2e617a42Aab5be36c290982493C6CC6C072982",
        "to": "0x536cbD6ca17a10E4b4F9D709827923a6F8D08C3f",
        "gas": "0x4f93b",
        "value": "0x0",
        "input": "0xe27829840000000000000000000000000000000000000000000000000000000000000040000000000000000000000000000000000000000000000000000000000000000100000000000000000000000000000000000000000000000000000000000000306d7876616c6f706572316a70306d37796e777476726b6e7a6c6d647a6172676d6435396d68386e39676b68397966776d00000000000000000000000000000000",
        "nonce": "0x1ca",
        "chainId": "0x103c"
      },
      "additionalContracts": [],
      "isFixedGasLimit": false
    },
    {
      "hash": "0x637b08cbb106df67a3ce090af1f9c0c12e8a059dfd53ae63d02b5df29fa8ae30",
      "transactionType": "CALL",
      "contractName": "TransparentUpgradeableProxy",
      "contractAddress": "0x536cbD6ca17a10E4b4F9D709827923a6F8D08C3f",
      "function": null,
      "arguments": null,
      "transaction": {
        "from": "0xee2e617a42Aab5be36c290982493C6CC6C072982",
        "to": "0x536cbD6ca17a10E4b4F9D709827923a6F8D08C3f",
        "gas": "0x543e4",
        "value": "0x0",
        "input": "0xe27829840000000000000000000000000000000000000000000000000000000000000040000000000000000000000000000000000000000000000000000000000000000100000000000000000000000000000000000000000000000000000000000000306d7876616c6f7065723172667a613871666b7477793436756a72756e64747835733574683664713876666e777363703300000000000000000000000000000000",
        "nonce": "0x1cb",
        "chainId": "0x103c"
      },
      "additionalContracts": [],
      "isFixedGasLimit": false
    },
    {
      "hash": "0x1c1a58532d05c863984332a395b9877a2d3a32e765746ea5d855dda0a1394f23",
      "transactionType": "CALL",
      "contractName": "TransparentUpgradeableProxy",
      "contractAddress": "0x536cbD6ca17a10E4b4F9D709827923a6F8D08C3f",
      "function": null,
      "arguments": null,
      "transaction": {
        "from": "0xee2e617a42Aab5be36c290982493C6CC6C072982",
        "to": "0x536cbD6ca17a10E4b4F9D709827923a6F8D08C3f",
        "gas": "0x542b1",
        "value": "0x0",
        "input": "0xe27829840000000000000000000000000000000000000000000000000000000000000040000000000000000000000000000000000000000000000000000000000000000100000000000000000000000000000000000000000000000000000000000000306d7876616c6f7065723132773032337233766a6a6d686b386e7373397535396e7032326d6a736a38796b77726c78733700000000000000000000000000000000",
        "nonce": "0x1cc",
        "chainId": "0x103c"
      },
      "additionalContracts": [],
      "isFixedGasLimit": false
    },
    {
      "hash": "0x90bd4740be8b98b9b46cd46939b464498185aa9f6c1d22ccfe5c08929bae3649",
      "transactionType": "CALL",
      "contractName": "TransparentUpgradeableProxy",
      "contractAddress": "0x536cbD6ca17a10E4b4F9D709827923a6F8D08C3f",
      "function": null,
      "arguments": null,
      "transaction": {
        "from": "0xee2e617a42Aab5be36c290982493C6CC6C072982",
        "to": "0x536cbD6ca17a10E4b4F9D709827923a6F8D08C3f",
        "gas": "0x4f88d",
        "value": "0x0",
        "input": "0xe27829840000000000000000000000000000000000000000000000000000000000000040000000000000000000000000000000000000000000000000000000000000000100000000000000000000000000000000000000000000000000000000000000306d7876616c6f706572317a677278396a6a7172667965387377796c636d727871336b393265396a3837327339616d717500000000000000000000000000000000",
        "nonce": "0x1cd",
        "chainId": "0x103c"
      },
      "additionalContracts": [],
      "isFixedGasLimit": false
    },
    {
      "hash": "0xedb8eeda75d952733d64d5cc8d325a2b776b2056106c240f3791a35ea89c43c3",
      "transactionType": "CALL",
      "contractName": "TransparentUpgradeableProxy",
      "contractAddress": "0x536cbD6ca17a10E4b4F9D709827923a6F8D08C3f",
      "function": null,
      "arguments": null,
      "transaction": {
        "from": "0xee2e617a42Aab5be36c290982493C6CC6C072982",
        "to": "0x536cbD6ca17a10E4b4F9D709827923a6F8D08C3f",
        "gas": "0x542b1",
        "value": "0x0",
        "input": "0xe27829840000000000000000000000000000000000000000000000000000000000000040000000000000000000000000000000000000000000000000000000000000000100000000000000000000000000000000000000000000000000000000000000306d7876616c6f706572316b6a72356768307733687278773972376534706a7736767a356b797775706d37397435386e3400000000000000000000000000000000",
        "nonce": "0x1ce",
        "chainId": "0x103c"
      },
      "additionalContracts": [],
      "isFixedGasLimit": false
    },
    {
      "hash": "0xe77a36e2759dcbcc2e26bc79e7549f487a34ab749438ac9544d7f1111c38341f",
      "transactionType": "CALL",
      "contractName": "TransparentUpgradeableProxy",
      "contractAddress": "0x536cbD6ca17a10E4b4F9D709827923a6F8D08C3f",
      "function": null,
      "arguments": null,
      "transaction": {
        "from": "0xee2e617a42Aab5be36c290982493C6CC6C072982",
        "to": "0x536cbD6ca17a10E4b4F9D709827923a6F8D08C3f",
        "gas": "0x4f88d",
        "value": "0x0",
        "input": "0xe27829840000000000000000000000000000000000000000000000000000000000000040000000000000000000000000000000000000000000000000000000000000000100000000000000000000000000000000000000000000000000000000000000306d7876616c6f706572316c7468737774646c33647a6b707071336565336b6e346a6d36646b786470373974387871363300000000000000000000000000000000",
        "nonce": "0x1cf",
        "chainId": "0x103c"
      },
      "additionalContracts": [],
      "isFixedGasLimit": false
    },
    {
      "hash": "0x9bb64c87aba6ebb327c4ff61a21db7a8d519ab818d6cabcd1c526943838b3669",
      "transactionType": "CALL",
      "contractName": "TransparentUpgradeableProxy",
      "contractAddress": "0x536cbD6ca17a10E4b4F9D709827923a6F8D08C3f",
      "function": null,
      "arguments": null,
      "transaction": {
        "from": "0xee2e617a42Aab5be36c290982493C6CC6C072982",
        "to": "0x536cbD6ca17a10E4b4F9D709827923a6F8D08C3f",
        "gas": "0x542b1",
        "value": "0x0",
        "input": "0xe27829840000000000000000000000000000000000000000000000000000000000000040000000000000000000000000000000000000000000000000000000000000000100000000000000000000000000000000000000000000000000000000000000306d7876616c6f7065723177306d34386a367a656a6c3635707772743864386638386a64736a66706e653467377172356a00000000000000000000000000000000",
        "nonce": "0x1d0",
        "chainId": "0x103c"
      },
      "additionalContracts": [],
      "isFixedGasLimit": false
    },
    {
      "hash": "0x49b4ca5fc5393da7f52243ca83783fbf98fd3c6ed9b60a2e085eddc4587da667",
      "transactionType": "CALL",
      "contractName": "TransparentUpgradeableProxy",
      "contractAddress": "0x536cbD6ca17a10E4b4F9D709827923a6F8D08C3f",
      "function": null,
      "arguments": null,
      "transaction": {
        "from": "0xee2e617a42Aab5be36c290982493C6CC6C072982",
        "to": "0x536cbD6ca17a10E4b4F9D709827923a6F8D08C3f",
        "gas": "0x541f8",
        "value": "0x0",
        "input": "0xe27829840000000000000000000000000000000000000000000000000000000000000040000000000000000000000000000000000000000000000000000000000000000100000000000000000000000000000000000000000000000000000000000000306d7876616c6f70657231716a343532667235633872353964747635756c6c6b653737366530377835706b36756d6c683400000000000000000000000000000000",
        "nonce": "0x1d1",
        "chainId": "0x103c"
      },
      "additionalContracts": [],
      "isFixedGasLimit": false
    },
    {
      "hash": "0x13a04f2e34df79cab7b10c7e7f795619011b3f1a914f5fdd2b63d7e5cc9553e2",
      "transactionType": "CALL",
      "contractName": "TransparentUpgradeableProxy",
      "contractAddress": "0x536cbD6ca17a10E4b4F9D709827923a6F8D08C3f",
      "function": null,
      "arguments": null,
      "transaction": {
        "from": "0xee2e617a42Aab5be36c290982493C6CC6C072982",
        "to": "0x536cbD6ca17a10E4b4F9D709827923a6F8D08C3f",
        "gas": "0x4f93b",
        "value": "0x0",
        "input": "0xe27829840000000000000000000000000000000000000000000000000000000000000040000000000000000000000000000000000000000000000000000000000000000100000000000000000000000000000000000000000000000000000000000000306d7876616c6f706572317773676d336a6c67637871377666746c647a3768666d7766677139386872756a39796a67723500000000000000000000000000000000",
        "nonce": "0x1d2",
        "chainId": "0x103c"
      },
      "additionalContracts": [],
      "isFixedGasLimit": false
    }
  ],
  "receipts": [
    {
      "status": "0x1",
      "cumulativeGasUsed": "0x2c370",
      "logs": [],
      "logsBloom": "0x00000000000000000000000000000000000000000000000000000000000000000000000000000000000000000000000000000000000000000000000000000000000000000000000000000000000000000000000000000000000000000000000000000000000000000000000000000000000000000000000000000000000000000000000000000000000000000000000000000000000000000000000000000000000000000000000000000000000000000000000000000000000000000000000000000000000000000000000000000000000000000000000000000000000000000000000000000000000000000000000000000000000000000000000000000000",
      "type": "0x2",
      "transactionHash": "0x3a031d472a181755adf65227248057257fe560837f9385fdeacd36d4107c423b",
      "transactionIndex": "0x0",
      "blockHash": "0xcec40cde4a8789f806936caae770a069a3f23a05819a740cc366860fe7aa21ed",
      "blockNumber": "0x8ef927",
      "gasUsed": "0x2c370",
      "effectiveGasPrice": "0x746a528801",
      "from": "0xee2e617a42Aab5be36c290982493C6CC6C072982",
      "to": null,
      "contractAddress": "0xC6569965a61BEdF4AfA97cBba177Dc7FB894ACB2"
    },
    {
      "status": "0x1",
      "cumulativeGasUsed": "0x105b6",
      "logs": [],
      "logsBloom": "0x00000000000000000000000000000000000000000000000000000000000000000000000000000000000000000000000000000000000000000000000000000000000000000000000000000000000000000000000000000000000000000000000000000000000000000000000000000000000000000000000000000000000000000000000000000000000000000000000000000000000000000000000000000000000000000000000000000000000000000000000000000000000000000000000000000000000000000000000000000000000000000000000000000000000000000000000000000000000000000000000000000000000000000000000000000000",
      "type": "0x2",
      "transactionHash": "0xb34a3898f4998337a52d61d7b7bcd43451d0f82714cd51625aa794fa4e367c41",
      "transactionIndex": "0x0",
      "blockHash": "0x24ad14c7df38dfddc6c748dc07f6b4edda3bbd11dd3659b5862b7e85dd42c4f7",
      "blockNumber": "0x8ef928",
      "gasUsed": "0x105b6",
      "effectiveGasPrice": "0x746a528801",
      "from": "0xee2e617a42Aab5be36c290982493C6CC6C072982",
      "to": "0xC6569965a61BEdF4AfA97cBba177Dc7FB894ACB2",
      "contractAddress": null
    },
    {
      "status": "0x1",
      "cumulativeGasUsed": "0xebddb",
      "logs": [],
      "logsBloom": "0x00000000000000000000000000000000000000000000000000000000000000000000000000000000000000000000000000000000000000000000000000000000000000000000000000000000000000000000000000000000000000000000000000000000000000000000000000000000000000000000000000000000000000000000000000000000000000000000000000000000000000000000000000000000000000000000000000000000000000000000000000000000000000000000000000000000000000000000000000000000000000000000000000000000000000000000000000000000000000000000000000000000000000000000000000000000",
      "type": "0x2",
      "transactionHash": "0xa15cb14782932079c19823f367a4d47cf3c595d91d6d70a6273fa32c6f6ce337",
      "transactionIndex": "0x0",
      "blockHash": "0x6a2dd1480a8abdd517b651febb2c13b64773c8a71c771788fcea7a4d2f8590b5",
      "blockNumber": "0x8ef92a",
      "gasUsed": "0xebddb",
      "effectiveGasPrice": "0x746a528801",
      "from": "0xee2e617a42Aab5be36c290982493C6CC6C072982",
      "to": null,
      "contractAddress": "0x938c6e70A863621Dc63124043A86F954F65f0174"
    },
    {
      "status": "0x1",
      "cumulativeGasUsed": "0x37572d",
      "logs": [],
      "logsBloom": "0x00000000000000000000000000000000000000000000000000000000000000000000000000000000000000000000000000000000000000000000000000000000000000000000000000000000000000000000000000000000000000000000000000000000000000000000000000000000000000000000000000000000000000000000000000000000000000000000000000000000000000000000000000000000000000000000000000000000000000000000000000000000000000000000000000000000000000000000000000000000000000000000000000000000000000000000000000000000000000000000000000000000000000000000000000000000",
      "type": "0x2",
      "transactionHash": "0x5358e6ece2a188ac5f5941c0893dbee8b1e41a0a6dcd1c58311a20e507c0dc4a",
      "transactionIndex": "0x0",
      "blockHash": "0x236b83e4dd49c99a8ccfe017bf5071faa1943fbb1564ab8da62d4acfbb34c6cf",
      "blockNumber": "0x8ef92b",
      "gasUsed": "0x37572d",
      "effectiveGasPrice": "0x746a528801",
      "from": "0xee2e617a42Aab5be36c290982493C6CC6C072982",
      "to": null,
      "contractAddress": "0x8de80F7B0A4Df74bF30Fd26494cb712f052b0748"
    },
    {
      "status": "0x1",
      "cumulativeGasUsed": "0x64dd8",
      "logs": [
        {
          "address": "0x7d0e7c8E9eDb11CcbDCf6b8af6E4a6EB9203052E",
          "topics": [
            "0x8be0079c531659141344cd1fd0a4f28419497f9722a3daafe3b4186f6b6457e0",
            "0x0000000000000000000000000000000000000000000000000000000000000000",
            "0x000000000000000000000000ee2e617a42aab5be36c290982493c6cc6c072982"
          ],
          "data": "0x",
          "blockHash": "0x360b21ebdde87b4bbe41e4f292d7bc1dcd27677fa093c3bea5971a874ccfdd1d",
          "blockNumber": "0x8ef92c",
          "transactionHash": "0xca320b9d65e7e951d41a7dd9371d45d917d28a5509e2c2938deb4f930a9369eb",
          "transactionIndex": "0x0",
          "logIndex": "0x0",
          "removed": false
        }
      ],
      "logsBloom": "0x00000000000000000000000000000000000000000000000000800000000000000000000000000000004000000000000000000000000000000000000002000000000000000000000000000000000000000001000000000000000000000000000000000000020000000000000000000800000000000000000000000000000000400000000000000000000000000000008000000000000000000000000000000020000000000000000000000000000000000000000400000000002000000000000000000000000000000000000000000000000000000000000000000000000020000000000000000000000000000000000000000000000000000000000000000000",
      "type": "0x2",
      "transactionHash": "0xca320b9d65e7e951d41a7dd9371d45d917d28a5509e2c2938deb4f930a9369eb",
      "transactionIndex": "0x0",
      "blockHash": "0x360b21ebdde87b4bbe41e4f292d7bc1dcd27677fa093c3bea5971a874ccfdd1d",
      "blockNumber": "0x8ef92c",
      "gasUsed": "0x64dd8",
      "effectiveGasPrice": "0x746a528801",
      "from": "0xee2e617a42Aab5be36c290982493C6CC6C072982",
      "to": null,
      "contractAddress": "0x7d0e7c8E9eDb11CcbDCf6b8af6E4a6EB9203052E"
    },
    {
      "status": "0x1",
      "cumulativeGasUsed": "0xaacb7",
      "logs": [
        {
          "address": "0x00BF426c408c4aD61Ad22B556D0eC0A1370792ED",
          "topics": [
            "0xbc7cd75a20ee27fd9adebab32041f755214dbc6bffa90cc0225b39da2e5c2d3b",
            "0x000000000000000000000000938c6e70a863621dc63124043a86f954f65f0174"
          ],
          "data": "0x",
          "blockHash": "0xdec8106364038f27bd32a9cc05edc56a18a0fd49811407213751d2020d97e41f",
          "blockNumber": "0x8ef92e",
          "transactionHash": "0xbecf99f39d3017a97231f66fad435ab472cf4beddde3a3ca78a08806ae35cce8",
          "transactionIndex": "0x0",
          "logIndex": "0x0",
          "removed": false
        },
        {
          "address": "0x00BF426c408c4aD61Ad22B556D0eC0A1370792ED",
          "topics": [
            "0x2f8788117e7eff1d82e926ec794901d17c78024a50270940304540a733656f0d",
            "0x0000000000000000000000000000000000000000000000000000000000000000",
            "0x000000000000000000000000ee2e617a42aab5be36c290982493c6cc6c072982",
            "0x000000000000000000000000ee2e617a42aab5be36c290982493c6cc6c072982"
          ],
          "data": "0x",
          "blockHash": "0xdec8106364038f27bd32a9cc05edc56a18a0fd49811407213751d2020d97e41f",
          "blockNumber": "0x8ef92e",
          "transactionHash": "0xbecf99f39d3017a97231f66fad435ab472cf4beddde3a3ca78a08806ae35cce8",
          "transactionIndex": "0x0",
          "logIndex": "0x1",
          "removed": false
        },
        {
          "address": "0x00BF426c408c4aD61Ad22B556D0eC0A1370792ED",
          "topics": [
            "0x2f8788117e7eff1d82e926ec794901d17c78024a50270940304540a733656f0d",
            "0x9792fdc19ab98adfa72ab2fa98d342618c661e01c406979c105b31eda87f5e6f",
            "0x000000000000000000000000ee2e617a42aab5be36c290982493c6cc6c072982",
            "0x000000000000000000000000ee2e617a42aab5be36c290982493c6cc6c072982"
          ],
          "data": "0x",
          "blockHash": "0xdec8106364038f27bd32a9cc05edc56a18a0fd49811407213751d2020d97e41f",
          "blockNumber": "0x8ef92e",
          "transactionHash": "0xbecf99f39d3017a97231f66fad435ab472cf4beddde3a3ca78a08806ae35cce8",
          "transactionIndex": "0x0",
          "logIndex": "0x2",
          "removed": false
        },
        {
          "address": "0x00BF426c408c4aD61Ad22B556D0eC0A1370792ED",
          "topics": [
            "0x7f26b83ff96e1f2b6a682f133852f6798a09c465da95921460cefb3847402498"
          ],
          "data": "0x0000000000000000000000000000000000000000000000000000000000000001",
          "blockHash": "0xdec8106364038f27bd32a9cc05edc56a18a0fd49811407213751d2020d97e41f",
          "blockNumber": "0x8ef92e",
          "transactionHash": "0xbecf99f39d3017a97231f66fad435ab472cf4beddde3a3ca78a08806ae35cce8",
          "transactionIndex": "0x0",
          "logIndex": "0x3",
          "removed": false
        },
        {
          "address": "0x00BF426c408c4aD61Ad22B556D0eC0A1370792ED",
          "topics": [
            "0x7e644d79422f17c01e4894b5f4f588d331ebfa28653d42ae832dc59e38c9798f"
          ],
          "data": "0x00000000000000000000000000000000000000000000000000000000000000000000000000000000000000007d0e7c8e9edb11ccbdcf6b8af6e4a6eb9203052e",
          "blockHash": "0xdec8106364038f27bd32a9cc05edc56a18a0fd49811407213751d2020d97e41f",
          "blockNumber": "0x8ef92e",
          "transactionHash": "0xbecf99f39d3017a97231f66fad435ab472cf4beddde3a3ca78a08806ae35cce8",
          "transactionIndex": "0x0",
          "logIndex": "0x4",
          "removed": false
        }
      ],
      "logsBloom": "0x00000004000000004000000000000000400000000000000000000000000000000000000000000000000000000000000000000000000000000000000000000000000000000000000000080000000002000000000000000000000000000000000000000000020000000000000000000800000000800000000000000000000000000800000000000000000000000000000000000000000080000000000000800020000002000000000080000000000400000000000400000000003000000000000000000020400000000000000000040000000000000400000100000000000020000000080000000000000000000000080000000000000000000000000000000000",
      "type": "0x2",
      "transactionHash": "0xbecf99f39d3017a97231f66fad435ab472cf4beddde3a3ca78a08806ae35cce8",
      "transactionIndex": "0x0",
      "blockHash": "0xdec8106364038f27bd32a9cc05edc56a18a0fd49811407213751d2020d97e41f",
      "blockNumber": "0x8ef92e",
      "gasUsed": "0xaacb7",
      "effectiveGasPrice": "0x746a528801",
      "from": "0xee2e617a42Aab5be36c290982493C6CC6C072982",
      "to": null,
      "contractAddress": "0x00BF426c408c4aD61Ad22B556D0eC0A1370792ED"
    },
    {
      "status": "0x1",
      "cumulativeGasUsed": "0xc0a27",
      "logs": [
        {
          "address": "0x536cbD6ca17a10E4b4F9D709827923a6F8D08C3f",
          "topics": [
            "0xbc7cd75a20ee27fd9adebab32041f755214dbc6bffa90cc0225b39da2e5c2d3b",
            "0x0000000000000000000000008de80f7b0a4df74bf30fd26494cb712f052b0748"
          ],
          "data": "0x",
          "blockHash": "0x1082d1eb72676fbf0306a34ce6821291b7980cb93f929b526b96448454d213fb",
          "blockNumber": "0x8ef92f",
          "transactionHash": "0x8bfe02cb15eb7d022c762be386a5338a4ce851a55395a0ad1de3d09d24dd6c32",
          "transactionIndex": "0x0",
          "logIndex": "0x0",
          "removed": false
        },
        {
          "address": "0x536cbD6ca17a10E4b4F9D709827923a6F8D08C3f",
          "topics": [
            "0x2f8788117e7eff1d82e926ec794901d17c78024a50270940304540a733656f0d",
            "0x0000000000000000000000000000000000000000000000000000000000000000",
            "0x000000000000000000000000ee2e617a42aab5be36c290982493c6cc6c072982",
            "0x000000000000000000000000ee2e617a42aab5be36c290982493c6cc6c072982"
          ],
          "data": "0x",
          "blockHash": "0x1082d1eb72676fbf0306a34ce6821291b7980cb93f929b526b96448454d213fb",
          "blockNumber": "0x8ef92f",
          "transactionHash": "0x8bfe02cb15eb7d022c762be386a5338a4ce851a55395a0ad1de3d09d24dd6c32",
          "transactionIndex": "0x0",
          "logIndex": "0x1",
          "removed": false
        },
        {
          "address": "0x536cbD6ca17a10E4b4F9D709827923a6F8D08C3f",
          "topics": [
            "0x2f8788117e7eff1d82e926ec794901d17c78024a50270940304540a733656f0d",
            "0x241ecf16d79d0f8dbfb92cbc07fe17840425976cf0667f022fe9877caa831b08",
            "0x000000000000000000000000ee2e617a42aab5be36c290982493c6cc6c072982",
            "0x000000000000000000000000ee2e617a42aab5be36c290982493c6cc6c072982"
          ],
          "data": "0x",
          "blockHash": "0x1082d1eb72676fbf0306a34ce6821291b7980cb93f929b526b96448454d213fb",
          "blockNumber": "0x8ef92f",
          "transactionHash": "0x8bfe02cb15eb7d022c762be386a5338a4ce851a55395a0ad1de3d09d24dd6c32",
          "transactionIndex": "0x0",
          "logIndex": "0x2",
          "removed": false
        },
        {
          "address": "0x536cbD6ca17a10E4b4F9D709827923a6F8D08C3f",
          "topics": [
            "0x7f26b83ff96e1f2b6a682f133852f6798a09c465da95921460cefb3847402498"
          ],
          "data": "0x0000000000000000000000000000000000000000000000000000000000000001",
          "blockHash": "0x1082d1eb72676fbf0306a34ce6821291b7980cb93f929b526b96448454d213fb",
          "blockNumber": "0x8ef92f",
          "transactionHash": "0x8bfe02cb15eb7d022c762be386a5338a4ce851a55395a0ad1de3d09d24dd6c32",
          "transactionIndex": "0x0",
          "logIndex": "0x3",
          "removed": false
        },
        {
          "address": "0x536cbD6ca17a10E4b4F9D709827923a6F8D08C3f",
          "topics": [
            "0x7e644d79422f17c01e4894b5f4f588d331ebfa28653d42ae832dc59e38c9798f"
          ],
          "data": "0x00000000000000000000000000000000000000000000000000000000000000000000000000000000000000007d0e7c8e9edb11ccbdcf6b8af6e4a6eb9203052e",
          "blockHash": "0x1082d1eb72676fbf0306a34ce6821291b7980cb93f929b526b96448454d213fb",
          "blockNumber": "0x8ef92f",
          "transactionHash": "0x8bfe02cb15eb7d022c762be386a5338a4ce851a55395a0ad1de3d09d24dd6c32",
          "transactionIndex": "0x0",
          "logIndex": "0x4",
          "removed": false
        }
      ],
      "logsBloom": "0x00000004000000000000000000000000400000000000000000000000000000000000000000000000000000000000000000000000000000000000000000000000000010000020020000000000000002000000000000000000000000000000000000000000020000000004000000000810000000800000000008000000000000000040000000000000000000000000000000000000000080000000000000800020000000000000000000000000000400000000000400000000007000000000000000000020000000000000020000040000000000000400000100000000000020000000000000000000000000000000000000000000000000000000000000000000",
      "type": "0x2",
      "transactionHash": "0x8bfe02cb15eb7d022c762be386a5338a4ce851a55395a0ad1de3d09d24dd6c32",
      "transactionIndex": "0x0",
      "blockHash": "0x1082d1eb72676fbf0306a34ce6821291b7980cb93f929b526b96448454d213fb",
      "blockNumber": "0x8ef92f",
      "gasUsed": "0xc0a27",
      "effectiveGasPrice": "0x746a528801",
      "from": "0xee2e617a42Aab5be36c290982493C6CC6C072982",
      "to": null,
      "contractAddress": "0x536cbD6ca17a10E4b4F9D709827923a6F8D08C3f"
    },
    {
      "status": "0x1",
      "cumulativeGasUsed": "0x8b7b",
      "logs": [],
      "logsBloom": "0x00000000000000000000000000000000000000000000000000000000000000000000000000000000000000000000000000000000000000000000000000000000000000000000000000000000000000000000000000000000000000000000000000000000000000000000000000000000000000000000000000000000000000000000000000000000000000000000000000000000000000000000000000000000000000000000000000000000000000000000000000000000000000000000000000000000000000000000000000000000000000000000000000000000000000000000000000000000000000000000000000000000000000000000000000000000",
      "type": "0x2",
      "transactionHash": "0xe898f89249ab6253f5d2779e02474b3cfcb35850794b4e5bbc7caefedda4a7bf",
      "transactionIndex": "0x0",
      "blockHash": "0x1b471d405896fb792a6e5e463025fbe3bb9e8dbdb71c841b780a2b8b36caede9",
      "blockNumber": "0x8ef931",
      "gasUsed": "0x8b7b",
      "effectiveGasPrice": "0x746a528801",
      "from": "0xee2e617a42Aab5be36c290982493C6CC6C072982",
      "to": "0x536cbD6ca17a10E4b4F9D709827923a6F8D08C3f",
      "contractAddress": null
    },
    {
      "status": "0x1",
      "cumulativeGasUsed": "0x8e67",
      "logs": [],
      "logsBloom": "0x00000000000000000000000000000000000000000000000000000000000000000000000000000000000000000000000000000000000000000000000000000000000000000000000000000000000000000000000000000000000000000000000000000000000000000000000000000000000000000000000000000000000000000000000000000000000000000000000000000000000000000000000000000000000000000000000000000000000000000000000000000000000000000000000000000000000000000000000000000000000000000000000000000000000000000000000000000000000000000000000000000000000000000000000000000000",
      "type": "0x2",
      "transactionHash": "0x48ae479e557a3334683b08bb34b270c928ac9904360fbe0730faf76a19714d9d",
      "transactionIndex": "0x0",
      "blockHash": "0xbfb7be0a12b28d6f7c4cf28300955e5647130ffd2ae2e440a415694e2ee041fd",
      "blockNumber": "0x8ef932",
      "gasUsed": "0x8e67",
      "effectiveGasPrice": "0x746a528801",
      "from": "0xee2e617a42Aab5be36c290982493C6CC6C072982",
      "to": "0x536cbD6ca17a10E4b4F9D709827923a6F8D08C3f",
      "contractAddress": null
    },
    {
      "status": "0x1",
      "cumulativeGasUsed": "0x8eeb",
      "logs": [],
      "logsBloom": "0x00000000000000000000000000000000000000000000000000000000000000000000000000000000000000000000000000000000000000000000000000000000000000000000000000000000000000000000000000000000000000000000000000000000000000000000000000000000000000000000000000000000000000000000000000000000000000000000000000000000000000000000000000000000000000000000000000000000000000000000000000000000000000000000000000000000000000000000000000000000000000000000000000000000000000000000000000000000000000000000000000000000000000000000000000000000",
      "type": "0x2",
      "transactionHash": "0xda0f90d107c0f510238d2fa4c49a42e23b7f33024dff3059729ebcc51e152899",
      "transactionIndex": "0x0",
      "blockHash": "0x1b3f134d6cdba816b404810ecc6ed03b89f7d561f5192eb078b2c10edc14c143",
      "blockNumber": "0x8ef934",
      "gasUsed": "0x8eeb",
      "effectiveGasPrice": "0x746a528801",
      "from": "0xee2e617a42Aab5be36c290982493C6CC6C072982",
      "to": "0x536cbD6ca17a10E4b4F9D709827923a6F8D08C3f",
      "contractAddress": null
    },
    {
      "status": "0x1",
      "cumulativeGasUsed": "0x9290",
      "logs": [
        {
          "address": "0x00BF426c408c4aD61Ad22B556D0eC0A1370792ED",
          "topics": [
            "0x159e83f4712ba2552e68be9d848e49bf6dd35c24f19564ffd523b6549450a2f4",
            "0x49d1edfc45745215fb1af941c080e34c8cb1339ccd6252e9ba44624e8cb6d8c6"
          ],
          "data": "0x00000000000000000000000000000000000000000000000000470de4df820000",
          "blockHash": "0x451401e965a5f48a1f72c216251482480bac66e704eb10281db0a15504dfee60",
          "blockNumber": "0x8ef935",
          "transactionHash": "0xb3ed03d3f3b726c315984c9e53c8ae6f1815ae32edc05f1e2f56ec3b5d8d5198",
          "transactionIndex": "0x0",
          "logIndex": "0x0",
          "removed": false
        }
      ],
      "logsBloom": "0x00000000000000004040000000000000000000000000000000000000000000000000000000000000000000000000000000000000000000000000000000000000000000000000020020000000000000000000000000000000000000000000000000000000000000000000000000000000000000004000000000000000000000000000000000000000000000000000000000000000000000000000000000000000000000000000000000000000000000000000000000001000000000000000000000000000400000000000000000040000000000000000000000020000000000000000000000000000000000000000000000000000000000000000000000000000",
      "type": "0x2",
      "transactionHash": "0xb3ed03d3f3b726c315984c9e53c8ae6f1815ae32edc05f1e2f56ec3b5d8d5198",
      "transactionIndex": "0x0",
      "blockHash": "0x451401e965a5f48a1f72c216251482480bac66e704eb10281db0a15504dfee60",
      "blockNumber": "0x8ef935",
      "gasUsed": "0x9290",
      "effectiveGasPrice": "0x746a528801",
      "from": "0xee2e617a42Aab5be36c290982493C6CC6C072982",
      "to": "0x00BF426c408c4aD61Ad22B556D0eC0A1370792ED",
      "contractAddress": null
    },
    {
      "status": "0x1",
      "cumulativeGasUsed": "0xe418",
      "logs": [
        {
          "address": "0x536cbD6ca17a10E4b4F9D709827923a6F8D08C3f",
          "topics": [
            "0x2f8788117e7eff1d82e926ec794901d17c78024a50270940304540a733656f0d",
            "0x241ecf16d79d0f8dbfb92cbc07fe17840425976cf0667f022fe9877caa831b08",
            "0x0000000000000000000000002d2ba91b7c0ea2db570a5df61304b690fd1a3918",
            "0x000000000000000000000000ee2e617a42aab5be36c290982493c6cc6c072982"
          ],
          "data": "0x",
          "blockHash": "0x7792c427aef2b1dbb099eb5a0fa7cef1fe4c4f8a76b78884739a2e9738dccca3",
          "blockNumber": "0x8ef936",
          "transactionHash": "0xbe1115e7c5968a05bc98137d4da99424bad1fe96e84cc4eef2ce96c21b9001f5",
          "transactionIndex": "0x0",
          "logIndex": "0x0",
          "removed": false
        }
      ],
      "logsBloom": "0x00000004000000000000000000000000000000000000000000000000000000000000000000000000000000000000000000000000000000000000000000000000000010000020020000000000000000000000000000000000000000000000000000000000000000000004000000000000000000000000000000000000000000000040100000000000000000000000000000000000000000000000000000000020000000000000000000000000000000000000000400004000003000000000000000000000000000000000020000000000000000000000000100000000000000000000000000000000000000000000000000000000000000008000000000000000",
      "type": "0x2",
      "transactionHash": "0xbe1115e7c5968a05bc98137d4da99424bad1fe96e84cc4eef2ce96c21b9001f5",
      "transactionIndex": "0x0",
      "blockHash": "0x7792c427aef2b1dbb099eb5a0fa7cef1fe4c4f8a76b78884739a2e9738dccca3",
      "blockNumber": "0x8ef936",
      "gasUsed": "0xe418",
      "effectiveGasPrice": "0x746a528801",
      "from": "0xee2e617a42Aab5be36c290982493C6CC6C072982",
      "to": "0x536cbD6ca17a10E4b4F9D709827923a6F8D08C3f",
      "contractAddress": null
    },
    {
      "status": "0x1",
      "cumulativeGasUsed": "0xe418",
      "logs": [
        {
          "address": "0x536cbD6ca17a10E4b4F9D709827923a6F8D08C3f",
          "topics": [
            "0x2f8788117e7eff1d82e926ec794901d17c78024a50270940304540a733656f0d",
            "0x241ecf16d79d0f8dbfb92cbc07fe17840425976cf0667f022fe9877caa831b08",
            "0x0000000000000000000000001c89357af4f15b351f1ba8a478d944dfa3f45715",
            "0x000000000000000000000000ee2e617a42aab5be36c290982493c6cc6c072982"
          ],
          "data": "0x",
          "blockHash": "0xd311dfbebd9745d2b0cb7a2a82ddafd4493d55a8f8c82ca5f05e54c5adcf6373",
          "blockNumber": "0x8ef938",
          "transactionHash": "0x311cd4006507efccbf6f09a84b62e7dac9786ef011f81cb481db5452c30cfb23",
          "transactionIndex": "0x0",
          "logIndex": "0x0",
          "removed": false
        }
      ],
      "logsBloom": "0x00000004000000000000000000000000000000000100000000000010000000000000000000000000000000000000000000000000000000000000000000000000000010000020020000000000200000000000000000000000000000000000000000000000000000000004000000000000000000000000000000000000000000000040000000000000000000000000000000000000000000000000000000000020000000000000000000000000000000000000000400000000003000000000000000000000000000000000020000000000000000000000000100000000000000000000000000000000000000000000000000000000000000000000000000000000",
      "type": "0x2",
      "transactionHash": "0x311cd4006507efccbf6f09a84b62e7dac9786ef011f81cb481db5452c30cfb23",
      "transactionIndex": "0x0",
      "blockHash": "0xd311dfbebd9745d2b0cb7a2a82ddafd4493d55a8f8c82ca5f05e54c5adcf6373",
      "blockNumber": "0x8ef938",
      "gasUsed": "0xe418",
      "effectiveGasPrice": "0x746a528801",
      "from": "0xee2e617a42Aab5be36c290982493C6CC6C072982",
      "to": "0x536cbD6ca17a10E4b4F9D709827923a6F8D08C3f",
      "contractAddress": null
    },
    {
      "status": "0x1",
      "cumulativeGasUsed": "0xe418",
      "logs": [
        {
          "address": "0x536cbD6ca17a10E4b4F9D709827923a6F8D08C3f",
          "topics": [
            "0x2f8788117e7eff1d82e926ec794901d17c78024a50270940304540a733656f0d",
            "0x241ecf16d79d0f8dbfb92cbc07fe17840425976cf0667f022fe9877caa831b08",
            "0x0000000000000000000000006ff2da7eb2df14db66f3f25a0ace6a28e5f15cd9",
            "0x000000000000000000000000ee2e617a42aab5be36c290982493c6cc6c072982"
          ],
          "data": "0x",
          "blockHash": "0xdcf762a191b1a251c6d7b57519df3781d691ebd143a2b39964ece19c8c15a98c",
          "blockNumber": "0x8ef939",
          "transactionHash": "0x314edfea416f168ca77641b0781301664d52a1b1bfe4d042937ad8aec021a62d",
          "transactionIndex": "0x0",
          "logIndex": "0x0",
          "removed": false
        }
      ],
      "logsBloom": "0x00000004000000000000000000000000000000000000000000000000000000800000000000000000000000000000000000000000000000000000000000000000000010000020020000000000000000000000000000000000000000000000000000000000000000000004000000000100000000000000000000000000000000000040000000000000000000000000000000000000000000000000000000000020000001000000000000000000000000000000000400000000003000000000000000000000000000000000020000000000000000000000000100000000000000000000000000000000000000000000000000000000000000000000000000000000",
      "type": "0x2",
      "transactionHash": "0x314edfea416f168ca77641b0781301664d52a1b1bfe4d042937ad8aec021a62d",
      "transactionIndex": "0x0",
      "blockHash": "0xdcf762a191b1a251c6d7b57519df3781d691ebd143a2b39964ece19c8c15a98c",
      "blockNumber": "0x8ef939",
      "gasUsed": "0xe418",
      "effectiveGasPrice": "0x746a528801",
      "from": "0xee2e617a42Aab5be36c290982493C6CC6C072982",
      "to": "0x536cbD6ca17a10E4b4F9D709827923a6F8D08C3f",
      "contractAddress": null
    },
    {
      "status": "0x1",
      "cumulativeGasUsed": "0xe418",
      "logs": [
        {
          "address": "0x536cbD6ca17a10E4b4F9D709827923a6F8D08C3f",
          "topics": [
            "0x2f8788117e7eff1d82e926ec794901d17c78024a50270940304540a733656f0d",
            "0x97667070c54ef182b0f5858b034beac1b6f3089aa2d3188bb1e8929f4fa9b929",
            "0x0000000000000000000000002d2ba91b7c0ea2db570a5df61304b690fd1a3918",
            "0x000000000000000000000000ee2e617a42aab5be36c290982493c6cc6c072982"
          ],
          "data": "0x",
          "blockHash": "0x8e73d0eb584c42a7b786fc1d1e1176a8bf308107857d2f3721941711218c9e2b",
          "blockNumber": "0x8ef93b",
          "transactionHash": "0x43326c916755201b1271a959627600a11b787bd100212a8972e41abbc95aab4f",
          "transactionIndex": "0x0",
          "logIndex": "0x0",
          "removed": false
        }
      ],
      "logsBloom": "0x0000000400000000000000000000000000000000000000000000000000000000020000000000000000000000000000000000000000000000000000000000000000001000000002000000000000000000000200000000000000000000000000000000000000000000000000000000000000000000000000000000000000000000004010000000000000000000000000000000000000000000000000000000002000000000000000000000000000000000000000040000c000003000000000000000000000000000000000000000000000000000000000000100000000000000000000000000000000000000000000000000000000000000008000000000000000",
      "type": "0x2",
      "transactionHash": "0x43326c916755201b1271a959627600a11b787bd100212a8972e41abbc95aab4f",
      "transactionIndex": "0x0",
      "blockHash": "0x8e73d0eb584c42a7b786fc1d1e1176a8bf308107857d2f3721941711218c9e2b",
      "blockNumber": "0x8ef93b",
      "gasUsed": "0xe418",
      "effectiveGasPrice": "0x746a528801",
      "from": "0xee2e617a42Aab5be36c290982493C6CC6C072982",
      "to": "0x536cbD6ca17a10E4b4F9D709827923a6F8D08C3f",
      "contractAddress": null
    },
    {
      "status": "0x1",
      "cumulativeGasUsed": "0xe418",
      "logs": [
        {
          "address": "0x536cbD6ca17a10E4b4F9D709827923a6F8D08C3f",
          "topics": [
            "0x2f8788117e7eff1d82e926ec794901d17c78024a50270940304540a733656f0d",
            "0x97667070c54ef182b0f5858b034beac1b6f3089aa2d3188bb1e8929f4fa9b929",
            "0x0000000000000000000000001c89357af4f15b351f1ba8a478d944dfa3f45715",
            "0x000000000000000000000000ee2e617a42aab5be36c290982493c6cc6c072982"
          ],
          "data": "0x",
          "blockHash": "0x96c898bded789b41f80fb5477c66a2d1e3f93f282bbc9b61fecabc11a0eca987",
          "blockNumber": "0x8ef93c",
          "transactionHash": "0x6acfa1c17dee38c4f58e32a559d9e93f6e848be595b05bb7948ec82d16999c9f",
          "transactionIndex": "0x0",
          "logIndex": "0x0",
          "removed": false
        }
      ],
      "logsBloom": "0x00000004000000000000000000000000000000000100000000000010000000000200000000000000000000000000000000000000000000000000000000000000000010000000020000000000200000000002000000000000000000000000000000000000000000000000000000000000000000000000000000000000000000000040000000000000000000000000000000000000000000000000000000000020000000000000000000000000000000000000000400008000003000000000000000000000000000000000000000000000000000000000000100000000000000000000000000000000000000000000000000000000000000000000000000000000",
      "type": "0x2",
      "transactionHash": "0x6acfa1c17dee38c4f58e32a559d9e93f6e848be595b05bb7948ec82d16999c9f",
      "transactionIndex": "0x0",
      "blockHash": "0x96c898bded789b41f80fb5477c66a2d1e3f93f282bbc9b61fecabc11a0eca987",
      "blockNumber": "0x8ef93c",
      "gasUsed": "0xe418",
      "effectiveGasPrice": "0x746a528801",
      "from": "0xee2e617a42Aab5be36c290982493C6CC6C072982",
      "to": "0x536cbD6ca17a10E4b4F9D709827923a6F8D08C3f",
      "contractAddress": null
    },
    {
      "status": "0x1",
      "cumulativeGasUsed": "0xe418",
      "logs": [
        {
          "address": "0x536cbD6ca17a10E4b4F9D709827923a6F8D08C3f",
          "topics": [
            "0x2f8788117e7eff1d82e926ec794901d17c78024a50270940304540a733656f0d",
            "0x97667070c54ef182b0f5858b034beac1b6f3089aa2d3188bb1e8929f4fa9b929",
            "0x0000000000000000000000006ff2da7eb2df14db66f3f25a0ace6a28e5f15cd9",
            "0x000000000000000000000000ee2e617a42aab5be36c290982493c6cc6c072982"
          ],
          "data": "0x",
          "blockHash": "0xa52d520337cd20cafd0541889989d107b1ad849d447e3b9f49fd4a4170cbfafd",
          "blockNumber": "0x8ef93d",
          "transactionHash": "0x701e52104f14ce26e0a02b27e01e254ee881938ba3559950b63f3561d10ce214",
          "transactionIndex": "0x0",
          "logIndex": "0x0",
          "removed": false
        }
      ],
      "logsBloom": "0x00000004000000000000000000000000000000000000000000000000000000800200000000000000000000000000000000000000000000000000000000000000000010000000020000000000000000000002000000000000000000000000000000000000000000000000000000000100000000000000000000000000000000000040000000000000000000000000000000000000000000000000000000000020000001000000000000000000000000000000000400008000003000000000000000000000000000000000000000000000000000000000000100000000000000000000000000000000000000000000000000000000000000000000000000000000",
      "type": "0x2",
      "transactionHash": "0x701e52104f14ce26e0a02b27e01e254ee881938ba3559950b63f3561d10ce214",
      "transactionIndex": "0x0",
      "blockHash": "0xa52d520337cd20cafd0541889989d107b1ad849d447e3b9f49fd4a4170cbfafd",
      "blockNumber": "0x8ef93d",
      "gasUsed": "0xe418",
      "effectiveGasPrice": "0x746a528801",
      "from": "0xee2e617a42Aab5be36c290982493C6CC6C072982",
      "to": "0x536cbD6ca17a10E4b4F9D709827923a6F8D08C3f",
      "contractAddress": null
    },
    {
      "status": "0x1",
      "cumulativeGasUsed": "0xe298",
      "logs": [
        {
          "address": "0x536cbD6ca17a10E4b4F9D709827923a6F8D08C3f",
          "topics": [
            "0x2f8788117e7eff1d82e926ec794901d17c78024a50270940304540a733656f0d",
            "0x0000000000000000000000000000000000000000000000000000000000000000",
            "0x0000000000000000000000002d2ba91b7c0ea2db570a5df61304b690fd1a3918",
            "0x000000000000000000000000ee2e617a42aab5be36c290982493c6cc6c072982"
          ],
          "data": "0x",
          "blockHash": "0x45463799180770ea936b769c20fea2bc4d4dc2fd0439f7275a124bbd502575ac",
          "blockNumber": "0x8ef93f",
          "transactionHash": "0x69cdad5e63300e4bdb9270da7640aa99f04e5510354c2063ab7db3f177bcfb15",
          "transactionIndex": "0x0",
          "logIndex": "0x0",
          "removed": false
        }
      ],
      "logsBloom": "0x00000004000000000000000000000000000000000000000000000000000000000000000000000000000000000000000000000000000000000000000000000000000010000000020000000000000000000000000000000000000000000000000000000000020000000000000000000800000000000000000000000000000000000040100000000000000000000000000000000000000000000000000000000020000000000000000000000000000000000000000400004000003000000000000000000000000000000000000000000000000000000000000100000000000020000000000000000000000000000000000000000000000000008000000000000000",
      "type": "0x2",
      "transactionHash": "0x69cdad5e63300e4bdb9270da7640aa99f04e5510354c2063ab7db3f177bcfb15",
      "transactionIndex": "0x0",
      "blockHash": "0x45463799180770ea936b769c20fea2bc4d4dc2fd0439f7275a124bbd502575ac",
      "blockNumber": "0x8ef93f",
      "gasUsed": "0xe298",
      "effectiveGasPrice": "0x746a528801",
      "from": "0xee2e617a42Aab5be36c290982493C6CC6C072982",
      "to": "0x536cbD6ca17a10E4b4F9D709827923a6F8D08C3f",
      "contractAddress": null
    },
    {
      "status": "0x1",
      "cumulativeGasUsed": "0xe298",
      "logs": [
        {
          "address": "0x536cbD6ca17a10E4b4F9D709827923a6F8D08C3f",
          "topics": [
            "0x2f8788117e7eff1d82e926ec794901d17c78024a50270940304540a733656f0d",
            "0x0000000000000000000000000000000000000000000000000000000000000000",
            "0x0000000000000000000000001c89357af4f15b351f1ba8a478d944dfa3f45715",
            "0x000000000000000000000000ee2e617a42aab5be36c290982493c6cc6c072982"
          ],
          "data": "0x",
          "blockHash": "0xf768435b2927ae903f3be2d5c81b94823516781b9a1d3cd9b10c57cb4a4baba0",
          "blockNumber": "0x8ef940",
          "transactionHash": "0x3af58af5e4f4e61396abb99e855bbc03989b4960a41270f69366a6cd7297d2f2",
          "transactionIndex": "0x0",
          "logIndex": "0x0",
          "removed": false
        }
      ],
      "logsBloom": "0x00000004000000000000000000000000000000000100000000000010000000000000000000000000000000000000000000000000000000000000000000000000000010000000020000000000200000000000000000000000000000000000000000000000020000000000000000000800000000000000000000000000000000000040000000000000000000000000000000000000000000000000000000000020000000000000000000000000000000000000000400000000003000000000000000000000000000000000000000000000000000000000000100000000000020000000000000000000000000000000000000000000000000000000000000000000",
      "type": "0x2",
      "transactionHash": "0x3af58af5e4f4e61396abb99e855bbc03989b4960a41270f69366a6cd7297d2f2",
      "transactionIndex": "0x0",
      "blockHash": "0xf768435b2927ae903f3be2d5c81b94823516781b9a1d3cd9b10c57cb4a4baba0",
      "blockNumber": "0x8ef940",
      "gasUsed": "0xe298",
      "effectiveGasPrice": "0x746a528801",
      "from": "0xee2e617a42Aab5be36c290982493C6CC6C072982",
      "to": "0x536cbD6ca17a10E4b4F9D709827923a6F8D08C3f",
      "contractAddress": null
    },
    {
      "status": "0x1",
      "cumulativeGasUsed": "0xe298",
      "logs": [
        {
          "address": "0x536cbD6ca17a10E4b4F9D709827923a6F8D08C3f",
          "topics": [
            "0x2f8788117e7eff1d82e926ec794901d17c78024a50270940304540a733656f0d",
            "0x0000000000000000000000000000000000000000000000000000000000000000",
            "0x0000000000000000000000006ff2da7eb2df14db66f3f25a0ace6a28e5f15cd9",
            "0x000000000000000000000000ee2e617a42aab5be36c290982493c6cc6c072982"
          ],
          "data": "0x",
          "blockHash": "0x70a236b636c3f40189cd626af92a77d5d54ecee78c5341438ec977957cf98daf",
          "blockNumber": "0x8ef942",
          "transactionHash": "0x68b6447d1de76c7553a204ea388540273660fbce19a7d458fb568457aec13c6f",
          "transactionIndex": "0x0",
          "logIndex": "0x0",
          "removed": false
        }
      ],
      "logsBloom": "0x00000004000000000000000000000000000000000000000000000000000000800000000000000000000000000000000000000000000000000000000000000000000010000000020000000000000000000000000000000000000000000000000000000000020000000000000000000900000000000000000000000000000000000040000000000000000000000000000000000000000000000000000000000020000001000000000000000000000000000000000400000000003000000000000000000000000000000000000000000000000000000000000100000000000020000000000000000000000000000000000000000000000000000000000000000000",
      "type": "0x2",
      "transactionHash": "0x68b6447d1de76c7553a204ea388540273660fbce19a7d458fb568457aec13c6f",
      "transactionIndex": "0x0",
      "blockHash": "0x70a236b636c3f40189cd626af92a77d5d54ecee78c5341438ec977957cf98daf",
      "blockNumber": "0x8ef942",
      "gasUsed": "0xe298",
      "effectiveGasPrice": "0x746a528801",
      "from": "0xee2e617a42Aab5be36c290982493C6CC6C072982",
      "to": "0x536cbD6ca17a10E4b4F9D709827923a6F8D08C3f",
      "contractAddress": null
    },
    {
      "status": "0x1",
      "cumulativeGasUsed": "0x3dc6f",
      "logs": [
        {
          "address": "0x536cbD6ca17a10E4b4F9D709827923a6F8D08C3f",
          "topics": [
            "0x01b043d7926a29446dc3d65941e5ef42247dc676bc6fcd937852d930ad52046b"
          ],
          "data": "0x0000000000000000000000000000000000000000000000000000000000000040000000000000000000000000000000000000000000000000000000000000000100000000000000000000000000000000000000000000000000000000000000306d7876616c6f70657231677a61357939346b616c323565617773656e6c35367468386b6479756a737a6d63737863677300000000000000000000000000000000",
          "blockHash": "0xfa93c81b05a8663e5f7584b4e4ff146006c6f698caca1984c07604f06644b725",
          "blockNumber": "0x8ef943",
          "transactionHash": "0x70c032429628d5459b103d58f510ce6e8268310a25c54d1a22ce03c8334fdb69",
          "transactionIndex": "0x0",
          "logIndex": "0x0",
          "removed": false
        }
      ],
      "logsBloom": "0x00000000000000000000000000000000000000000000000000000000000000000000000000000000000000000000000000000000000000000000000000000000000010000000020000000200008000000000000000000000000000000000000000000000000000000000000000000000000000000000000000000000000000000040000000000000000000000000000000000000000000000000000000000000000000000000000000000000000000000000000000000000000000000000000000000004000000000000000000000000000000000000000000000000000000000000000000000000000000000000000000000000000000000000000000000000",
      "type": "0x2",
      "transactionHash": "0x70c032429628d5459b103d58f510ce6e8268310a25c54d1a22ce03c8334fdb69",
      "transactionIndex": "0x0",
      "blockHash": "0xfa93c81b05a8663e5f7584b4e4ff146006c6f698caca1984c07604f06644b725",
      "blockNumber": "0x8ef943",
      "gasUsed": "0x3dc6f",
      "effectiveGasPrice": "0x746a528801",
      "from": "0xee2e617a42Aab5be36c290982493C6CC6C072982",
      "to": "0x536cbD6ca17a10E4b4F9D709827923a6F8D08C3f",
      "contractAddress": null
    },
    {
      "status": "0x1",
      "cumulativeGasUsed": "0x399cd",
      "logs": [
        {
          "address": "0x536cbD6ca17a10E4b4F9D709827923a6F8D08C3f",
          "topics": [
            "0x01b043d7926a29446dc3d65941e5ef42247dc676bc6fcd937852d930ad52046b"
          ],
          "data": "0x0000000000000000000000000000000000000000000000000000000000000040000000000000000000000000000000000000000000000000000000000000000100000000000000000000000000000000000000000000000000000000000000306d7876616c6f706572316a70306d37796e777476726b6e7a6c6d647a6172676d6435396d68386e39676b68397966776d00000000000000000000000000000000",
          "blockHash": "0x601ceacdf728be9b9ab561aaa5ec38503b009b04fc02ac65dff8518d77c3bab3",
          "blockNumber": "0x8ef944",
          "transactionHash": "0xd765b85ef38973222146f7056def56d00488d4251d6f8bf84839e69a14462f33",
          "transactionIndex": "0x0",
          "logIndex": "0x0",
          "removed": false
        }
      ],
      "logsBloom": "0x00000000000000000000000000000000000000000000000000000000000000000000000000000000000000000000000000000000000000000000000000000000000010000000020000000200008000000000000000000000000000000000000000000000000000000000000000000000000000000000000000000000000000000040000000000000000000000000000000000000000000000000000000000000000000000000000000000000000000000000000000000000000000000000000000000004000000000000000000000000000000000000000000000000000000000000000000000000000000000000000000000000000000000000000000000000",
      "type": "0x2",
      "transactionHash": "0xd765b85ef38973222146f7056def56d00488d4251d6f8bf84839e69a14462f33",
      "transactionIndex": "0x0",
      "blockHash": "0x601ceacdf728be9b9ab561aaa5ec38503b009b04fc02ac65dff8518d77c3bab3",
      "blockNumber": "0x8ef944",
      "gasUsed": "0x399cd",
      "effectiveGasPrice": "0x746a528801",
      "from": "0xee2e617a42Aab5be36c290982493C6CC6C072982",
      "to": "0x536cbD6ca17a10E4b4F9D709827923a6F8D08C3f",
      "contractAddress": null
    },
    {
      "status": "0x1",
      "cumulativeGasUsed": "0x399a3",
      "logs": [
        {
          "address": "0x536cbD6ca17a10E4b4F9D709827923a6F8D08C3f",
          "topics": [
            "0x01b043d7926a29446dc3d65941e5ef42247dc676bc6fcd937852d930ad52046b"
          ],
          "data": "0x0000000000000000000000000000000000000000000000000000000000000040000000000000000000000000000000000000000000000000000000000000000100000000000000000000000000000000000000000000000000000000000000306d7876616c6f7065723172667a613871666b7477793436756a72756e64747835733574683664713876666e777363703300000000000000000000000000000000",
          "blockHash": "0xdbbc8911a5aded5da5cd023f80e8007b991d5d17ac67ade6db2db555ab17f9a2",
          "blockNumber": "0x8ef946",
          "transactionHash": "0x637b08cbb106df67a3ce090af1f9c0c12e8a059dfd53ae63d02b5df29fa8ae30",
          "transactionIndex": "0x0",
          "logIndex": "0x0",
          "removed": false
        }
      ],
      "logsBloom": "0x00000000000000000000000000000000000000000000000000000000000000000000000000000000000000000000000000000000000000000000000000000000000010000000020000000200008000000000000000000000000000000000000000000000000000000000000000000000000000000000000000000000000000000040000000000000000000000000000000000000000000000000000000000000000000000000000000000000000000000000000000000000000000000000000000000004000000000000000000000000000000000000000000000000000000000000000000000000000000000000000000000000000000000000000000000000",
      "type": "0x2",
      "transactionHash": "0x637b08cbb106df67a3ce090af1f9c0c12e8a059dfd53ae63d02b5df29fa8ae30",
      "transactionIndex": "0x0",
      "blockHash": "0xdbbc8911a5aded5da5cd023f80e8007b991d5d17ac67ade6db2db555ab17f9a2",
      "blockNumber": "0x8ef946",
      "gasUsed": "0x399a3",
      "effectiveGasPrice": "0x746a528801",
      "from": "0xee2e617a42Aab5be36c290982493C6CC6C072982",
      "to": "0x536cbD6ca17a10E4b4F9D709827923a6F8D08C3f",
      "contractAddress": null
    },
    {
      "status": "0x1",
      "cumulativeGasUsed": "0x398d1",
      "logs": [
        {
          "address": "0x536cbD6ca17a10E4b4F9D709827923a6F8D08C3f",
          "topics": [
            "0x01b043d7926a29446dc3d65941e5ef42247dc676bc6fcd937852d930ad52046b"
          ],
          "data": "0x0000000000000000000000000000000000000000000000000000000000000040000000000000000000000000000000000000000000000000000000000000000100000000000000000000000000000000000000000000000000000000000000306d7876616c6f7065723132773032337233766a6a6d686b386e7373397535396e7032326d6a736a38796b77726c78733700000000000000000000000000000000",
          "blockHash": "0x9ccc822bd0113360876f05a54d079215cbc511ddc2c93dfb5ff9a559f2b6767a",
          "blockNumber": "0x8ef947",
          "transactionHash": "0x1c1a58532d05c863984332a395b9877a2d3a32e765746ea5d855dda0a1394f23",
          "transactionIndex": "0x0",
          "logIndex": "0x0",
          "removed": false
        }
      ],
      "logsBloom": "0x00000000000000000000000000000000000000000000000000000000000000000000000000000000000000000000000000000000000000000000000000000000000010000000020000000200008000000000000000000000000000000000000000000000000000000000000000000000000000000000000000000000000000000040000000000000000000000000000000000000000000000000000000000000000000000000000000000000000000000000000000000000000000000000000000000004000000000000000000000000000000000000000000000000000000000000000000000000000000000000000000000000000000000000000000000000",
      "type": "0x2",
      "transactionHash": "0x1c1a58532d05c863984332a395b9877a2d3a32e765746ea5d855dda0a1394f23",
      "transactionIndex": "0x0",
      "blockHash": "0x9ccc822bd0113360876f05a54d079215cbc511ddc2c93dfb5ff9a559f2b6767a",
      "blockNumber": "0x8ef947",
      "gasUsed": "0x398d1",
      "effectiveGasPrice": "0x746a528801",
      "from": "0xee2e617a42Aab5be36c290982493C6CC6C072982",
      "to": "0x536cbD6ca17a10E4b4F9D709827923a6F8D08C3f",
      "contractAddress": null
    },
    {
      "status": "0x1",
      "cumulativeGasUsed": "0x3994f",
      "logs": [
        {
          "address": "0x536cbD6ca17a10E4b4F9D709827923a6F8D08C3f",
          "topics": [
            "0x01b043d7926a29446dc3d65941e5ef42247dc676bc6fcd937852d930ad52046b"
          ],
          "data": "0x0000000000000000000000000000000000000000000000000000000000000040000000000000000000000000000000000000000000000000000000000000000100000000000000000000000000000000000000000000000000000000000000306d7876616c6f706572317a677278396a6a7172667965387377796c636d727871336b393265396a3837327339616d717500000000000000000000000000000000",
          "blockHash": "0x9205995be572549cd76d30f675e86a69a32a27710acf8a189f0f24d1eb49fd6a",
          "blockNumber": "0x8ef949",
          "transactionHash": "0x90bd4740be8b98b9b46cd46939b464498185aa9f6c1d22ccfe5c08929bae3649",
          "transactionIndex": "0x0",
          "logIndex": "0x0",
          "removed": false
        }
      ],
      "logsBloom": "0x00000000000000000000000000000000000000000000000000000000000000000000000000000000000000000000000000000000000000000000000000000000000010000000020000000200008000000000000000000000000000000000000000000000000000000000000000000000000000000000000000000000000000000040000000000000000000000000000000000000000000000000000000000000000000000000000000000000000000000000000000000000000000000000000000000004000000000000000000000000000000000000000000000000000000000000000000000000000000000000000000000000000000000000000000000000",
      "type": "0x2",
      "transactionHash": "0x90bd4740be8b98b9b46cd46939b464498185aa9f6c1d22ccfe5c08929bae3649",
      "transactionIndex": "0x0",
      "blockHash": "0x9205995be572549cd76d30f675e86a69a32a27710acf8a189f0f24d1eb49fd6a",
      "blockNumber": "0x8ef949",
      "gasUsed": "0x3994f",
      "effectiveGasPrice": "0x746a528801",
      "from": "0xee2e617a42Aab5be36c290982493C6CC6C072982",
      "to": "0x536cbD6ca17a10E4b4F9D709827923a6F8D08C3f",
      "contractAddress": null
    },
    {
      "status": "0x1",
      "cumulativeGasUsed": "0x398d1",
      "logs": [
        {
          "address": "0x536cbD6ca17a10E4b4F9D709827923a6F8D08C3f",
          "topics": [
            "0x01b043d7926a29446dc3d65941e5ef42247dc676bc6fcd937852d930ad52046b"
          ],
          "data": "0x0000000000000000000000000000000000000000000000000000000000000040000000000000000000000000000000000000000000000000000000000000000100000000000000000000000000000000000000000000000000000000000000306d7876616c6f706572316b6a72356768307733687278773972376534706a7736767a356b797775706d37397435386e3400000000000000000000000000000000",
          "blockHash": "0x02cd98fcf85cee497933ae9693e0ba5d241eb304b6c90fe789ce882a53d06301",
          "blockNumber": "0x8ef94a",
          "transactionHash": "0xedb8eeda75d952733d64d5cc8d325a2b776b2056106c240f3791a35ea89c43c3",
          "transactionIndex": "0x0",
          "logIndex": "0x0",
          "removed": false
        }
      ],
      "logsBloom": "0x00000000000000000000000000000000000000000000000000000000000000000000000000000000000000000000000000000000000000000000000000000000000010000000020000000200008000000000000000000000000000000000000000000000000000000000000000000000000000000000000000000000000000000040000000000000000000000000000000000000000000000000000000000000000000000000000000000000000000000000000000000000000000000000000000000004000000000000000000000000000000000000000000000000000000000000000000000000000000000000000000000000000000000000000000000000",
      "type": "0x2",
      "transactionHash": "0xedb8eeda75d952733d64d5cc8d325a2b776b2056106c240f3791a35ea89c43c3",
      "transactionIndex": "0x0",
      "blockHash": "0x02cd98fcf85cee497933ae9693e0ba5d241eb304b6c90fe789ce882a53d06301",
      "blockNumber": "0x8ef94a",
      "gasUsed": "0x398d1",
      "effectiveGasPrice": "0x746a528801",
      "from": "0xee2e617a42Aab5be36c290982493C6CC6C072982",
      "to": "0x536cbD6ca17a10E4b4F9D709827923a6F8D08C3f",
      "contractAddress": null
    },
    {
      "status": "0x1",
      "cumulativeGasUsed": "0x3994f",
      "logs": [
        {
          "address": "0x536cbD6ca17a10E4b4F9D709827923a6F8D08C3f",
          "topics": [
            "0x01b043d7926a29446dc3d65941e5ef42247dc676bc6fcd937852d930ad52046b"
          ],
          "data": "0x0000000000000000000000000000000000000000000000000000000000000040000000000000000000000000000000000000000000000000000000000000000100000000000000000000000000000000000000000000000000000000000000306d7876616c6f706572316c7468737774646c33647a6b707071336565336b6e346a6d36646b786470373974387871363300000000000000000000000000000000",
          "blockHash": "0xbb3fff6859569616040dee925e5f1e27a7729515ce164a094473e155290ceef7",
          "blockNumber": "0x8ef94c",
          "transactionHash": "0xe77a36e2759dcbcc2e26bc79e7549f487a34ab749438ac9544d7f1111c38341f",
          "transactionIndex": "0x0",
          "logIndex": "0x0",
          "removed": false
        }
      ],
      "logsBloom": "0x00000000000000000000000000000000000000000000000000000000000000000000000000000000000000000000000000000000000000000000000000000000000010000000020000000200008000000000000000000000000000000000000000000000000000000000000000000000000000000000000000000000000000000040000000000000000000000000000000000000000000000000000000000000000000000000000000000000000000000000000000000000000000000000000000000004000000000000000000000000000000000000000000000000000000000000000000000000000000000000000000000000000000000000000000000000",
      "type": "0x2",
      "transactionHash": "0xe77a36e2759dcbcc2e26bc79e7549f487a34ab749438ac9544d7f1111c38341f",
      "transactionIndex": "0x0",
      "blockHash": "0xbb3fff6859569616040dee925e5f1e27a7729515ce164a094473e155290ceef7",
      "blockNumber": "0x8ef94c",
      "gasUsed": "0x3994f",
      "effectiveGasPrice": "0x746a528801",
      "from": "0xee2e617a42Aab5be36c290982493C6CC6C072982",
      "to": "0x536cbD6ca17a10E4b4F9D709827923a6F8D08C3f",
      "contractAddress": null
    },
    {
      "status": "0x1",
      "cumulativeGasUsed": "0x398d1",
      "logs": [
        {
          "address": "0x536cbD6ca17a10E4b4F9D709827923a6F8D08C3f",
          "topics": [
            "0x01b043d7926a29446dc3d65941e5ef42247dc676bc6fcd937852d930ad52046b"
          ],
          "data": "0x0000000000000000000000000000000000000000000000000000000000000040000000000000000000000000000000000000000000000000000000000000000100000000000000000000000000000000000000000000000000000000000000306d7876616c6f7065723177306d34386a367a656a6c3635707772743864386638386a64736a66706e653467377172356a00000000000000000000000000000000",
          "blockHash": "0xa0c3cac0ea9afad925063d92646433d4e6707ee269ce5053d4d57e166a941fec",
          "blockNumber": "0x8ef94d",
          "transactionHash": "0x9bb64c87aba6ebb327c4ff61a21db7a8d519ab818d6cabcd1c526943838b3669",
          "transactionIndex": "0x0",
          "logIndex": "0x0",
          "removed": false
        }
      ],
      "logsBloom": "0x00000000000000000000000000000000000000000000000000000000000000000000000000000000000000000000000000000000000000000000000000000000000010000000020000000200008000000000000000000000000000000000000000000000000000000000000000000000000000000000000000000000000000000040000000000000000000000000000000000000000000000000000000000000000000000000000000000000000000000000000000000000000000000000000000000004000000000000000000000000000000000000000000000000000000000000000000000000000000000000000000000000000000000000000000000000",
      "type": "0x2",
      "transactionHash": "0x9bb64c87aba6ebb327c4ff61a21db7a8d519ab818d6cabcd1c526943838b3669",
      "transactionIndex": "0x0",
      "blockHash": "0xa0c3cac0ea9afad925063d92646433d4e6707ee269ce5053d4d57e166a941fec",
      "blockNumber": "0x8ef94d",
      "gasUsed": "0x398d1",
      "effectiveGasPrice": "0x746a528801",
      "from": "0xee2e617a42Aab5be36c290982493C6CC6C072982",
      "to": "0x536cbD6ca17a10E4b4F9D709827923a6F8D08C3f",
      "contractAddress": null
    },
    {
      "status": "0x1",
      "cumulativeGasUsed": "0x39853",
      "logs": [
        {
          "address": "0x536cbD6ca17a10E4b4F9D709827923a6F8D08C3f",
          "topics": [
            "0x01b043d7926a29446dc3d65941e5ef42247dc676bc6fcd937852d930ad52046b"
          ],
          "data": "0x0000000000000000000000000000000000000000000000000000000000000040000000000000000000000000000000000000000000000000000000000000000100000000000000000000000000000000000000000000000000000000000000306d7876616c6f70657231716a343532667235633872353964747635756c6c6b653737366530377835706b36756d6c683400000000000000000000000000000000",
          "blockHash": "0xe080ba0625f433b66f219ac282795f687112172b57934bc04a580a8edabc6eb6",
          "blockNumber": "0x8ef94e",
          "transactionHash": "0x49b4ca5fc5393da7f52243ca83783fbf98fd3c6ed9b60a2e085eddc4587da667",
          "transactionIndex": "0x0",
          "logIndex": "0x0",
          "removed": false
        }
      ],
      "logsBloom": "0x00000000000000000000000000000000000000000000000000000000000000000000000000000000000000000000000000000000000000000000000000000000000010000000020000000200008000000000000000000000000000000000000000000000000000000000000000000000000000000000000000000000000000000040000000000000000000000000000000000000000000000000000000000000000000000000000000000000000000000000000000000000000000000000000000000004000000000000000000000000000000000000000000000000000000000000000000000000000000000000000000000000000000000000000000000000",
      "type": "0x2",
      "transactionHash": "0x49b4ca5fc5393da7f52243ca83783fbf98fd3c6ed9b60a2e085eddc4587da667",
      "transactionIndex": "0x0",
      "blockHash": "0xe080ba0625f433b66f219ac282795f687112172b57934bc04a580a8edabc6eb6",
      "blockNumber": "0x8ef94e",
      "gasUsed": "0x39853",
      "effectiveGasPrice": "0x746a528801",
      "from": "0xee2e617a42Aab5be36c290982493C6CC6C072982",
      "to": "0x536cbD6ca17a10E4b4F9D709827923a6F8D08C3f",
      "contractAddress": null
    },
    {
      "status": "0x1",
      "cumulativeGasUsed": "0x399cd",
      "logs": [
        {
          "address": "0x536cbD6ca17a10E4b4F9D709827923a6F8D08C3f",
          "topics": [
            "0x01b043d7926a29446dc3d65941e5ef42247dc676bc6fcd937852d930ad52046b"
          ],
          "data": "0x0000000000000000000000000000000000000000000000000000000000000040000000000000000000000000000000000000000000000000000000000000000100000000000000000000000000000000000000000000000000000000000000306d7876616c6f706572317773676d336a6c67637871377666746c647a3768666d7766677139386872756a39796a67723500000000000000000000000000000000",
          "blockHash": "0x6ebf78b5b59f3808cec940dec1d2488c6ab7ebc79e4aa049c5bd5eb1db08a75d",
          "blockNumber": "0x8ef950",
          "transactionHash": "0x13a04f2e34df79cab7b10c7e7f795619011b3f1a914f5fdd2b63d7e5cc9553e2",
          "transactionIndex": "0x0",
          "logIndex": "0x0",
          "removed": false
        }
      ],
      "logsBloom": "0x00000000000000000000000000000000000000000000000000000000000000000000000000000000000000000000000000000000000000000000000000000000000010000000020000000200008000000000000000000000000000000000000000000000000000000000000000000000000000000000000000000000000000000040000000000000000000000000000000000000000000000000000000000000000000000000000000000000000000000000000000000000000000000000000000000004000000000000000000000000000000000000000000000000000000000000000000000000000000000000000000000000000000000000000000000000",
      "type": "0x2",
      "transactionHash": "0x13a04f2e34df79cab7b10c7e7f795619011b3f1a914f5fdd2b63d7e5cc9553e2",
      "transactionIndex": "0x0",
      "blockHash": "0x6ebf78b5b59f3808cec940dec1d2488c6ab7ebc79e4aa049c5bd5eb1db08a75d",
      "blockNumber": "0x8ef950",
      "gasUsed": "0x399cd",
      "effectiveGasPrice": "0x746a528801",
      "from": "0xee2e617a42Aab5be36c290982493C6CC6C072982",
      "to": "0x536cbD6ca17a10E4b4F9D709827923a6F8D08C3f",
      "contractAddress": null
    }
  ],
  "libraries": [],
  "pending": [],
  "returns": {},
  "timestamp": 1744126768,
  "chain": 4156,
  "commit": "eca8bee"
}