{
  "transactions": [
    {
      "hash": "0x45ada21893318fb3338c1e34f05d9ea4a15a49a5941cc677d3bd0d92c7c2188b",
      "transactionType": "CALL",
      "contractName": null,
      "contractAddress": "0xDbe735426C7DC01F0F153F9C769582a3b48784EC",
      "function": "grantRole(bytes32,address)",
      "arguments": [
        "0x97667070c54ef182b0f5858b034beac1b6f3089aa2d3188bb1e8929f4fa9b929",
        "0x79F9860d48ef9dDFaF3571281c033664de05E6f5"
      ],
      "transaction": {
        "from": "0xee2e617a42Aab5be36c290982493C6CC6C072982",
        "to": "0xDbe735426C7DC01F0F153F9C769582a3b48784EC",
        "gas": "0x24278",
        "value": "0x0",
        "input": "0x2f2ff15d97667070c54ef182b0f5858b034beac1b6f3089aa2d3188bb1e8929f4fa9b92900000000000000000000000079f9860d48ef9ddfaf3571281c033664de05e6f5",
        "nonce": "0x3d",
        "chainId": "0x103c"
      },
      "additionalContracts": [],
      "isFixedGasLimit": false
    },
    {
      "hash": "0xb348dcbb5627c64e74302c6abe873744bbe7df908d6d42fd0fc32257b6613f83",
      "transactionType": "CALL",
      "contractName": null,
      "contractAddress": "0xDbe735426C7DC01F0F153F9C769582a3b48784EC",
      "function": "grantRole(bytes32,address)",
      "arguments": [
        "0xbf233dd2aafeb4d50879c4aa5c81e96d92f6e6945c906a58f9f2d1c1631b4b26",
        "0x79F9860d48ef9dDFaF3571281c033664de05E6f5"
      ],
      "transaction": {
        "from": "0xee2e617a42Aab5be36c290982493C6CC6C072982",
        "to": "0xDbe735426C7DC01F0F153F9C769582a3b48784EC",
        "gas": "0x24278",
        "value": "0x0",
        "input": "0x2f2ff15dbf233dd2aafeb4d50879c4aa5c81e96d92f6e6945c906a58f9f2d1c1631b4b2600000000000000000000000079f9860d48ef9ddfaf3571281c033664de05e6f5",
        "nonce": "0x3e",
        "chainId": "0x103c"
      },
      "additionalContracts": [],
      "isFixedGasLimit": false
    },
    {
      "hash": "0x8aad9296ddfd77bf9297fcf1a3ed4b067860ad2d5c7dc61f176a5ab66896f1c5",
      "transactionType": "CALL",
      "contractName": null,
      "contractAddress": "0x619Fa7497172Fb48E77B845577c4e83FDFE15490",
      "function": "grantRole(bytes32,address)",
      "arguments": [
        "0xa8d944a5277d6a203f114d020d26918a390f167b089a46be4fca9da716d23783",
        "0x79F9860d48ef9dDFaF3571281c033664de05E6f5"
      ],
      "transaction": {
        "from": "0xee2e617a42Aab5be36c290982493C6CC6C072982",
        "to": "0x619Fa7497172Fb48E77B845577c4e83FDFE15490",
        "gas": "0x1143d",
        "value": "0x0",
        "input": "0x2f2ff15da8d944a5277d6a203f114d020d26918a390f167b089a46be4fca9da716d2378300000000000000000000000079f9860d48ef9ddfaf3571281c033664de05e6f5",
        "nonce": "0x3f",
        "chainId": "0x103c"
      },
      "additionalContracts": [],
      "isFixedGasLimit": false
    }
  ],
  "receipts": [
    {
      "status": "0x1",
      "cumulativeGasUsed": "0x18b89",
      "logs": [
        {
          "address": "0xDbe735426C7DC01F0F153F9C769582a3b48784EC",
          "topics": [
            "0x2f8788117e7eff1d82e926ec794901d17c78024a50270940304540a733656f0d",
            "0x97667070c54ef182b0f5858b034beac1b6f3089aa2d3188bb1e8929f4fa9b929",
            "0x00000000000000000000000079f9860d48ef9ddfaf3571281c033664de05e6f5",
            "0x000000000000000000000000ee2e617a42aab5be36c290982493c6cc6c072982"
          ],
          "data": "0x",
          "blockHash": "0xacea18688f845d5ebe8bb3c15834c0a5683e2f7bd588e26af19bb17f5390d911",
          "blockNumber": "0x7ed700",
          "transactionHash": "0x45ada21893318fb3338c1e34f05d9ea4a15a49a5941cc677d3bd0d92c7c2188b",
          "transactionIndex": "0x0",
          "logIndex": "0x0",
          "removed": false
        }
      ],
      "logsBloom": "0x00000004000000000000200000000000000000000000000000000000000000000200000000000000000000000000000000000000000000000000400000000000000000000000000000000000000000000002000000000000000000000000000000000000000000000000000000000000000000000000000000000000000000000000000000000000000000000000000000000000000000000000000000000020000008000000000000000000000000000000000400008000003000000000000000008000000000000000000000000000000000000000000100000000000020000000000000000000004000000000000000000000000000000000000000000000",
      "type": "0x2",
      "transactionHash": "0x45ada21893318fb3338c1e34f05d9ea4a15a49a5941cc677d3bd0d92c7c2188b",
      "transactionIndex": "0x0",
      "blockHash": "0xacea18688f845d5ebe8bb3c15834c0a5683e2f7bd588e26af19bb17f5390d911",
      "blockNumber": "0x7ed700",
      "gasUsed": "0x18b89",
      "effectiveGasPrice": "0x746a528801",
      "from": "0xee2e617a42Aab5be36c290982493C6CC6C072982",
      "to": "0xDbe735426C7DC01F0F153F9C769582a3b48784EC",
      "contractAddress": null
    },
    {
      "status": "0x1",
      "cumulativeGasUsed": "0x31712",
      "logs": [
        {
          "address": "0xDbe735426C7DC01F0F153F9C769582a3b48784EC",
          "topics": [
            "0x2f8788117e7eff1d82e926ec794901d17c78024a50270940304540a733656f0d",
            "0xbf233dd2aafeb4d50879c4aa5c81e96d92f6e6945c906a58f9f2d1c1631b4b26",
            "0x00000000000000000000000079f9860d48ef9ddfaf3571281c033664de05e6f5",
            "0x000000000000000000000000ee2e617a42aab5be36c290982493c6cc6c072982"
          ],
          "data": "0x",
          "blockHash": "0xacea18688f845d5ebe8bb3c15834c0a5683e2f7bd588e26af19bb17f5390d911",
          "blockNumber": "0x7ed700",
          "transactionHash": "0xb348dcbb5627c64e74302c6abe873744bbe7df908d6d42fd0fc32257b6613f83",
          "transactionIndex": "0x1",
          "logIndex": "0x1",
          "removed": false
        }
      ],
      "logsBloom": "0x00000004000000000000200000000000000000000000000000000000000000000000000000000000000000000040000000000000000000000000400000000000000000000000000000000000000000000000000000000000000000000010000000000000000000000000008000000000000000000000000000000000000000000000000000000000000000000000000000000000000000000000000000000020000008000000000000000000000000000000000400000000003000000000000000008000000000000000000000000000000000000000000100000000000020000000000000000000004000000000000000000000000000000000000000000000",
      "type": "0x2",
      "transactionHash": "0xb348dcbb5627c64e74302c6abe873744bbe7df908d6d42fd0fc32257b6613f83",
      "transactionIndex": "0x1",
      "blockHash": "0xacea18688f845d5ebe8bb3c15834c0a5683e2f7bd588e26af19bb17f5390d911",
      "blockNumber": "0x7ed700",
      "gasUsed": "0x18b89",
      "effectiveGasPrice": "0x746a528801",
      "from": "0xee2e617a42Aab5be36c290982493C6CC6C072982",
      "to": "0xDbe735426C7DC01F0F153F9C769582a3b48784EC",
      "contractAddress": null
    },
    {
      "status": "0x1",
      "cumulativeGasUsed": "0x3df11",
      "logs": [
        {
          "address": "0x619Fa7497172Fb48E77B845577c4e83FDFE15490",
          "topics": [
            "0x2f8788117e7eff1d82e926ec794901d17c78024a50270940304540a733656f0d",
            "0xa8d944a5277d6a203f114d020d26918a390f167b089a46be4fca9da716d23783",
            "0x00000000000000000000000079f9860d48ef9ddfaf3571281c033664de05e6f5",
            "0x000000000000000000000000ee2e617a42aab5be36c290982493c6cc6c072982"
          ],
          "data": "0x",
          "blockHash": "0xacea18688f845d5ebe8bb3c15834c0a5683e2f7bd588e26af19bb17f5390d911",
          "blockNumber": "0x7ed700",
          "transactionHash": "0x8aad9296ddfd77bf9297fcf1a3ed4b067860ad2d5c7dc61f176a5ab66896f1c5",
          "transactionIndex": "0x2",
          "logIndex": "0x2",
          "removed": false
        }
      ],
      "logsBloom": "0x00010004000000000000000000000000000000000000000000000000000000000000000000000000000000000000000000000000000000000000000000000000000000400000000000000000000000000000000000000000000000000000000000000000000000000000000080000000000000000000000000000000000000000000000000000000000000000000000000000000000040000000000000000020000000000000000000000000000000000000000400000000003000000000000000008000004000000000000000000000000000000000000100000080000020000000000000000000004000000000000000000000000000000000000000000000",
      "type": "0x2",
      "transactionHash": "0x8aad9296ddfd77bf9297fcf1a3ed4b067860ad2d5c7dc61f176a5ab66896f1c5",
      "transactionIndex": "0x2",
      "blockHash": "0xacea18688f845d5ebe8bb3c15834c0a5683e2f7bd588e26af19bb17f5390d911",
      "blockNumber": "0x7ed700",
      "gasUsed": "0xc7ff",
      "effectiveGasPrice": "0x746a528801",
      "from": "0xee2e617a42Aab5be36c290982493C6CC6C072982",
      "to": "0x619Fa7497172Fb48E77B845577c4e83FDFE15490",
      "contractAddress": null
    }
  ],
  "libraries": [],
  "pending": [],
  "returns": {},
  "timestamp": 1738693245,
  "chain": 4156,
  "commit": "15900e9"
}